:020000040000FA
:100000000C94A7010C94D8010C94D8010C94D8013D
:100010000C94D8010C94D8010C94D8010C94D801FC
:100020000C94D8010C94D8010C94D8010C94D801EC
:100030000C94D8010C94D8010C94D8010C94D801DC
:100040000C94D8010C94D8010C94D8010C94D801CC
:100050000C94D8010C94D8010C94D8010C94F4158C
:100060000C94D8010C9468160C943E160C94D8018C
:100070000C94D8010C94D8010C94D8010C94D8019C
:100080000C94D8010C94D8010C94D8010C94D8018C
:100090000C94D8010C94D8010C94D8010C94D8017C
:1000A0000C94D8010C94D8010C94D8010C94D8016C
:1000B0000C94D8010C94D8010C94D8010C94D8015C
:1000C0000C94D8010C94D8010C94D8010C94D8014C
:1000D0000C94D8010C94D8010C94D8010C94D8013C
:1000E0000C94D8010C947B020C949D060C94BF08D0
:1000F0000C9429030C94B7040C9492030C94AD084F
:100100000C94FA020C94C2020C94DD060C94300498
:100110000C94CF040C945A030C94CC020C94480712
:100120000C94CF140C94BB040C9499020C94B0065C
:100130000C9406070C94FC040C94B3040C94630612
:100140000C94F7020C9454060C9445070C94B002DE
:100150000C9431050C94C8020C942A060C943207B6
:100160000C9450070C948D020C94E0060C94F1074B
:100170000C94DF030C9448040C94AB050C942A07F0
:100180000C9447050C944C030C94FC020C94B4049E
:100190000C9427070C9422150C9424070C94380314
:1001A0000C94BE020C9476060C94A6020C94A20247
:1001B0000C94F9060C9424150C94AE050C94AC0226
:1001C0000C94ED070C9444050C94FE050C949E16BB
:1001D0000C9479060C94FF040C94D0060C949502B0
:1001E0000C94BA020C9411070C94BA040C94AF1539
:1001F0000C9450080C94DB050C94E3060C94170542
:100200000C94B1050C94EE060C943B070C94661507
:100210000C945C050C9476020C949C020C94B2082D
:100220000C94C5060C947F050C948E060C94A804BF
:100230000C94E9040C9402050C941A070C94910296
:100240000C94B4020C9420154009000043090000EE
:1002500046090000490900004C0900004802050059
:1002600000002200250028002B002E003100340061
:1002700002010000050108010B0105050505070540
:1002800008080808020202020A0A08080404040412
:10029000010101010101010103030303030303033E
:1002A000040707070C0C0C0C0C0C0C0C02020202CD
:1002B00006060606060606060B0B0B0B0B0B0B0BB6
:1002C0000102102020080810204010204080020168
:1002D000020108040201010204081020408080404D
:1002E000201008040201800402018040201008044C
:1002F00002010804020101020408102040800102EA
:1003000004081020408000000A0B02090C0D0E08A2
:1003100007030401000000000000000000000000CE
:1003200000000000000000000000000000000000CD
:10033000000012111000000000000000000000008A
:100340000000000000000000000000009E161124C4
:100350001FBECFEFDFEFDEBFCDBF00E00CBF15E06B
:10036000A0E0B2E0EAE1FCE300E00BBF02C00790CE
:100370000D92A038B107D9F729E0A0E8B5E001C097
:100380001D92AB37B207E1F711E0C7EAD1E000E018
:1003900006C021970109802FFE010E94151CC63A54
:1003A000D10780E00807A9F70E94FB160C940B1EEA
:1003B0000C94000040919D0750919E07EFE9F7E0F3
:1003C00081E090E04230510530F410929E07109287
:1003D0009D070895C901218121939C012F5F3F4F03
:1003E00042175307B9F790939E0780939D0708958E
:1003F000ECE3F9E086E295E09183808382E195E089
:100400009383828314821582168217821086118646
:10041000128613861486158616861786108A118A08
:10042000128A81E0838B148A158A2EE339E031A782
:1004300020A722E435E0378B268B108E9DE2918F2A
:1004400091E3928F838F148E158E168E178E81E016
:1004500090E0A0E0B0E080A391A3A2A3B3A384E6C0
:1004600099E095A384A381E090E097A386A328E474
:1004700035E033A722A72DE435E035A724A722E5F0
:1004800039E037A726A791AB80AB0895282F30E03D
:10049000F901EA5FFC4F9491F901E054FD4F44915A
:1004A00026583D4FF9012491222309F435C09923A0
:1004B00011F191509231F8F4E92FF0E08827EC59CE
:1004C000FD4F8F4F0C94151C9502990276028D02F8
:1004D00091027B029C02A202A602AC02B002B4020C
:1004E000BA02BE027B02C202C802CC028091800026
:1004F0008F7780938000E22FF0E0EE0FFF1FE05A2D
:10050000FD4FA591B4918FB7F894EC91611148C05B
:1005100040954E234C938FBF0895809180008F7D2E
:10052000E8CF80918000877FE4CF84B58F7784BD4A
:10053000E2CF84B58F7DFBCF8091B0008F77809321
:10054000B000D9CF8091B0008F7DF9CF809190001D
:100550008F7780939000CFCF809190008F7DF9CFDF
:1005600080919000877FF5CF8091A0008F77809356
:10057000A000C1CF8091A0008F7DF9CF8091A00015
:10058000877FF5CF809120018F7780932001B3CFB3
:10059000809120018F7DF9CF80912001877FF5CF59
:1005A0004E2BB8CF3FB7F8948091990790919A0756
:1005B000A0919B07B0919C0726B5A89B05C02F3F33
:1005C00019F00196A11DB11D3FBFBA2FA92F982F79
:1005D0008827BC01CD01620F711D811D911D42E074
:1005E000660F771F881F991F4A95D1F7089581E0FC
:1005F00090E008958A960895AF92BF92CF92DF92CD
:10060000EF92FF920F931F93CF93DF936C017B01C7
:100610008B01040F151FEB015E01AE18BF08C01758
:10062000D10759F06991D601ED91FC910190F081CB
:10063000E02DC6011995892B79F7C501DF91CF917E
:100640001F910F91FF90EF90DF90CF90BF90AF90F0
:100650000895FC01538D448D252F30E0842F90E0C8
:10066000821B930B541710F0CF96089501970895AD
:10067000FC01918D828D981761F0A28DAE0FBF2F76
:10068000B11D5D968C91928D9F5F9F73928F90E0CC
:1006900008958FEF9FEF0895FC01918D828D98173B
:1006A00031F0828DE80FF11D858D90E008958FEF78
:1006B0009FEF0895FC01918D228D892F90E0805C41
:1006C0009F4F821B91098F73992708958FE998E0B6
:1006D0000E945A0321E0892B09F420E0822F08951B
:1006E000FC01A48DA80FB92FB11DA35ABF4F2C91A7
:1006F000848D90E001968F739927848FA689B7899E
:100700002C93A089B1898C91837080648C93938D94
:10071000848D981306C00288F389E02D80818F7D37
:1007200080830895EF92FF920F931F93CF93DF93EF
:10073000EC0181E0888F9B8D8C8D98131AC0E8891D
:10074000F989808185FF15C09FB7F894EE89FF89EC
:100750006083E889F98980818370806480839FBF8A
:1007600081E090E0DF91CF911F910F91FF90EF908A
:100770000895F62E0B8D10E00F5F1F4F0F7311279A
:10078000E02E8C8D8E110CC00FB607FCFACFE889D5
:10079000F989808185FFF5CFCE010E947003F1CFEA
:1007A000EB8DEC0FFD2FF11DE35AFF4FF0829FB749
:1007B000F8940B8FEA89FB8980818062CFCFCF9339
:1007C000DF93EC01888D8823B9F0AA89BB89E88979
:1007D000F9898C9185FD03C0808186FD0DC00FB61F
:1007E00007FCF7CF8C9185FFF2CF808185FFEDCF9D
:1007F000CE010E947003E9CFDF91CF91089580E090
:1008000090E0892B29F00E94660381110E9400006C
:1008100080E090E0892B49F080E090E0892B29F07E
:100820000E94000081110E94000080E090E0892B6E
:1008300049F080E090E0892B29F00E9400008111AE
:100840000E94000080E090E0892B49F080E090E079
:10085000892B29F00E94000081110C94000008955A
:100860000895DB01FA0111962C911197222361F072
:1008700012963C912181222349F022812323FC01FD
:1008800020831182128208953C91F4CF2081F6CF0B
:10089000EF92FF920F931F93CF93DF93CDB7DEB705
:1008A0002F970FB6F894DEBF0FBECDBF8C017C0131
:1008B00082E0E80EF11CF8018681882309F442C029
:1008C000878191E089278F8318861986A801485F60
:1008D0005F4FF80184858823B9F1858591E08927E8
:1008E00089831A821B82BE016F5F7F4FCE010496FF
:1008F0000E943104AE01495F5F4FBE016C5F7F4FC4
:10090000CE010A960E943104A701BE01665F7F4FA7
:10091000CE010D960E9431048E858823B9F08F8513
:10092000F8019785911101C086872F960FB6F8942C
:10093000DEBF0FBECDBFDF91CF911F910F91FF9012
:10094000EF9008958581BDCF8385C8CF8D85E8CF91
:10095000FB011082118212821382FA01108211822D
:10096000128213820895089590E080E0089590E047
:1009700080E00895089581E595E00895282F8EE59B
:1009800092E0A0E0BB2730E0220F331F820F931FBD
:10099000A11DB11DABBFFC01879196910895CF9326
:1009A000DF9300D01F92CDB7DEB7FB0140815181AC
:1009B00062817381FC012481211104C04083518331
:1009C000628373830F900F900F900F90DF91CF9100
:1009D0000895FC018481882351F085819681A78147
:1009E000B085FB0180839183A283B38308958081C6
:1009F0009181A281B381F5CFFC0114820895FC019D
:100A000014820895CF93DF93FC01EB0188819981D3
:100A1000AA81BB8121E0248385839683A783B08745
:100A200080839183A283B383DF91CF910895CF9385
:100A3000DF9300D01F92CDB7DEB7FB01408151811B
:100A400062817381FC012481211104C040835183A0
:100A5000628373830F900F900F900F90DF91CF916F
:100A60000895FC018481882351F085819681A781B6
:100A7000B085FB0180839183A283B3830895808135
:100A80009181A281B381F5CFFC0114820895CF93A7
:100A9000DF93FC01EB0188819981AA81BB8121E070
:100AA000248385839683A783B08780839183A283E1
:100AB000B383DF91CF910895FC01DB018085811123
:100AC0001DC07C9111966C91119712965C911297B2
:100AD00013964C91139714963C91149715962C915C
:100AE000159716969C91169717968C917083618333
:100AF0005283438334832583968387830895FC013F
:100B0000DB0180858823F1F07185628553854485FA
:100B100035852685978580897C9311966C931197EE
:100B200012965C93129713964C93139714963C93DA
:100B3000149715962C93159716969C9316971796BF
:100B40008C93089570816181528143813481258124
:100B500096818781E1CFFC0110860895FC01108603
:100B60000895FC01DB017C9111966C91119712960E
:100B70005C91129713964C91139714963C9114978D
:100B800015962C91159716969C91169717968C9101
:100B9000A1E0A087718762875387448735872687BE
:100BA0009787808B7083618352834383348325834B
:100BB000968387830895FC01DB01808581111DC028
:100BC0007C9111966C91119712965C9112971396E5
:100BD0004C91139714963C91149715962C91159758
:100BE00016969C91169717968C9170836183528309
:100BF000438334832583968387830895FC01DB0137
:100C000080858823F1F0718562855385448535851B
:100C10002685978580897C9311966C9311971296FF
:100C20005C93129713964C93139714963C931497D6
:100C300015962C93159716969C93169717968C934A
:100C4000089570816181528143813481258196812B
:100C50008781E1CFFC01DB017C9111966C911197AA
:100C600012965C91129713964C91139714963C919F
:100C7000149715962C91159716969C911697179682
:100C80008C91A1E0A087718762875387448735875D
:100C900026879787808B7083618352834383348355
:100CA0002583968387830895FC01248121110AC03E
:100CB000FB014081518162817381FC01408351833A
:100CC000628373830895FC018481882351F08581B8
:100CD0009681A781B085FB0180839183A283B38332
:100CE000089580819181A281B381F5CFFC011482A6
:100CF0000895CF93DF93FC01EB0188819981AA814C
:100D0000BB8121E0248385839683A783B08780837A
:100D10009183A283B383DF91CF910895FC01248155
:100D200021110AC0FB014081518162817381FC0164
:100D300040835183628373830895FC0184818823F7
:100D400051F085819681A781B085FB0180839183D5
:100D5000A283B383089580819181A281B381F5CF6D
:100D6000CF93DF93FC01EB0188819981AA81BB813C
:100D700021E0248385839683A783B0878083918332
:100D8000A283B383DF91CF910895FC0122812111C9
:100D900006C0FB0120813181FC013183208308954D
:100DA000FC018281882331F083819481FB0191834E
:100DB0008083089580819181F9CFFC01128208958A
:100DC000FC0112820895FC01DB018D919C9121E0D0
:100DD000228394838383918380830895FC012281FD
:100DE000211106C0FB0120813181FC013183208368
:100DF0000895FC018281882331F083819481FB0175
:100E000091838083089580819181F9CFFC01DB017A
:100E10008D919C9121E022839483838391838083AD
:100E20000895FC012181211104C0FB012081FC01F6
:100E300020830895FC018181882321F08281FB01B8
:100E4000808308958081FBCFFC0111820895FC010D
:100E500011820895FC01DB018C9191E091838283E2
:100E600080830895FC012181211104C0FB012081B0
:100E7000FC0120830895FC018181882321F0828177
:100E8000FB01808308958081FBCFFC0111820895CE
:100E9000FC01DB018C9191E0918382838083089532
:100EA000FC018181882321F08281FB0180830895E8
:100EB0008081FBCF90E080E0FC01EE0FFF1FEB5044
:100EC000F94F0190F081E02D309709F010820196E2
:100ED0008833910589F7E5EBF6E085EF96E0A1917F
:100EE000B191109711F01D921C928E179F07B9F7C0
:100EF000EEECF4E08EE095E0A191B191109729F02D
:100F00001D921D921D921C9213978E179F07A1F799
:100F100008950F931F93882339F060E070E080E01C
:100F200090E01F910F9108950EE512E020E0332725
:100F30002BBFF8010791169160177107B0F48CE58B
:100F400092E0A0E0BB27ABBFFC0187919691660FB2
:100F5000771F660F771F680F791FFB01259134916A
:100F6000FB0132968491B901DBCF60E070E0D8CF0D
:100F70000E948907672B59F0853148F499E0899FD1
:100F8000F0011124EF5EFB4F808590E0089590E022
:100F900080E008950F931F93CF938A010E948907E1
:100FA000E82FCB010097B1F0E531A0F429E0E29FF2
:100FB000F0011124EF5EFB4FC085CC2359F0048073
:100FC000F581E02DB80119958C2F90E0CF911F91FC
:100FD0000F91089590E080E0F9CF9E5FFC011082B0
:100FE0000895EF92FF920F931F93CF93DF93CDB7A6
:100FF000DEB7CC5FD2400FB6F894DEBF0FBECDBFD8
:10100000FB0130813F3708F03EE7FB01BE016F5F17
:101010007D4FDB0120E0231751F0428151814527AC
:10102000542745274D935D932F5F3296F4CF30E0E0
:10103000DE01119650E040E07D014217530748F46D
:10104000FB0101911191BF010D931D934F5F5F4F04
:10105000F4CFD901AA0FBB1FAE0DBF1D1D921C926C
:10106000DC01BE5F41E04C93C150DE4F39832883E1
:10107000CF5FD140119680E092E0F70101900D9290
:101080000197E1F7C450DD4F0FB6F894DEBF0FBEF5
:10109000CDBFDF91CF911F910F91FF90EF900895F9
:1010A000EF92FF920F931F93CF93DF93CDB7DEB7ED
:1010B000CC5FD2400FB6F894DEBF0FBECDBFFB01B0
:1010C00030813F3708F03EE7FB01BE016F5F7D4F87
:1010D000DB0120E0231751F042815181452754273D
:1010E00045274D935D932F5F3296F4CF30E0DE01BC
:1010F000119650E040E07D014217530748F4FB0190
:1011000001911191BF010D931D934F5F5F4FF4CF7C
:10111000A901440F551F4E0D5F1DFA011182108267
:10112000C150DE4F39832883CF5FD14020E032E0C9
:10113000F701DC0101900D9221503040D9F7C450E5
:10114000DD4F0FB6F894DEBF0FBECDBFDF91CF915C
:101150001F910F91FF90EF9008958F5F9E4FFC01BC
:1011600010820895FC012181211108C021E0FB01BA
:101170003081311101C020E0FC0120830895FC0181
:1011800081E0DB019C91911101C080E091E09183AD
:101190008283808308950F931F93582F577001E027
:1011A00010E020E030E004C0000F111F221F331FA9
:1011B0005A95D2F723E0969587952A95E1F79927D6
:1011C000E0916F07F0917007662321F0E0917507B9
:1011D000F0917607E80FF91F8081442329F0082B4E
:1011E00000831F910F91089500950823F9CF23E004
:1011F00030E03093850520938405EFE9F7E0909186
:1012000065079083805881836283089520919F07AA
:10121000209530E0F901EF5EFC4F908190952F5EB4
:101220003D4FD9018C9140918405509185054250E4
:101230005109EFE9F7E031969F012F593740241704
:10124000350770F420819227292F30E0D901AF5E55
:10125000BC4F9C9198272F5E3D4FD9018C91EBCFCD
:1012600008952F923F924F925F926F927F928F924A
:101270009F92AF92BF92CF92DF92EF92FF920F9325
:101280001F93CF93DF93CDB7DEB7C855D1090FB603
:10129000F894DEBF0FBECDBF10E000E0F801EE0F06
:1012A000FF1FEB50F94F0190F081E02D309749F08E
:1012B00041E08081811101C040E060E0C8010E94EE
:1012C000CB080F5F1F4F0833110541F7E090660709
:1012D000F090670705EB16E02F961FAF0EAF2F9724
:1012E0008701005C1F4FF70125EB36E0D9018D9196
:1012F0009D919D01009729F0DC018D919C91918336
:10130000808332960E171F0789F7D12CC12CF60166
:10131000EE0FFF1FEB5BF94F0190F081E02D30974E
:1013200049F041E08081811101C040E061E0C601E7
:101330000E94CB08BFEFCB1ADB0AE8E3CE16D1043C
:1013400031F745E056E0E0917207F09173079F0195
:10135000205C3F4FDA018D919D91AD01009729F0FE
:10136000DC018D919C919183808332962E173F07EB
:1013700089F7EDEDF5E06196FFAFEEAF6197F8010B
:1013800008E6E00EF11C2DED35E0D9018D919D911F
:101390009D01009729F0DC018D919C9191838083C0
:1013A0003296EE16FF0689F7E5EBF5E06396FFAFA0
:1013B000EEAF6397E0916907F0916A079F01205BA8
:1013C0003F4F05EB15E0D8018D919D918D01009760
:1013D00049F0DC014D915D916D917C914083518389
:1013E0006283738334962E173F0769F7EDE8F5E0C3
:1013F0002D96FFAFEEAF2D97E0916C07F0916D0742
:101400009F0120563F4F8DE895E0DC01CD90DD90A7
:10141000CD01C114D104F1F0D601EC901196FC90ED
:10142000119712960C91129713961C91139714967C
:101430007C91149715966C91159716965C9116975A
:1014400017964C91E082F182028313837483658343
:10145000568347833896E217F307B9F6F09065078D
:10146000C0908A052996CFAE2997C0908B05D09061
:101470008C052796DFAECEAE27972796AEADBFADD3
:101480002797ED91FC9111970084F185E02DCD0116
:10149000199518161906BCF580919D0790919E0725
:1014A0008F3F910509F078F52796AEADBFAD279730
:1014B000ED91FC9111970284F385E02DCD011995F2
:1014C00020919D0730919E07A9014F5F5F4F509378
:1014D0009E0740939D072156384FF90180832FB70F
:1014E000F8948091950790919607A0919707B091F5
:1014F00098072FBF8093800590938105A093820564
:10150000B0938305BACF40919D0750919E07411536
:10151000510509F487C080919F07F81619F00E94C1
:10152000DA01F1CF4230510508F48AC18091A00759
:1015300009E0802E912CA12CB12C833409F442C0F7
:1015400028F5813158F48F3008F03EC18150863043
:1015500038F188248A94982C540134C0813409F4D9
:1015600069C18234B1F74830510508F469C18090EF
:10157000A5079090A607982489249824B12CA12C23
:101580001AE0810E911CA11CB11C1CC0893470F49E
:10159000863408F04FC1843409F424C18534C9F677
:1015A00088E0882E912CA12CB12C0CC08A3409F42F
:1015B00041C108F42DC115E0812E912CA12CB12C34
:1015C0008B3439F631E083169306A104B10408F098
:1015D000A6CF81149104A104B10429F08401481517
:1015E000590508F031C12FB7F89480919507909173
:1015F0009607A0919707B09198072FBF409180055B
:10160000509181056091820570918305841B950B33
:10161000A60BB70B0997A105B10520F010929E0704
:1016200010929D0740916F075091700730E020E0C5
:10163000F901EE0FFF1FEB50F94F0190F081E02D03
:10164000309799F0D90183E0B695A7958A95E1F78F
:10165000A40FB51F8C9190E0622F677002C0959522
:1016600087956A95E2F7817080832F5F3F4F28331B
:101670003105F1F68091660790916707BC01605CC7
:101680007F4FDC012F96EEADFFAD2F972191319169
:101690002F96FFAFEEAF2F972115310531F04D9109
:1016A0005C911197F9015183408312966A177B0769
:1016B00049F7FB0188599F4F6196AEADBFAD619769
:1016C0004D915D916196BFAFAEAF619741155105E8
:1016D00029F020813181DA012D933C9332968E17C7
:1016E0009F0751F7E0916907F0916A07CF01805B8E
:1016F0009F4F6396AEADBFAD63972D913D916396BD
:10170000BFAFAEAF63972115310551F040815181D4
:1017100062817381D9014D935D936D937C9313978F
:1017200034968E179F0729F7E0916C07F0916D07AB
:10173000CF0180569F4F2D96AEADBFAD2D97ED904A
:10174000FD902D96BFAFAEAF2D97E114F104F1F0EF
:1017500000811181728163815481458136812781A5
:10176000D7010C9311961C93119712967C931297A4
:1017700013966C93139714965C93149715964C9349
:10178000159716963C93169717962C9338968E17A6
:101790009F0789F6C85ADF4F0FB6F894DEBF0FBE19
:1017A000CDBFDF91CF911F910F91FF90EF90DF9010
:1017B000CF90BF90AF909F908F907F906F905F90F1
:1017C0004F903F902F90089547305105C8F1809079
:1017D000A507912CB12CA12CF9E08F0E911CA11C16
:1017E000B11CF0CE4430510558F12091A107309141
:1017F000A207322723273227A3E0B0E00E941D1C56
:101800004B015C0106E0800E911CA11CB11CDACEDC
:1018100044305105A8F08090A1079090A207982429
:1018200089249824B12CA12C26E0820E911CA11CA5
:10183000B11CC8CEA4E08A2E912CA12CB12CC2CE12
:10184000812C912C5401BECED090A0078FEB8D0D32
:101850008A3000F190928505809284050E940609E5
:10186000B501A40142505109610971094156584F0F
:10187000DA012C91B1E08B1A9108A108B108F401AA
:10188000E156F84F308123273227232728173907BD
:1018900009F045CE02501109109385050093840587
:1018A0006090A1077090A207762467247624809127
:1018B000A1070091A3071091A40710270127102763
:1018C000E090A207F090A307FE24EF24FE24C0902E
:1018D000A407E2E4DE1609F4A8C7ED1508F478C001
:1018E000F5E0DF1609F4D8C5FD1570F1F2E0CF2E52
:1018F000DC1409F417C5CD1450F0EE24E394DE1483
:1019000009F487C461E070E08D2D90E041C0E3E010
:10191000FE2EDF1409F4D8C124E0D212F3CFC8019F
:10192000019763E070E08D37910558F420917407BA
:10193000C301800F911F2817190608F07CC562E0CB
:1019400070E084E090E024C03FE0D31609F4C3C502
:101950003D1508F146E0D412D5CF2091680780915B
:101960006B0790E0880F991FE22FF0E08E0F9F1F0A
:1019700040916E0724E0429FA0011124480F591F97
:101980006416750608F493C062E070E086E090E0AB
:101990000E94F70899C080E1D81609F4BAC291E410
:1019A000D912B0CFD092A00781E08093A1078EE733
:1019B0008093A20780E00E94BE049093A3078093C7
:1019C000A40786E090E090938505809384057CC011
:1019D000A7E4DA1609F49BC7AD1508F441C0B4E4D6
:1019E000DB1609F4A7C6DB1608F432C6E5E4DE16FA
:1019F00009F463C7F6E4DF1285CF2FB7F89480911E
:101A0000950790919607A0919707B09198072FBFDF
:101A1000D092A0072EE72093A107209108022093DF
:101A2000A20720918207309183074091840750914B
:101A300085075093A3074093A4073093A5072093ED
:101A4000A607B093A707A093A8079093A907809330
:101A5000AA07809109028093AB078DE090E0B3CF95
:101A600079E4C72EDC1409F486C7DC1408F46EC7C9
:101A70006AE4E62EDE1409F48BC75BE4F52EDF1072
:101A800041CF813009F087C710928A078BE4809399
:101A9000A0078EE78093A107809108028093A20798
:101AA000809109028093A30785E090E08CCF6E16A9
:101AB0007F06D8F4660C771CE0916607F091670703
:101AC000E60DF71D118300838091840590918505B3
:101AD00002968130914008F45CC58091A00764E0D3
:101AE00070E090E00E94F70854C568167906F0F59A
:101AF000A80170E060E08091690790916A0760FC3E
:101B00001CC0D301AE1BBF0BFD01EE0FFF1FEC7F0E
:101B1000F370E80FF91F80819181A281B381AA2718
:101B2000BB27BA0155274427842B952BA62BB72B0F
:101B300080839183A283B383C7CFE095F095E60DB0
:101B4000F71DEE0FFF1FEC7FF370E80FF91F008108
:101B500011812281338100271127042B152B262B7D
:101B6000372B0083118322833383AECF93012370FD
:101B700033274801B12CA12CC12CD12C7601E09146
:101B80006C07F0916D072115310549F5681A790A3E
:101B9000660C771CB8EF6B22B7E07B22E60DF71DD1
:101BA0004080618072801381B481A581940140E0FE
:101BB00050E060E070E080E090E000E30E948B1C69
:101BC000242920833629318347294283512B53838B
:101BD000B62BB483A72BA5838683978375CF21303B
:101BE000310541F50FEF601A700A681A790A660C20
:101BF000771C18EF612217E07122E60DF71D408077
:101C0000618072801381B681A7819401A501B6011C
:101C1000C70100E20E948B1C2429208336293183CE
:101C200047294283152B1383648375838B2B86830B
:101C30009A2BD3CF2230310529F522E0620E711C98
:101C4000681A790A660C771C38EF632237E0732232
:101C5000E60DF71D4080618074801581B681A781F3
:101C60009401A501B601C70100E10E948B1C242943
:101C700020833629318342835383762A7482172B3B
:101C80001583D4CF43E0640E711C681A790A660C80
:101C9000771C88EF682287E07822E60DF71D5281D5
:101CA00043813481258196818781808291825A295E
:101CB00052834B2943833C2934832D2925839E2934
:101CC00096838F29878300CFC801019763E070E076
:101CD0008D379105C8F44301800E911E209168074D
:101CE000E0916B07F0E0EE0FFF1FE20FF11D809116
:101CF0006E07A4E08A9FC00111248E0F9F1F8816D3
:101D0000990628F062E070E083E090E041CE000F99
:101D1000111F0D5F1F4F10938505009384054FE938
:101D2000E42E47E0F42ED7011196CD018F5997404C
:101D30008017910710F41C92F7CF83E08093A007DF
:101D400003500093A107C0906C07D0906D07A0903E
:101D50006907B0906A074090660750906707A22F06
:101D6000B0E02B96BFAFAEAF2B9783E090E0DC01E5
:101D7000AE1BBF0BBEAFADAF2B962EAC3FAC2B97BF
:101D8000209430948614970409F49ECE2B96AEAD21
:101D9000BFAD2B976A167B0650F49301220F331FB9
:101DA000240D351DD9018C9111963C911CC06E16E5
:101DB0007F0680F560FC24C0C3012B96AEADBFAD9D
:101DC0002B978A1B9B0B880F991F8C7F93708A0D12
:101DD0009B1DDC014D915D916D917C91AB0166275E
:101DE0007727842F352FD70113963C93139714969A
:101DF0008C93B2E0EB0EF11C0FEF601A700AC2CFA9
:101E00009101260D371D220F331F2C7F33702A0DB1
:101E10003B1DC8CF8301037011270115110521F562
:101E200083010E1B1F0B000F111F087F17700C0D75
:101E30001D1DD8012C9111963C91119712964C9131
:101E4000129713965C91139714966C9114971596AC
:101E50007C91159716968C91169717969C9100E396
:101E60000E94A61C822FBFCF0130110511F50E1B59
:101E70001F0B060D171D000F111F087F17700C0D8B
:101E80001D1DD8012C9111963C91119712964C91E1
:101E9000129713965C91139714966C91149715965C
:101EA0007C91159716968C91169717969C9100E247
:101EB000D7CF0230110511F50E1B1F0B060D171D94
:101EC000000F111F087F17700C0D1D1DD8012C91DC
:101ED00011963C91119712964C91129713965C9122
:101EE000139714966C91149715967C9115971696E6
:101EF0008C91169717969C9100E1B2CF2DAD3EAD17
:101F0000260D371D220F331F287F37702C0D3D1DE6
:101F100049CFC80101978B37910540F42091A5075F
:101F2000C801880F991F2817190629F063E070E08F
:101F300080E190E02DCD2301400E511E20916807D5
:101F4000A0916B07B0E0AA0FBB1FA20FB11D80913B
:101F50006E0734E0839FC00111248A0F9B1F48162F
:101F6000590618F062E070E0E3CF86E090E09093CD
:101F700085058093840580E18093A0077092A10776
:101F80006092A2071092A3070093A40780906C07A9
:101F900090906D07E0916907F0916A072B96FFAF6B
:101FA000EEAF2B97C0906607D09067076596DFAEBF
:101FB000CEAE65973FE9232E37E0332EA22EB12C0B
:101FC00083E090E07C01EA1AFB0A6796FFAEEEAE72
:101FD0006797F501E095F0956996FFAFEEAF6997C9
:101FE0006414750409F4D5C2F10147818085542F2A
:101FF000482F6A147B0490F4F301EE0FFF1F6596DF
:10200000CEACDFAC6597EC0DFD1D518340833FEFF7
:10201000631A730A42E0240E311CE2CF6A167B0673
:10202000D0F570E060E060FC1FC0F301EA19FB0925
:10203000EE0FFF1FEC7FF3702B96EEACFFAC2B97EF
:10204000EE0DFF1D0081118122813381222733276C
:10205000BA0155274427402B512B622B732B408309
:10206000518362837383D3CF6996EEADFFAD6997D9
:10207000E60DF71DEE0FFF1FEC7FF3702B96CEAC35
:10208000DFAC2B97EC0DFD1D008111812281338186
:1020900000271127E0CFF301E370FF276A01F12C3D
:1020A000E12C00E010E09801CDAEDEAEEFAE21965F
:1020B000FFAE219722960FAF229723961FAF23974B
:1020C00024962FAF249725963FAF2597309779F523
:1020D000F301EA1BFB0BEE0FFF1FE87FF770E80D23
:1020E000F91DD0802896DFAE2897C180D280E3808A
:1020F000F48015812DAD3EAD40E050E060E070E031
:1021000080E090E000E30E948B1C28960FAD28979A
:10211000202B20833C2931834D2942835E29538320
:10212000F62AF482172B15838683978370CFE130CC
:10213000F10579F5EA1BFB0BE60DF71DEE0FFF1F0E
:10214000E87FF770E80DF91D108128961FAF2897DA
:10215000C180D280E380F68017812DAD3EAD40E096
:1021600050E060E070E080E090E000E20E948B1CB4
:1021700028960FAD2897202B20833C2931834D29A9
:102180004283E52AE382648375838F298683912BBA
:10219000CCCFE230F10561F5EA1BFB0BE60DF71D34
:1021A000EE0FFF1FE87FF770E80DF91D10812896EC
:1021B0001FAF2897C180D480E580F68017812DADB0
:1021C0003EAD40E050E060E070E080E090E000E193
:1021D0000E948B1C28960FAD2897202B20833C292A
:1021E000318342835383D62AD482E72AE582CDCF36
:1021F0006796EEADFFAD6797E60DF71DEE0FFF1F7B
:10220000E87FF770E80DF91D1DAD10832EAD218319
:10221000FECEC801019763E070E0803D974030F545
:1022200020917107C301800F911F62E070E02817B1
:102230001906E0F0C80123E0969587952A95E1F705
:10224000980127703327232BA1F4039690938505DB
:10225000809384058091840590918505EFE9F7E0EE
:102260008130B1E09B0738F064E070E081E090E0FD
:102270008FCB0496EBCF31969F012F59374028170B
:10228000390710F41082F7CF91E09093A0078350A4
:102290008093A107A0906F07B090700770E060E096
:1022A00020E0C12CD12C7601C39416012701022E07
:1022B00004C0220C331C441C551C0A94D2F7FB01A9
:1022C00043E0F695E7954A95E1F7EE55F84F3081F2
:1022D000A301A3E056954795AA95E1F74F715527BD
:1022E0004A0D5B1DDA014C9150E0B62DB77002C06B
:1022F00055954795BA95E2F7822D40FF0FC0832B85
:1023000080832F5F283009F420E0EFEF6E1A7E0AF9
:102310006F5F7F4F0617170741F6D6CB809538239E
:102320003083EFCFC801019763E070E0803D9740B4
:1023300030F520917707C301800F911F62E070E0B4
:1023400028171906E0F0C80133E0969587953A956D
:10235000E1F7980127703327232BA1F4039690937C
:102360008505809384058091840590918505EFE92A
:10237000F7E0813021E0920738F064E070E082E01D
:1023800090E006CB0496EBCF31969F012F59374052
:102390002817390710F41082F7CF92E09093A00726
:1023A00083508093A107609175077091760750E084
:1023B00040E0B12CC12CD12C7601C3941601270129
:1023C0000B2C04C0220C331C441C551C0A94D2F75D
:1023D000FA0183E0F695E7958A95E1F7EE55F84F17
:1023E000A080930193E0369527959A95E1F7260F03
:1023F000372F311DD9012C9130E0B62DB77002C0B6
:1024000035952795BA95E2F7822D20FF10C08A29CD
:102410008083B394E8E0BE1201C0B12CFFEF6F1AC5
:102420007F0A4F5F5F4F0417150741F64DCB80952C
:10243000A822A082EECFC801880F991F039690931F
:10244000850580938405EFE9F7E0DF0111969D0192
:102450002F5937402817390710F41C92F7CF94E012
:102460009093A00783508093A107660C771CA091DE
:102470007207B0917307A60DB71D0150110932966E
:102480000F3F100709F420CB8C9111969C91119766
:10249000129691838283F1CF01153FEF130729F044
:1024A00063E070E00115110549F4809171078150D6
:1024B000990B8615970528F462E070E085E090E0BE
:1024C00067CA41E001151F4F09F040E060E0C30119
:1024D0000E94CB08F9CA9801E3E036952795EA9562
:1024E000E1F7822FA80147705527452B11F081E0B5
:1024F000820F980121503109203B374020F4909100
:10250000A507981729F063E070E08FE090E040CADB
:1025100020917107C301800F911F2817190618F425
:1025200062E070E0F2CF86E090E0909385058093C2
:1025300084058FE08093A0077092A1076092A207A4
:102540001093A3070093A407F12CE12CD12CF701E1
:1025500073E0F695E7957A95E1F7E156F84F4781F4
:1025600050E00D2C02C0559547950A94E2F7417052
:1025700060E0C701860D971D0E94CB08D394A8E0A8
:10258000DA1201C0D12CBFEFEB1AFB0AE016F106FC
:10259000F1F6E0908405F090850587010E5F1F4FEE
:1025A00010938505009384050E940609F701E15602
:1025B000F84F908381832996CFAC2997C7FC12C02E
:1025C00061E08C2D0E9446028091860590918705DE
:1025D0008230910538F0880F991F880F991F059751
:1025E0000197F1F72796AEADBFAD2797ED91FC911E
:1025F00011970280F381E02DA8016FE977E0CD010A
:1026000019952796AEADBFAD2797ED91FC91119727
:102610000680F781E02DCD01199580918605909176
:1026200087058230910538F0880F991F880F991F10
:1026300005970197F1F72996CFAC2997C7FE02C0FD
:102640000C940E0B60E08C2D0E9446020C940E0B35
:10265000811165C0C090A407D090A5070E94BE0458
:10266000009709F45CC0E816F90608F058C0DC24AD
:10267000CD24DC24C816D90608F051C0CE14DF04DE
:1026800008F44DC047016AEAA62E67E0B62E10E0B6
:1026900000E0B40180E00E94B8079C01200F311FC8
:1026A000255F3F4F2130314098F4892B59F0A50127
:1026B000B40180E00E94CA07009721F0A80EB91E5D
:1026C000080F191FC40101967401C816D90628F510
:1026D000C8010B96909385058093840583E48093CD
:1026E000A0078EE78093A107F092A207E092A307CC
:1026F000809182079091830720918407309185070C
:102700003093A4072093A5079093A6078093A7076B
:102710001093A8070093A907D7C94C01BACF83E04B
:1027200090E0909385058093840583E48093A007CF
:1027300081E878C0F5E16F16710408F06AC0C30142
:10274000880F991F860D971DA3EAB7E08E010F5FD2
:102750001F4FF8019F01201B310B2817390718F470
:102760002D912193F7CFB12CA12C412CD12CC12C30
:102770004BE0E42EF12C6A147B0441F1D8013C902B
:1027800011968C90119712968C91982C882EB401EA
:10279000832D0E94B807009791F08E0D9F1D813008
:1027A0009140A0F4A7014156584FB401832D0E94D7
:1027B000CA07009721F0E80EF91EC80ED91E0D5F5A
:1027C0001F4F4A2CF50131965F01D5CFF092850558
:1027D000E092840584E48093A0078EE78093A107AC
:1027E0001092A2074092A3078091820790918307DD
:1027F00020918407309185073093A4072093A50783
:102800009093A6078093A707D092A807C092A90724
:102810005BC983E090E09093850580938405D09216
:10282000A00782E88093A1074FC90091A5071091E6
:10283000A607102701271027093F110548F083E05C
:1028400090E09093850580938405D092A00770CF87
:10285000B7010E948907282FCB01009751F125313C
:1028600040F530E049E0429FF001439FF00D112414
:10287000EF5EFB4FCC20C1F020852223E1F0201732
:10288000110609F0C0F40190F081E02D67EA77E0CD
:1028900019958EE723E030E0309385052093840579
:1028A00092E49093A007BECF0280F381E02D1995AA
:1028B000F0CF81E8EFCF82E8EDCFD092A0078EE78E
:1028C0008093A10781E2E9E5F5E0AE014F5F5F4F3C
:1028D000DA0101900D928A95E1F7E2EAF7E0DA0178
:1028E000CD01841B950B6D919F012F5937406623B5
:1028F00011F06193F5CF2156384F4DEAD9014C9331
:10290000FC01E156F84F2EED248305965CC8D09269
:10291000A0078EE78093A10786E0EAE7F5E0DE01F5
:10292000119601900D928A95E1F7FE013196A2EA87
:10293000B7E081919D012F593740882311F08D9385
:10294000F8CF3093850520938405BEC888E4809332
:10295000A0078EE78093A10789E08093A207EEE6A7
:10296000F9E0A3EAB7E087E799E021912D938E176C
:102970009F07D9F772C8D092A00784E8B2E66B1619
:10298000710409F485E88093A10783E090E01BC8F7
:10299000D092A007F7CF81E080938A0777C80F9382
:1029A0001F93CF93DF938B01FC01FE5F20812223D5
:1029B00051F19C012F5F3D4F22503E4FD9012D9187
:1029C0003C912F37310510F02EE730E0622FE801FF
:1029D00028834081442311F08F5F9D4FFC01D80173
:1029E00080E0861790F49081329611969C9311970F
:1029F000AF0142505109EA01998112969C931297B6
:102A00008F5F1296EECF9C01D7CF220F331F2F5F1F
:102A10003F4F2D3F310579F04DEF50E0421B530BF6
:102A200070E060E0C801820F931FDF91CF911F918A
:102A30000F910C94041EDF91CF911F910F91089577
:102A40000C94721D0C94721D0F931F93CF93DF9300
:102A5000CDB7DEB7C150D1400FB6F894DEBF0FBE80
:102A6000CDBF8C01FB0140814F3708F04EE750E0AD
:102A7000C050DF4F59834883C050D1406F5F7F4FB4
:102A8000CE0101960E94FB1DC050DF4FE881F98105
:102A9000C050D14081E090E08C0F9D1FE80FF91FDE
:102AA000108281E091E0FE013196D80101900D92F3
:102AB0000197E1F7CF5FDE4F0FB6F894DEBF0FBE90
:102AC000CDBFDF91CF911F910F9108950F931F9369
:102AD000CF93DF93CDB7DEB7C150D1400FB6F89496
:102AE000DEBF0FBECDBF8C01FB0140814F3708F028
:102AF0004EE750E0C050DF4F59834883C050D1406B
:102B00006F5F7F4FCE0101960E94FB1DC050DF4FCB
:102B1000E881F981C050D14081E090E08C0F9D1F89
:102B2000E80FF91F1082F801EF5FFE4F81E080830C
:102B3000D801AE5FBE4F81E091E0FE013196019079
:102B40000D920197E1F7CF5FDE4F0FB6F894DEBF2D
:102B50000FBECDBFDF91CF911F910F910895FF92CE
:102B60000F931F93CF93DF938B01FC01EF5FFE4F19
:102B70002081222319F19C012E5F3E4F21503F4FAF
:102B8000D901CD91DC91CF37D10510F0CEE7D0E05F
:102B9000FC2ED801CC93C11113C04EE750E04C1B62
:102BA0005D0BCE01019670E060E0800F911FDF9118
:102BB000CF911F910F91FF900C94041E9C01DECFCA
:102BC0002081BC01222311F06E5F7E4FAE01C8014F
:102BD00001960E94FB1D8EE7F812DFCFDF91CF91A7
:102BE0001F910F91FF9008951F920F920FB60F92B1
:102BF00011242F933F938F939F93AF93BF93809113
:102C0000950790919607A0919707B09198073091FA
:102C1000940723E0230F2D3758F50196A11DB11D10
:102C2000209394078093950790939607A093970716
:102C3000B09398078091990790919A07A0919B076C
:102C4000B0919C070196A11DB11D809399079093A7
:102C50009A07A0939B07B0939C07BF91AF919F9158
:102C60008F913F912F910F900FBE0F901F9018954D
:102C700026E8230F0296A11DB11DD2CF1F920F92FD
:102C80000FB60F9211240BB60F922F933F934F93D1
:102C90005F936F937F938F939F93AF93BF93EF93C4
:102CA000FF938FE998E00E947003FF91EF91BF912D
:102CB000AF919F918F917F916F915F914F913F91D4
:102CC0002F910F900BBE0F900FBE0F901F90189575
:102CD0001F920F920FB60F9211240BB60F922F93E3
:102CE0008F939F93EF93FF93E091AF08F091B0081B
:102CF0008081E091B508F091B60882FD1DC09081F9
:102D00008091B8088F5F8F732091B908821741F0C6
:102D1000E091B808F0E0E156F74F958F8093B8083E
:102D2000FF91EF919F918F912F910F900BBE0F907C
:102D30000FBE0F901F9018958081F2CF1092A208BD
:102D40001092A10888EE93E0A0E0B0E08093A30881
:102D50009093A408A093A508B093A60884E395E0F7
:102D60009093A00880939F0885EC90E09093AC0826
:102D70008093AB0884EC90E09093AE088093AD080C
:102D800080EC90E09093B0088093AF0881EC90E0E5
:102D90009093B2088093B10882EC90E09093B408CD
:102DA0008093B30886EC90E09093B6088093B508C2
:102DB0001092B8081092B9081092BA081092BB0885
:102DC0000E94F801AEE6B9E090E080E041E2FC014B
:102DD0003E9621E030E08630910510F430E020E0AE
:102DE000E20FF31F40935700E491ED930196893071
:102DF000910569F70895CF93DF93CDB7DEB7649758
:102E00000FB6F894DEBF0FBECDBF789484B5826054
:102E100084BD84B5816084BD85B5826085BD85B57E
:102E2000816085BD80916E00816080936E001092FC
:102E30008100809181008260809381008091810077
:102E40008160809381008091800081608093800008
:102E50008091B10084608093B1008091B000816066
:102E60008093B00080919100826080939100809166
:102E700091008160809391008091900081608093A7
:102E800090008091A10082608093A1008091A100B8
:102E900081608093A1008091A00081608093A00058
:102EA00080912101826080932101809121018160C4
:102EB0008093210180912001816080932001809185
:102EC0007A00846080937A0080917A008260809397
:102ED0007A0080917A00816080937A0080917A00F4
:102EE000806880937A001092C10020916C09309123
:102EF0006D093A8B298B80916A0990916B099A83AD
:102F000089839C8B8B8B1A8619861C821B82912C41
:102F1000812C712C612C512C412C312C212CA98914
:102F2000BA89E985FA85AE17BF0709F48FC0AB8966
:102F3000BC8950968D919C915197EB81FC81E80F53
:102F4000F91FFC83EB831296DC9012971396EC909A
:102F500013971496FC90149715960C911597169646
:102F60001C9116971796BC91EB89FC89C084B1849B
:102F70002D2D3E2D4F2D502F612F7B2F8C2D9B2DD6
:102F8000A0E00E94CA1C09F054F4D12C6DE2E62E98
:102F900071E3F72E01E010E0B0E0C12CB12CDD822E
:102FA000EF82FB860C871D87BE87CF86B88A292DC6
:102FB000382D472D562D652D742D832D922DA0E093
:102FC0000E94CA1C31F1AD80BF80CB84DC84ED84CB
:102FD000FE840F851889292D382D472D562D652DF6
:102FE000742D832D922D0E942C1CD22EE32EF42EB4
:102FF000052F162FB72FF82FE92F9A2C8B2C7C2C0E
:103000006C845D844E843F842888A0E00E94CA1CA2
:10301000A1F429853A852F5F3F4F3A8729878B890D
:103020009C8942969C8B8B8B9D808F807B846C844B
:103030005D844E843F84288872CFDD82EF82FB86D8
:103040000C871D87BE87FF87E88BBDCF292D382DC4
:10305000472D562D652D742D832D922DA0E00E94B5
:10306000CA1C59F4912C4DE2842E51E3752E66242E
:103070006394512C412C312C212C9092000280928F
:103080000102709202026092030250920402409286
:1030900005023092060220920702AB81BC818FEFBD
:1030A0009FEFA115E0E4BE0730F4CD01880F991F12
:1030B000009709F4A3C00E94D61C9E838D83909331
:1030C0008107809380072B813C81211580E238079E
:1030D00008F097C0C901880F991F880F991F0097A2
:1030E00009F492C00E94D61C98878F83909387071B
:1030F00080938607AB81BC81B0938907A093880732
:103100001C821B821A8A198AE985FA852B813C81E7
:10311000E217F30709F48CC0A981BA811296DC90FA
:1031200012971396EC9013971496FC90149715969B
:103130000C91159716961C9116971796BC91E981DC
:10314000FA81C084B1842D2D3E2D4F2D502F612F3B
:103150007B2F8C2D9B2DA0E00E94CA1C09F044F40B
:10316000292D382D472D562D652D742D832D922D0B
:10317000A92CB82CC72CD62CE52CF42C032D122D01
:103180000E942E1CB22EA32E742F652FA981BA8106
:1031900050964D915C918A01000F111FE988FA88C1
:1031A000EE0CFF1CC988DA88CC0CDD1CCC0CDD1CB5
:1031B00090E080E00817190751F1A981BA811E96A5
:1031C000ED91FC91E80FF91F20813181F701E80FA3
:1031D000F91FAD81BE81EA0FFB1F31832083FC0103
:1031E000EE0FFF1FEC0DFD1D2F813885E20FF31F41
:1031F000B082A182728363830296DCCF81E090E08B
:103200005ACF8FEF9FEF6ECF81E090E06BCF89892F
:103210009A89840F951F9A8B898BAB81BC811196FB
:10322000BC83AB83E981FA817296FA83E9836CCF20
:1032300081E08093090280930A0210928A078093AA
:1032400008029FB7F89440919507509196076091B6
:103250009707709198079FBFE091AF08F091B00871
:1032600092E09083E091AB08F091AC081082E0917D
:10327000AD08F091AE0890E190831092B708E0910C
:10328000B308F091B40896E09083E091B108F09112
:10329000B208908190619083E091B108F091B208FA
:1032A000908198609083E091B108F091B20890818C
:1032B00090689083E091B108F091B20890819F7D71
:1032C00090832FE938E030938C0520938B059FEF96
:1032D00090938A052EEE32E030938905209388057D
:1032E00021E43AE0309387052093860580936507B3
:1032F00084E38093680784E180936B0780936E0773
:1033000088E38093710790E2909374078093770726
:1033100087E090E00E94D61C9093700780936F071F
:10332000009709F451C0DC01E7E01D92EA95E9F746
:1033300088E690E00E94D61C90936707809366070A
:10334000009709F441C028E6DC011D922A95E9F7AF
:1033500080E590E00E94D61C90936A0780936907ED
:10336000009791F120E5FC0111922A95E9F780EA96
:1033700090E00E94D61C90936D0780936C07009795
:1033800019F120EADC011D922A95E9F787E090E027
:103390000E94D61C90937607809375070097A1F042
:1033A000FC0127E011922A95E9F780E490E00E9461
:1033B000D61C9093730780937207009729F020E43E
:1033C000DC011D922A95E9F71A82198209811A8176
:1033D000000F111F0B50194FF80180819181892B2B
:1033E00049F481E090E00E94D61CD8018D939C9313
:1033F000FC01108229813A812F5F3F4F3A83298354
:103400002833310519F780916607909167079A83F1
:103410008983E5EBF6E090E080E021913191232B68
:1034200041F4DF01129729813A81280F391F2D932A
:103430003C9302968034910581F710E000E0C801CA
:10344000880F991FDC01AB5BB94F7D018D919C9179
:10345000892B49F481E090E00E94D61CF70191830A
:103460008083DC011C920F5F1F4F0833110539F771
:103470002091720730917307E5E0F6E090E080E07C
:1034800041915191452B39F4DF011297A901480F61
:10349000591F4D935C9302968034910589F7EDEDA9
:1034A000F5E090E080E029813A81205C3F4F3A834B
:1034B000298321913191232B41F4DF011297298136
:1034C0003A81280F391F2D933C930296883291053B
:1034D00081F74091690750916A07E5EBF5E090E0CC
:1034E00080E021913191232B59F4DF0112979C0147
:1034F000220F331F220F331F240F351F2D933C93B0
:1035000001968431910569F740916C0750916D07E0
:10351000EDE8F5E090E080E021913191232B61F41A
:10352000DF0112979C0113E0220F331F1A95E1F778
:10353000240F351F2D933C9301968431910561F73B
:103540002091000230910102409102025091030249
:103550006091040270910502E8EEAE2EF3E0BF2EFA
:10356000C12CD12CE12CF12C00E010E0809106025E
:10357000909107020E942E1C20938C0730938D0798
:1035800040938E0750938F070E94D202609390075A
:103590007093910780939207909393079924939443
:1035A0000E94D202009190071091910720919207FA
:1035B00030919307601B710B820B930B00918C076A
:1035C00010918D0720918E0730918F07601771073A
:1035D0008207930708F4EEC080910A02811102C0AD
:1035E00010928A0790920A029092090280918A07AB
:1035F0008823A9F080910802882371F00E94F801C5
:103600000E945A0710928207109283071092840733
:1036100010928507109208020E945A075BC0909290
:1036200008021A8219828091880790918907A981DE
:10363000BA81A817B907D8F5E0918607F0918707F6
:10364000CD01880F991F880F991FE80FF91F20815E
:10365000318142815381211531054105510571F0B8
:10366000609182077091830780918407909185070C
:103670000E94F31B672B682B692B99F4E09180075C
:10368000F091810789819A81880F991FE80FF91FAE
:1036900080819181DC01ED91FC910480F581E02D28
:1036A0001995E981FA813196FA83E983BCCF80913B
:1036B000820790918307A0918407B09185070196B6
:1036C000A11DB11D8093820790938307A093840767
:1036D000B093850780910802813091F52091780799
:1036E0003091790740917A0750917B0760917C0770
:1036F00070917D0780917E0790917F07A0900002D6
:10370000B0900102C0900202D0900302E090040247
:10371000F090050200910602109107020E94C11C60
:10372000209378073093790740937A0750937B076B
:1037300060937C0770937D0780937E0790937F074B
:103740000E94310980918B07811118C090928B07DC
:103750000E94D20200918C0710918D0720918E0754
:1037600030918F07601B710B820B930B6093900756
:10377000709391078093920790939307809190079D
:1037800090919107A0919207B091930740918C0777
:1037900050918D0760918E0770918F07840F951F50
:1037A000A61FB71F8093900790939107A09392074D
:1037B000B09393070E94D202009190071091910755
:1037C0002091920730919307601B710B820B930B32
:1037D000603177428105910510F00E94310988958A
:1037E0000E94FF03DDCEA1E21A2EAA1BBB1BFD0126
:1037F0000DC0AA1FBB1FEE1FFF1FA217B307E407D0
:10380000F50720F0A21BB30BE40BF50B661F771F27
:10381000881F991F1A9469F7609570958095909507
:103820009B01AC01BD01CF010895EE0FFF1F881F62
:103830008BBF0790F691E02D1994A29FB001B39F22
:10384000C001A39F700D811D1124911DB29F700DA9
:10385000811D1124911D0895689401C0E8948F92F0
:103860009F92CF93DF930E943A1CDF91CF919F905C
:103870008F90089588249924F401E401B0E49F9383
:10388000AA279A158B049C04ED05FE05CF05D007E9
:10389000A10798F4AD2FDC2FCF2FFE2FE92D982C08
:1038A000892E982F872F762F652F542F432F322F55
:1038B0002227B85031F7BF9127C01B2EBF91BB27DD
:1038C000220F331F441F551F661F771F881F991F24
:1038D000881C991CEE1FFF1FCC1FDD1FAA1FBB1FDA
:1038E0008A149B04EC05FD05CE05DF05A007B10792
:1038F00048F08A189B08EC09FD09CE09DF09A00BE6
:10390000B10B21601A94E1F62EF49401AF01BE01CF
:10391000CD01000C0895002E083090F0982F872FCD
:10392000762F652F542F432F322F22270850F4CFA4
:10393000220F331F441F551F661F771F881F991FB3
:103940000A95B2F7002D089597FD1094002E0830C7
:1039500098F00850232F342F452F562F672F782F9C
:10396000892F912DF4CF1594979587957795679525
:1039700057954795379527950A95AAF71124002D55
:1039800008952A0D3B1D4C1D5D1D6E1D7F1D801F62
:10399000911F08950024A7FD00942A1730054005C3
:1039A0005005600570058005900508950F931F93DD
:1039B000CF93DF938230910510F482E090E0E091A4
:1039C0007909F0917A0930E020E0B0E0A0E030978A
:1039D00099F42115310509F44AC0281B390B24300C
:1039E0003105D8F58A819B816115710589F1FB014B
:1039F00093838283FE0111C0408151810281138132
:103A000048175907E0F04817590799F4109761F0E3
:103A100012960C93129713961C933296CF01DF9156
:103A2000CF911F910F9108950093790910937A090E
:103A3000F4CF2115310551F04217530738F0A90191
:103A4000DB019A01BD01DF01F801C1CFEF01F9CF20
:103A500090937A0980937909CDCFFE01E20FF31F8D
:103A6000819391932250310939832883D7CF2091B4
:103A7000770930917809232B41F420910D02309180
:103A80000E02309378092093770920910B02309130
:103A90000C022115310541F42DB73EB740910F02BC
:103AA00050911002241B350BE0917709F0917809B1
:103AB000E217F307A0F42E1B3F0B2817390778F005
:103AC000AC014E5F5F4F2417350748F04E0F5F1F64
:103AD0005093780940937709819391939FCFF0E0B9
:103AE000E0E09CCFCF93DF930097E9F0FC013297A1
:103AF00013821282A0917909B0917A09ED0130E028
:103B000020E01097A1F420813181820F931F209132
:103B10007709309178092817390709F061C0F093C7
:103B20007809E0937709DF91CF910895EA01CE17E4
:103B3000DF07E8F54A815B819E0141155105B1F728
:103B4000E901FB83EA8349915991C40FD51FEC1712
:103B5000FD0761F4808191810296840F951FE90130
:103B600099838883828193819B838A83F0E0E0E05C
:103B700012968D919C9113970097B9F52D913C91D8
:103B80001197CD010296820F931F209177093091F2
:103B900078092817390739F6309751F510927A09C4
:103BA00010927909B0937809A0937709BCCFD38399
:103BB000C28340815181840F951FC817D90761F4D2
:103BC0004E5F5F4F88819981480F591F5183408311
:103BD0008A819B81938382832115310509F0B0CFBF
:103BE000F0937A09E09379099ECFFD01DC01C0CF03
:103BF00013821282D7CFFB01DC0102C001900D922B
:103C000041505040D8F70895DC0101C06D934150F8
:103C10005040E0F70895F894FFCF002D31010000E7
:103C2000000001010100007B09800000C0C101C348
:103C30000302C2C60607C705C5C404CC0C0DCD0FD0
:103C4000CFCE0E0ACACB0BC90908C8D81819D91B80
:103C5000DBDA1A1EDEDF1FDD1D1CDC14D4D515D700
:103C60001716D6D21213D311D1D010F03031F13350
:103C7000F3F23236F6F737F53534F43CFCFD3DFF10
:103C80003F3EFEFA3A3BFB39F9F83828E8E929EBE0
:103C90002B2AEAEE2E2FEF2DEDEC2CE42425E52740
:103CA000E7E62622E2E323E12120E0A06061A163B0
:103CB000A3A26266A6A767A56564A46CACAD6DAF50
:103CC0006F6EAEAA6A6BAB69A9A86878B8B979BB00
:103CD0007B7ABABE7E7FBF7DBDBC7CB47475B57780
:103CE000B7B67672B2B373B17170B0509091519310
:103CF00053529296565797559594549C5C5D9D5F90
:103D00009F9E5E5A9A9B5B99595898884849894B5F
:103D10008B8A4A4E8E8F4F8D4D4C8C4484854587BF
:103D2000474686824243834181804000C1814001F1
:103D3000C0804101C0804100C1814001C08041007C
:103D4000C1814000C1814001C0804101C08041006B
:103D5000C1814000C1814001C0804100C18140015A
:103D6000C0804101C0804100C1814001C08041004C
:103D7000C1814000C1814001C0804100C18140013A
:103D8000C0804101C0804100C1814000C18140012B
:103D9000C0804101C0804100C1814001C08041001C
:103DA000C1814000C1814001C0804101C08041000B
:103DB000C1814000C1814001C0804100C1814001FA
:103DC000C0804101C0804100C1814000C1814001EB
:103DD000C0804101C0804100C1814001C0804100DC
:103DE000C1814000C1814001C0804100C1814001CA
:103DF000C0804101C0804100C1814001C0804100BC
:103E0000C1814000C1814001C0804101C0804100AA
:103E1000C1814000C1814001C0804100C181400199
:103E2000C0804101C0804100C18140BF08240750CB
:103E300007B20801480745073B073207012A072751
:103E4000071A071107010607DD06F906EE0602E369
:103E500006E006D006C50602B006FC049D068E06E6
:103E6000047906760663065406042A06AB05FE05A9
:103E7000DB0508B105AE057F055C0508470544056F
:103E800031051705040205FF04E904CF04042A07DD
:103E900027071A07110701E306E006D006C5060248
:103EA000790676066306540604B105AE057F055C07
:103EB00005082A06AB05FE05DB05082A06AB05FE4C
:103EC00005DB05082A06AB05FE05DB05082A06AB5F
:103ED00005FE05DB05086615AD08AF1524157FF155
:103EE00007ED07CF145008FD00000000000000009F
:103EF00000000000000000000000000000000000C2
:103F000000000000000000000000000000000000B1
:103F100000000000000000000000000000000000A1
:103F20000000000000000000000000003004201528
:103F30004804B704B404B304B304A80400000000A8
:103F4000BA042215BB04FA02F70200000000920333
:103F5000FC022903DF035A0338034C035441534B3B
:103F600030005245533000504C4300434F4E4649B9
:103F70004730003037383163386539343764343688
:103F8000376537643064353261323230633133350E
:0A3F900036653500342E322E37005E
:020000040003F7
:10E000000D9489F10D94B2F10D94B2F10D94B2F129
:10E010000D94B2F10D94B2F10D94B2F10D94B2F1F0
:10E020000D94B2F10D94B2F10D94B2F10D94B2F1E0
:10E030000D94B2F10D94B2F10D94B2F10D94B2F1D0
:10E040000D94B2F10D94B2F10D94B2F10D94B2F1C0
:10E050000D94B2F10D94B2F10D94B2F10D94B2F1B0
:10E060000D94B2F10D94B2F10D94B2F10D94B2F1A0
:10E070000D94B2F10D94B2F10D94B2F10D94B2F190
:10E080000D94B2F10D94B2F10D94B2F10D94B2F180
:10E090000D94B2F10D94B2F10D94B2F10D94B2F170
:10E0A0000D94B2F10D94B2F10D94B2F10D94B2F160
:10E0B0000D94B2F10D94B2F10D94B2F10D94B2F150
:10E0C0000D94B2F10D94B2F10D94B2F10D94B2F140
:10E0D0000D94B2F10D94B2F10D94B2F10D94B2F130
:10E0E0000D94B2F141546D656761323536300041AF
:10E0F000726475696E6F206578706C6F72657220DE
:10E1000073746B3530305632206279204D4C530099
:10E11000426F6F746C6F616465723E004875683F52
:10E1200000436F6D70696C6564206F6E203D200048
:10E130004350552054797065202020203D20005FF9
:10E140005F4156525F415243485F5F3D2000415658
:10E1500052204C696243205665723D20004743437C
:10E160002056657273696F6E203D20004350552024
:10E1700049442020202020203D20004C6F7720663D
:10E18000757365202020203D20004869676820665F
:10E190007573652020203D200045787420667573D6
:10E1A00065202020203D20004C6F636B2066757336
:10E1B000652020203D20004D617220203720323024
:10E1C000313300312E362E3800342E332E350056A2
:10E1D00023202020414444522020206F7020636F70
:10E1E00064652020202020696E73747275637469E1
:10E1F0006F6E2061646472202020496E74657272B3
:10E20000757074006E6F20766563746F7200726A49
:10E210006D702020006A6D70200057686174207056
:10E220006F72743A00506F7274206E6F7420737541
:10E2300070706F72746564004D7573742062652030
:10E2400061206C6574746572002000577269747483
:10E25000696E672045450052656164696E672045B7
:10E26000450045452065727220636E743D00504F35
:10E27000525400303D5A65726F2061646472003FF1
:10E280003D43505520737461747300403D454550C3
:10E29000524F4D207465737400423D426C696E6B41
:10E2A000204C454400453D44756D70204545505215
:10E2B0004F4D00463D44756D7020464C415348001B
:10E2C000483D48656C70004C3D4C69737420492F83
:10E2D0004F20506F72747300513D51756974005234
:10E2E0003D44756D702052414D00563D73686F7707
:10E2F00020696E7465727275707420566563746FF0
:10E30000727300593D506F727420626C696E6B00BD
:10E310002A0011241FBECFEFD1E2DEBFCDBF01E046
:10E320000CBF12E0A0E0B2E0EEE1FDEF03E00BBFB6
:10E3300002C007900D92A030B107D9F712E0A0E01B
:10E34000B2E001C01D92AE30B107E1F70F9460F367
:10E350000D948DFE01E20EBF0FEF0DBF11241FBE05
:10E360000D9460F30D9400F020E030E040ED57E0B4
:10E3700005C0FA013197F1F72F5F3F4F2817390792
:10E38000C0F308959C01260F311DC901A0E0B0E043
:10E390002F5F3F4FABBFFC018791882361F08093D3
:10E3A000C6008091C00086FFFCCF8091C0008064D1
:10E3B0008093C000EACF08958DE08093C6008091DD
:10E3C000C00086FFFCCF8091C00080648093C000B5
:10E3D0008AE08093C6008091C00086FFFCCF8091C8
:10E3E000C00080648093C00008950F94C2F10F9420
:10E3F000DCF10895FC019081992359F09093C600B7
:10E400008091C00086FFFCCF8091C0008064809323
:10E41000C0003196992379F70895282F982F929567
:10E420009F70892F805D8A3308F0895F8093C600D2
:10E430008091C00086FFFCCF8091C00080648093F3
:10E44000C000822F8F70982F905D9A3308F0995FEB
:10E450009093C6008091C00086FFFCCF8091C000E1
:10E4600080648093C00008959C01FB01853691056E
:10E470001CF46330710594F0C90164E670E00F94F8
:10E480002EFE605D7F4F6093C6008091C00086FFC6
:10E49000FCCF8091C00080648093C0002B30310598
:10E4A00014F43297B4F0C90164E670E00F942EFEC4
:10E4B0006AE070E00F942EFE605D7F4F6093C600AF
:10E4C0008091C00086FFFCCF8091C0008064809363
:10E4D000C000C9016AE070E00F942EFEC0968093E0
:10E4E000C6008091C00086FFFCCF8091C000806490
:10E4F0008093C00008951F93182F8EE692EE60E07F
:10E500000F94C2F11093C6008091C00086FFFCCF2B
:10E510008091C00080648093C0000F94DCF11F9153
:10E5200008952F923F924F925F926F927F928F92B7
:10E530009F92AF92BF92CF92DF92EF92FF920F9392
:10E540001F93DF93CF93CDB7DEB762970FB6F894E2
:10E55000DEBF0FBECDBF382E622ECA01DB015C01CB
:10E560006D01772420E2222E2E010894411C511CBB
:10E570008BC081E0A81680E0B80681E0C80680E084
:10E58000D80628F0C601AA27BB270F940DF2BB2797
:10E59000AD2D9C2D8B2D0F940DF28A2D0F940DF225
:10E5A0002092C6008091C00086FFFCCF8091C00001
:10E5B00080648093C0009DE29093C6008091C0006B
:10E5C00086FFFCCF8091C00080648093C0002092C1
:10E5D000C6008091C00086FFFCCF8091C00080649F
:10E5E0008093C00019828601750188249924A1E0D6
:10E5F0003A1651F03A1620F0B2E03B1661F409C029
:10E600000BBFF701779007C0C7010F9477FE782EF4
:10E6100002C0F7017080872D0F940DF22092C60082
:10E620008091C00086FFFCCF8091C0008064809301
:10E63000C000872D8052F401EF70F0708F3520F408
:10E64000E40DF51D708204C0E40DF51D8EE280839B
:10E650000894E11CF11C011D111D0894811C911CE2
:10E6600090E18916910409F0C2CF80E190E0A0E02A
:10E67000B0E0A80EB91ECA1EDB1E198AC2010F9493
:10E68000FAF10F94DCF16A94662009F072CF629679
:10E690000FB6F894DEBF0FBECDBFCF91DF911F91B3
:10E6A0000F91FF90EF90DF90CF90BF90AF909F9031
:10E6B0008F907F906F905F904F903F902F90089534
:10E6C0002F923F924F925F926F927F928F929F9282
:10E6D000AF92BF92CF92DF92EF92FF920F931F9370
:10E6E000DF93CF93CDB7DEB7CD53D1400FB6F894BB
:10E6F000DEBF0FBECDBF01E20EBF0FEF0DBF94B75F
:10E70000F894A89514BE80916000886180936000A1
:10E7100010926000789493FF05C0E0910002F091A0
:10E7200001021995279A2F9A8091C00082608093E8
:10E73000C00080E18093C40088E18093C1000000A4
:10E74000EE24FF24870144E0A42EB12CCC24DD2448
:10E7500024C0C5010197F1F70894E11CF11C011DCB
:10E76000111D21E2E2162EE4F20620E0020720E06D
:10E77000120718F031E0C32ED12CC801B70127ECE5
:10E780003BE140E050E00F9441FE611571058105C9
:10E79000910519F485B1805885B98091C00087FD35
:10E7A00003C0C114D104A9F2A6014F5F5F4FC25E3E
:10E7B000DE4F59834883CE51D140C25EDE4F8881FF
:10E7C0009981CE51D140019711F00D9410FEC05D9A
:10E7D000DE4F19821882C053D14060E0C15DDE4F28
:10E7E0001882CF52D14088249924C35DDE4F19820C
:10E7F0001882CD52D140C05EDE4F188219821A8233
:10E800001B82C052D140CE5CDE4F188219821A8220
:10E810001B82C253D140EE24FF2487010BBFF701B6
:10E8200007911691C45CDE4F19830883CC53D14005
:10E830000D940BFEC25EDE4F28813981CE51D1404E
:10E840002130310509F52091C600C25EDE4F1982E4
:10E850001882CE51D14022C02F5F3F4F4F4F5F4FA4
:10E86000213082E138078AE7480780E0580780F0C6
:10E87000C45CDE4FE881F981CC53D140EF5FFF4F9C
:10E8800019F0EE27FF27099420E030E040E050E047
:10E890008091C00087FFE0CF2091C600C35DDE4FAE
:10E8A00048815981CD52D1404F5F5F4FC35DDE4FEC
:10E8B00059834883CD52D140213209F063C64A3092
:10E8C000510508F05FC60894811C911C53E0851621
:10E8D000910409F059C600E010E018C081E280936D
:10E8E000C6008091C00086FFFCCF8091C00080648C
:10E8F0008093C0002F5F3F4F2931310579F70F9486
:10E90000DCF10F5F1F4F0530110519F020E030E0FA
:10E91000E5CF10920A0210920B0210920C02109294
:10E920000D02109206021092070210920802109235
:10E930000902109202021092030210920402109235
:10E9400005028FEE90EE60E00F94F5F180E191EE1C
:10E9500060E00F94C2F18091C00087FFFCCF9091DE
:10E96000C600903608F09F759032B8F09093C600BC
:10E970008091C00086FFFCCF8091C00080648093AE
:10E98000C000A0E2A093C6008091C00086FFFCCF2B
:10E990008091C00080648093C000983409F4D7C18E
:10E9A0009934B8F4923409F459C1933458F490333B
:10E9B00019F1903308F4E3C59F33A1F1903409F0C5
:10E9C000DEC5BDC0953409F470C1963409F0D7C5D1
:10E9D00098C1923509F42BC2933538F49C3409F46C
:10E9E000F5C1913509F0CBC518C2963509F445C279
:10E9F000993509F0C4C567C483E792EE62E00F94CD
:10EA0000F5F110920602109207021092080210927D
:10EA1000090210920A0210920B0210920C0210923C
:10EA20000D0213C18FE792EE62E00F94F5F18FEEC5
:10EA300090EE60E00F94F5F181E291EE60E00F94CA
:10EA4000C2F187EB91EE60E00F94F5F180E391EE77
:10EA500060E00F94C2F184EE90EE60E00F94F5F167
:10EA60008FE391EE60E00F94C2F186E090E061E008
:10EA700070E00F9434F20F94DCF18DE591EE60E0DC
:10EA80000F94C2F189EC91EE60E00F94F5F18EE401
:10EA900091EE60E00F94C2F183EC91EE60E00F9490
:10EAA000F5F18CE691EE60E00F94C2F18EE10F94E7
:10EAB0000DF288E90F940DF281E00F940DF20F949E
:10EAC000DCF18BE791EE60E00F94C2F119E0E0E039
:10EAD000F0E010935700E4918E2F0F940DF20F94F5
:10EAE000DCF18AE891EE60E00F94C2F1E3E0F0E03F
:10EAF00010935700E4918E2F0F940DF20F94DCF1D8
:10EB000089E991EE60E00F94C2F1E2E0F0E0109349
:10EB10005700E4918E2F0F940DF20F94DCF188EAE8
:10EB200091EE60E00F94C2F1E1E0F0E01093570045
:10EB30001491812F0F940DF20F94DCF107CF8BE825
:10EB400092EE62E00F94F5F18BE492EE60E00F94A8
:10EB5000F5F10F94DCF100E010E019C0C8016F2D51
:10EB60000F947FFEFF2031F489E492EE60E00F9471
:10EB7000C2F10BC0F092C6008091C00086FFFCCFAE
:10EB80008091C00080648093C0000F5F1F4FC80158
:10EB900081519F41A0E0B0E0ABBFFC01F790BAE229
:10EBA000FB1621F0E2E000301E07C1F60F94DCF105
:10EBB0000F94DCF187E592EE60E00F94F5F10F948D
:10EBC000DCF1CC24DD2400E010E01EC0C8010F946D
:10EBD00077FEF82E882331F489E492EE60E00F94FA
:10EBE000C2F10BC08093C6008091C00086FFFCCFAD
:10EBF0008091C00080648093C000FE1419F00894D6
:10EC0000C11CD11C0F5F1F4FC80181519F41A0E063
:10EC1000B0E0ABBFFC01E790FAE2EF1621F022E092
:10EC20000030120799F60F94DCF10F94DCF182E6C4
:10EC300092EE60E00F94C2F1C60161E070E00F94C3
:10EC400034F20F94DCF10F94DCF110920202109276
:10EC50000302109204021092050278CE89E992EE26
:10EC600062E00F94F5F1279A2F9A16C02F9880E052
:10EC700090E0E0EDF7E03197F1F7019684369105E9
:10EC8000C1F72F9A80E090E0E0EDF7E03197F1F7DF
:10EC9000019684369105C1F78091C00087FFE6CFC9
:10ECA0008091C00087FFFCCF64C485EA92EE62E0E9
:10ECB0000F94F5F140910202509103026091040219
:10ECC0007091050281E020E10F9491F2809102029F
:10ECD00090910302A0910402B091050280509F4FD1
:10ECE000AF4FBF4F8093020290930302A0930402A0
:10ECF000B093050280509041A040B04008F426CE69
:10ED0000A4CF83EB92EE62E00F94F5F140910602FE
:10ED100050910702609108027091090280E020E1A1
:10ED20000F9491F28091060290910702A09108023F
:10ED3000B091090280509F4FAF4FBF4F80930602A2
:10ED400090930702A0930802B0930902FFCD80ECD4
:10ED500092EE62E00F94F5F183E792EE60E00F949B
:10ED6000F5F18FE792EE60E00F94F5F18BE892EE0B
:10ED700060E00F94F5F189E992EE60E00F94F5F10F
:10ED800085EA92EE60E00F94F5F183EB92EE60E09D
:10ED90000F94F5F180EC92EE60E00F94F5F187ECC2
:10EDA00092EE60E00F94F5F188ED92EE60E00F9442
:10EDB000F5F18FED92EE60E00F94F5F18AEE92EEB0
:10EDC00060E00F94F5F183E093EEBDCD87EC92EE19
:10EDD00062E00F94F5F181E40F947BF282E40F94EA
:10EDE0007BF283E40F947BF284E40F947BF285E45E
:10EDF0000F947BF286E40F947BF287E40F947BF20E
:10EE000088E40F947BF28AE40F947BF28BE40F94F6
:10EE10007BF28CE40F947BF299CD88ED92EE62E068
:10EE20000F94F5F1772473948824992409C48FED05
:10EE300092EE62E00F94F5F140910A0250910B02BC
:10EE400060910C0270910D0282E020E10F9491F22A
:10EE500080910A0290910B02A0910C02B0910D02D8
:10EE600080509F4FAF4FBF4F80930A0290930B0289
:10EE7000A0930C02B0930D0269CD8AEE92EE62E08F
:10EE80000F94F5F184EE90EE60E00F94F5F18FECC5
:10EE900091EE60E00F94F5F1662477244301CC5D98
:10EEA000DE4F19821882C452D140D401C301B695F5
:10EEB000A79597958795CA5DDE4F88839983AA8326
:10EEC000BB83C652D140CC5DDE4FA881B981C4520C
:10EED000D1401196CC5DDE4FB983A883C452D14096
:10EEE000CD0162E070E00F9434F2B0E2B093C6005E
:10EEF0008091C00086FFFCCF8091C0008064809329
:10EF0000C000EDE2E093C6008091C00086FFFCCF18
:10EF10008091C00080648093C000F0E2F093C6004E
:10EF20008091C00086FFFCCF8091C00080648093F8
:10EF3000C000CA5DDE4FE880F9800A811B81C6529D
:10EF4000D140BB27A12F902F8F2D0F940DF2CA5DBA
:10EF5000DE4F8881C652D1400F940DF2B0E2FB2EF5
:10EF6000F092C6008091C00086FFFCCF8091C00067
:10EF700080648093C0000DE30093C6008091C000C0
:10EF800086FFFCCF8091C00080648093C00010E2B7
:10EF90001093C6008091C00086FFFCCF8091C00016
:10EFA00080648093C0008BBEF3012791C65DDE4F65
:10EFB0002883CA52D140A22EBB24CC24DD2408943D
:10EFC000611C711C811C911C8BBEF3018791282E42
:10EFD0003324442455240894611C711C811C911C09
:10EFE0008BBEF3013791C55DDE4F3883CB52D140E4
:10EFF0000894611C711C811C911C8BBEF30147910C
:10F00000C45DDE4F4883CC52D140ADEFEA2EAFEF66
:10F01000FA2EAFEF0A2FAFEF1A2F6E0C7F1C801E57
:10F02000911E142D032DF22CEE24EA0CFB1C0C1D5A
:10F030001D1D0F940DF220E22093C6008091C000A8
:10F0400086FFFCCF8091C00080648093C000C65DC5
:10F05000DE4F8881CA52D1400F940DF230E23093D6
:10F06000C6008091C00086FFFCCF8091C000806404
:10F070008093C000C45DDE4F8881CC52D1400F9494
:10F080000DF240E24093C6008091C00086FFFCCFA5
:10F090008091C00080648093C000C55DDE4F888190
:10F0A000CB52D1400F940DF250E25093C6008091A4
:10F0B000C00086FFFCCF8091C00080648093C000B8
:10F0C0008FEFE8168FEFF80680E0080780E018075A
:10F0D00031F484E092EE60E00F94C2F1DFC0D80119
:10F0E000C7018070907CA070B0708050904CA040A0
:10F0F000B040D1F52FEF3FE340E050E0E222F322B1
:10F1000004231523CA5DDE4FA880B980CA80DB8046
:10F11000C652D140AE0CBF1CC01ED11EAA0CBB1CD7
:10F12000CC1CDD1C8EE092EE60E00F94C2F1BB2798
:10F13000A12F902F8F2D0F940DF28E2D0F940DF285
:10F1400030E23093C6008091C00086FFFCCF8091F2
:10F15000C00080648093C0004EE34093C60080915D
:10F16000C00086FFFCCF87C08EE09EEFA0E0B0E03D
:10F17000E822F9220A231B239CE0E91694E9F90608
:10F1800090E0090790E0190709F088C0C45DDE4FE0
:10F19000A881CC52D140EA2EFF2400E010E0102FCD
:10F1A0000F2DFE2CEE24C55DDE4FB881CB52D14031
:10F1B000EB0EF11C011D111DD601C501817090706F
:10F1C000A070B070DC0199278827E80EF91E0A1F8D
:10F1D0001B1F20EF30E040E050E0A222B322C42207
:10F1E000D52241E1AA0CBB1CCC1CDD1C4A95D1F7F1
:10F1F000EA0CFB1C0C1D1D1D81E090E0A0E0B0E0BE
:10F20000282239224A225B2235E1220C331C441C7D
:10F21000551C3A95D1F7E20CF31C041D151D57013E
:10F220006801AA0CBB1CCC1CDD1C85E192EE60E0E1
:10F230000F94C2F1C801AA27BB270F940DF2BB2778
:10F24000A12F902F8F2D0F940DF28E2D0F940DF274
:10F2500090E29093C6008091C00086FFFCCF809121
:10F26000C00080648093C000AEE3A093C60080918C
:10F27000C00086FFFCCF8091C00080648093C000F6
:10F28000C601AA27BB270F940DF2BB27AD2D9C2DDD
:10F290008B2D0F940DF28A2D0F940DF20F94DCF14B
:10F2A000CC5DDE4FE881F981C452D140F99709F471
:10F2B0004DCBF4E0EF2EF12C012D112D6E0C7F1CA7
:10F2C000801E911EF2CD83E093EE62E00F94F5F183
:10F2D0008AE192EE60E00F94C2F18091C00087FF56
:10F2E000FCCF1091C6001F751093C6008091C0001E
:10F2F00086FFFCCF8091C00080648093C0000F9493
:10F30000DCF1812F81548A3108F036C1163409F4BA
:10F3100095C0173490F4133409F44EC0143430F40B
:10F320001134F1F0123409F01DC130C0143409F465
:10F3300059C0153409F016C16BC01A3409F4C4C0A1
:10F340001B3438F4173409F48FC0183409F00AC19B
:10F35000A1C01B3409F4D2C01C3409F003C1E8C0B9
:10F360008FEF81B90DC082B1809582B980E090E0C5
:10F37000E0EDF7E03197F1F70196883C9105C1F790
:10F380008091C00087FFEFCF12B8EFC08FEF84B934
:10F390000DC085B1809585B980E090E0E0EDF7E0A3
:10F3A0003197F1F70196883C9105C1F78091C00033
:10F3B00087FFEFCF15B8D9C08FEF87B90DC088B1DF
:10F3C000809588B980E090E0E0EDF7E03197F1F7C3
:10F3D0000196883C9105C1F78091C00087FFEFCF6F
:10F3E00018B8C3C08FEF8AB90DC08BB180958BB9A7
:10F3F00080E090E0E0EDF7E03197F1F70196883C8E
:10F400009105C1F78091C00087FFEFCF1BB8ADC059
:10F410008FEF8DB90DC08EB180958EB980E090E0F0
:10F42000E0EDF7E03197F1F70196883C9105C1F7DF
:10F430008091C00087FFEFCF1EB897C08FEF80BBD1
:10F440000DC081B3809581BB80E090E0E0EDF7E0F6
:10F450003197F1F70196883C9105C1F78091C00082
:10F4600087FFEFCF11BA81C08FEF83BB0DC084B38C
:10F47000809584BB80E090E0E0EDF7E03197F1F714
:10F480000196883C9105C1F78091C00087FFEFCFBE
:10F4900014BA6BC08FEF809301010FC080910201FD
:10F4A00080958093020180E090E0E0EDF7E03197F5
:10F4B000F1F70196883C9105C1F78091C00087FF64
:10F4C000EDCF1092020151C08FEF809304010FC065
:10F4D0008091050180958093050180E090E0E0ED4A
:10F4E000F7E03197F1F70196883C9105C1F78091DB
:10F4F000C00087FFEDCF1092050137C08FEF8093DA
:10F5000007010FC08091080180958093080180E079
:10F5100090E0E0EDF7E03197F1F70196883C910536
:10F52000C1F78091C00087FFEDCF109208011DC088
:10F530008FEF80930A010FC080910B01809580931B
:10F540000B0180E090E0E0EDF7E03197F1F70196F4
:10F55000883C9105C1F78091C00087FFEDCF1092E4
:10F560000B0103C085E292EEEEC98091C00087FFD7
:10F57000FCCF8091C600EAC988E392EEE4C98CE131
:10F5800091EEE1C988249924933011F1943028F444
:10F59000913089F09230B8F408C0953061F195301F
:10F5A000F0F0963009F048C043C02B3109F042C951
:10F5B00091E06BE13FC96227C15DDE4F2883CF52E6
:10F5C000D14092E037C9B22FA0E0622793E032C960
:10F5D000822F90E0A82BB92B622794E02BC92E3004
:10F5E00009F039C3622795E0C05DDE4F19821882A9
:10F5F000C053D1401FC9E1E0F0E0EC0FFD1FC05D3A
:10F60000DE4F08811981C053D140E00FF11F2083E4
:10F610000F5F1F4FC05DDE4F19830883C053D14079
:10F6200062270A171B0709F005C9D80196E002C92D
:10F63000261709F010C303C0973009F0FBC87724E0
:10F640009981933109F412C19431C8F4963009F4C8
:10F65000D8C0973050F4923009F406C1933009F4C1
:10F660006DC0913009F059C253C0913109F477C08F
:10F67000923108F0BBC0903109F04FC2F5C098310B
:10F6800009F487C0993150F4953109F4EFC09531F0
:10F6900008F4C6C1963109F040C2C2C19A3109F4DA
:10F6A0006CC09A3108F491C09B3109F45BC09D3164
:10F6B00009F033C29D81903359F48F81882311F46E
:10F6C0009EE11CC0813011F091E018C098E916C08D
:10F6D000892F807591F0903539F4E0E0F0E089E011
:10F6E0008093570094910AC0983539F4E3E0F0E034
:10F6F00089E080935700949101C090E01A821B82A8
:10F700008D818C831D829E831F8227E030E009C299
:10F710001A8288E08B8381E48C8386E58D8382E581
:10F720008E8389E48F8383E5888780E589878FE5E9
:10F730008A8782E38B872BE030E0F3C18A818139AD
:10F7400041F0823941F0803911F48FE005C080E04A
:10F7500003C082E001C08AE01A828B8344C0772410
:10F76000739482C08D81882311F48EE12CC0813086
:10F7700011F081E028C088E926C01A82E1E0F0E0BB
:10F7800089E08093570084918B831C8224E030E0D1
:10F79000C8C18B81803589F48C81883039F4E2E0EE
:10F7A000F0E089E08093570084910DC0E0E0F0E044
:10F7B00089E080935700849106C0E3E0F0E089E09F
:10F7C0008093570084911A82DFCF8D81836C99E0FA
:10F7D000E1E0F0E0082E90935700E89507B600FCB2
:10F7E000FDCF1A821B8223E030E09BC180EC8A832C
:10F7F000CE5CDE4F188219821A821B82C253D1401E
:10F800008EC18A8190E0A0E0B0E0582F44273327D2
:10F8100022278B8190E0A0E0B0E0DC0199278827C7
:10F82000282B392B4A2B5B2B8D8190E0A0E0B0E098
:10F83000282B392B4A2B5B2B8C8190E0A0E0B0E089
:10F84000BA2FA92F982F8827282B392B4A2B5B2BCF
:10F85000220F331F441F551FC05EDE4F288339839C
:10F860004A835B83C052D1401A8259C13A81C95C34
:10F87000DE4F3883C753D140CA5CDE4F1882C6536F
:10F88000D1408B81C82EDD24CA5CDE4F488159816E
:10F89000C653D140C42AD52A933109F082C0CE5C28
:10F8A000DE4F88819981AA81BB81C253D1408050AB
:10F8B000904CA340B04030F583E0CE5CDE4FE88052
:10F8C000F9800A811B81C253D140F70100935B008C
:10F8D00080935700E89507B600FCFDCFCE5CDE4F65
:10F8E000088119812A813B81C253D14000501F4FAA
:10F8F0002F4F3F4FCE5CDE4F088319832A833B8313
:10F90000C253D140C05EDE4F488159816A817B81FC
:10F91000C052D140DE011B9631E08C9111962C91A2
:10F9200011971296C75CDE4F2883C953D140C85C3B
:10F93000DE4F1882C853D14090E0C85CDE4FE881AA
:10F94000F981C853D1408E2B9F2B0C01FA01609393
:10F950005B0030935700E89511244E5F5F4F6F4F67
:10F960007F4F0EEFE02E0FEFF02ECE0CDF1CC114F8
:10F97000D10499F685E0C05EDE4F088119812A81A5
:10F980003B81C052D140F80120935B008093570027
:10F99000E89507B600FCFDCF81E180935700E8951C
:10F9A00035C0C05EDE4F88819981AA81BB81C0527B
:10F9B000D140B695A795979587957C018601ABE0D8
:10F9C000AA2EB12CAC0EBD1E0BC0D5016D915D01F0
:10F9D000C7010F947FFE0894E11CF11C01501040F8
:10F9E0000115110591F7A60160E070E0440F551F65
:10F9F000661F771FC05EDE4FE880F9800A811B8199
:10FA0000C052D1404E0D5F1D601F711F1A82C05E33
:10FA1000DE4F488359836A837B83C052D1407FC0C5
:10FA2000FA80C55CDE4FF882CB53D140C65CDE4F16
:10FA30001882CA53D1408B81C82EDD24C65CDE4FAC
:10FA400008811981CA53D140C02AD12A1A828981DA
:10FA5000BE016D5F7F4F843121F59601C05EDE4FA0
:10FA6000E880F9800A811B81C052D1400BBFF701A9
:10FA700087919691DB018C9311969C936E5F7F4FDB
:10FA8000D801C7010296A11DB11DC05EDE4F88835B
:10FA90009983AA83BB83C052D14022503040F1F6F3
:10FAA00036C0C05EDE4F288139814A815B81C052F9
:10FAB000D1400894C108D108760100E010E0089414
:10FAC000C11CD11C0894E11CF11C011D111DE20E8A
:10FAD000F31E041F151F21BDBB27A52F942F832FB5
:10FAE00082BD2F5F3F4F4F4F5F4FF89A80B5DB01CC
:10FAF0008D93BD012E153F054007510761F7C05E8C
:10FB0000DE4F288339834A835B83C052D1409601FC
:10FB10002D5F3F4FFB01108204C080EC8A8322E0FE
:10FB200030E08BE18093C6008091C00086FFFCCF5F
:10FB30008091C00080648093C000C15DDE4FF88179
