:100000000C94C1010C94F2010C94F2010C94F201D5
:100010000C94F2010C94F2010C94F2010C94F20194
:100020000C94F2010C94F2010C94F2010C94F20184
:100030000C94F2010C94F2010C94F2010C94F20174
:100040000C94F2010C94F2010C94F2010C94F20164
:100050000C94F2010C94F2010C94F2010C94531ADA
:100060000C94F2010C94C71A0C949D1A0C94F20192
:100070000C94F2010C94F2010C94F2010C94F20134
:100080000C94F2010C94F2010C94F2010C94F20124
:100090000C94F2010C94F2010C94F2010C94F20114
:1000A0000C94F2010C94F2010C94F2010C94F20104
:1000B0000C94F2010C94F2010C94F2010C94F201F4
:1000C0000C94F2010C94F2010C94F2010C94F201E4
:1000D0000C94F2010C94F2010C94F2010C94F201D4
:1000E0000C94F2010C940E1A0C94AB0C0C94480C6A
:1000F0000C949D070C9459020C9410040C949802D3
:100100000C9405030C9448070C9497070C9468060C
:100110000C9457070C9402080C942A190C940106AD
:100120000C9465020C94C9020C94B7040C94330728
:100130000C94D4070C94FE050C947C020C940A04D5
:100140000C94FF070C94A8070C9427030C94E40765
:100150000C946B060C94B3070C9447020C94800229
:100160000C947B190C944C0C0C945D020C94F507C8
:100170000C94C6020C946E020C94B9050C940D04F8
:100180000C947F070C94DE070C9420080C941A0D35
:100190000C9461020C94AC0B0C94B8060C941D07E3
:1001A0000C94BC050C940E070C94CC190C947D197E
:1001B0000C94B6050C9430070C947F190C94EB0545
:1001C0000C9419030C9468020C9489050C948319FF
:1001D0000C946A070C948E020C945F030C948119A2
:1001E0000C9439060C9416060C94F6020C949A079B
:1001F0000C94FD1A0C94E1070C9442020C94C30277
:100200000C9465060C94FE030C94A3050C94CB0788
:100210000C9495060C9472020C94FD030C948A07BE
:100220000C9411040C94AC030C9478020C94090403
:100230000C94C0070C9494020C948A020C94EC0762
:100240000C9486020C940D0D0C94080D0C94E4068D
:100250000C94D10550090000530900005609000014
:100260005B0900005E090F006F09000072090F00B2
:10027000B0090000B3090F00C4090000C7090F004E
:10028000050A0000080A0F00190A00001C0A0F00E6
:1002900054020F0000002200250028002B002E0031
:1002A0003100340002010000050108010B010505C1
:1002B0000505070508080808020202020A0A0808DC
:1002C000040404040101010101010101030303030A
:1002D00003030303040707070C0C0C0C0C0C0C0C99
:1002E0000202020206060606060606060B0B0B0BAA
:1002F0000B0B0B0B010210202008081020401020CF
:1003000040800201020108040201010204081020D9
:1003100040808040201008040201800402018040D7
:100320002010080402010804020101020408102040
:100330004080010204081020408000000A0B0209DE
:100340000C0D0E080703040100000000000000006F
:10035000000000000000000000000000000000009D
:10036000000000000000121110000000000000005A
:10037000000000000000000000000000000000007D
:10038000FD1A11241FBECFEFDFEFDEBFCDBF00E0AF
:100390000CBF15E0A0E0B2E0ECEFF4E400E00BBF2E
:1003A00002C007900D92A039B107D9F72AE0A0E961
:1003B000B5E001C01D92A438B207E1F711E0C1EC2D
:1003C000D1E000E006C021970109802FFE010E94C4
:1003D0007420C03CD10780E00807A9F70E945A1B8F
:1003E0000C947C220C9400004091AD075091AE0714
:1003F000EFEAF7E081E090E04230510530F41092EE
:10040000AE071092AD070895C901218121939C0187
:100410002F5F3F4F42175307B9F79093AE07809372
:10042000AD070895282F30E0F901E65CFC4F949168
:10043000F901EC50FD4F449122553D4FF9012491B3
:10044000222309F435C0992311F191509231F8F427
:10045000E92FF0E08827E05DFD4F8F4F0C9474206A
:1004600061026502420259025D02470268026E02A1
:10047000720278027C02800286028A0247028E02A1
:1004800094029802809180008F7780938000E22F01
:10049000F0E0EE0FFF1FEC56FD4FA591B4918FB722
:1004A000F894EC91611148C040954E234C938FBF56
:1004B0000895809180008F7DE8CF80918000877FB4
:1004C000E4CF84B58F7784BDE2CF84B58F7DFBCF39
:1004D0008091B0008F778093B000D9CF8091B00029
:1004E0008F7DF9CF809190008F7780939000CFCF50
:1004F000809190008F7DF9CF80919000877FF5CF1C
:100500008091A0008F778093A000C1CF8091A00040
:100510008F7DF9CF8091A000877FF5CF809120015A
:100520008F7780932001B3CF809120018F7DF9CF09
:1005300080912001877FF5CF4E2BB8CF3FB7F8943D
:100540008091A9079091AA07A091AB07B091AC0741
:1005500026B5A89B05C02F3F19F00196A11DB11D1E
:100560003FBFBA2FA92F982F8827BC01CD01620F5A
:10057000711D811D911D42E0660F771F881F991F15
:100580004A95D1F7089581E090E008958D5D9E4FE2
:100590000895AF92BF92CF92DF92EF92FF920F93A6
:1005A0001F93CF93DF936C017B018B01040F151F09
:1005B000EB015E01AE18BF08C017D10759F0699171
:1005C000D601ED91FC910190F081E02DC6011995C5
:1005D000892B79F7C501DF91CF911F910F91FF9082
:1005E000EF90DF90CF90BF90AF900895FC01538DB6
:1005F000448D252F30E0842F90E0821B930B5417FD
:1006000010F0CF96089501970895FC01918D828D89
:10061000981761F0A28DAE0FBF2FB11D5D968C9122
:10062000928D9F5F9F73928F90E008958FEF9FEF61
:100630000895FC01918D828D981731F0828DE80F1D
:10064000F11D858D90E008958FEF9FEF0895FC01D7
:10065000918D228D892F90E0805C9F4F821B9109A4
:100660008F73992708958FEA98E00E94270321E06D
:10067000892B09F420E0822F0895FC01A48DA80F96
:10068000B92FB11DA35ABF4F2C91848D90E00196D4
:100690008F739927848FA689B7892C93A089B189F4
:1006A0008C91837080648C93938D848D981306C095
:1006B0000288F389E02D80818F7D80830895EF92F9
:1006C000FF920F931F93CF93DF93EC0181E0888F0C
:1006D0009B8D8C8D98131AC0E889F989808185FFDC
:1006E00015C09FB7F894EE89FF896083E889F9897E
:1006F00080818370806480839FBF81E090E0DF9180
:10070000CF911F910F91FF90EF900895F62E0B8DD2
:1007100010E00F5F1F4F0F731127E02E8C8D8E118D
:100720000CC00FB607FCFACFE889F989808185FFF4
:10073000F5CFCE010E943D03F1CFEB8DEC0FFD2FE5
:10074000F11DE35AFF4FF0829FB7F8940B8FEA89AF
:10075000FB8980818062CFCFCF93DF93EC01888DBE
:100760008823B9F0AA89BB89E889F9898C9185FD2C
:1007700003C0808186FD0DC00FB607FCF7CF8C91BA
:1007800085FFF2CF808185FFEDCFCE010E943D0332
:10079000E9CFDF91CF91089580E090E0892B29F097
:1007A0000E94330381110E94000080E090E0892BB9
:1007B00049F080E090E0892B29F00E94000081112F
:1007C0000E94000080E090E0892B49F080E090E0FA
:1007D000892B29F00E94000081110E94000080E016
:1007E00090E0892B49F080E090E0892B29F00E946D
:1007F000000081110C94000008950895FB011082FF
:10080000118212821382FA011082118212821382E3
:100810000895089590E080E0089590E080E00895C4
:1008200008950895AF92BF92CF92DF92EF92FF9218
:100830000F931F93DC01FB0118968C911897882366
:1008400089F11996AC9019971A96BC901A971B9635
:10085000CC901B971C96DC901C971D96EC901D97D6
:100860001E96FC901E971F960C911F9750961C91F8
:100870008085882369F12185328543855485658586
:10088000768587859089E1E00E9432210CF4E0E0D2
:100890008E2F1F910F91FF90EF90DF90CF90BF9020
:1008A000AF900895AC901196BC9011971296CC9091
:1008B00012971396DC9013971496EC901497159654
:1008C000FC90159716960C91169717961C91D0CF01
:1008D0002081318142815381648175818681978134
:1008E000D2CFDC01FB018085882329F171856285E7
:1008F0005385448535852685978580891896EC91A2
:100900001897E11116C07C9311966C93119712966B
:100910005C93129713964C93139714963C931497E9
:1009200015962C93159716969C93169717968C935D
:100930001797CD010895708161815281438134817F
:10094000258196818781DACFFC0110821182128283
:1009500013821482158216821782108611861286DF
:1009600013861486158616861786108A089582E5E2
:1009700095E00895CF93DF93EC0182E195E09983B0
:1009800088831A821B821C82CE0105960E94A404D1
:100990001E8A1F8A188ECE0149960E94A4041AA6A8
:1009A0001BA61CA61DA61EA61FA6CE01C0960E94B1
:1009B000A404CE018F5B9F4F0E94A404CE5ADF4F48
:1009C00081E0888319821A82DF91CF910895CF93B5
:1009D000DF93CCE4D9E086E395E09983888382E2D3
:1009E00095E09B838A831C821D821E821F8218864B
:1009F00019861A861B861C868AE195E09E878D875C
:100A00001F86188A198A8EE599E00E94A4041BA209
:100A10001CA21DA282E799E00E94A4041FAA18AE9E
:100A200019AE1AAE1BAE1CAE89E899E00E94A40470
:100A30008AE999E00E94A404C1E0C093AB09109236
:100A4000AC091092AD098EEA99E00E94BA0483E0E5
:100A50009AE00E94BA04C093580A1092590A109260
:100A60005A0A8DE69AE02EE439E0FC0131832083B6
:100A7000ABE5BAE02AE535E011963C932E93EDE51F
:100A8000FAE010822DE2218321E32283C3831482C2
:100A900015821682178241E050E060E070E04093DA
:100AA000650A5093660A6093670A7093680A909388
:100AB0006A0A8093690A81E090E090936C0A8093BF
:100AC0006B0A20E635E03093700A20936F0A25E622
:100AD00035E03093720A2093710AB093740AA093A0
:100AE000730A9093760A8093750ADF91CF910895E7
:100AF000282F82E992E0A0E0BB2730E0220F331FCD
:100B0000820F931FA11DB11DABBFFC018791969170
:100B10000895CF93DF9300D01F92CDB7DEB7FB01CE
:100B20004081518162817381FC012481211104C0C3
:100B300040835183628373830F900F900F900F90C7
:100B4000DF91CF910895FC018481882351F0858144
:100B50009681A781B085FB0180839183A283B383B3
:100B6000089580819181A281B381F5CFFC01148227
:100B70000895FC0114820895CF93DF93FC01EB01EB
:100B800088819981AA81BB8121E024838583968312
:100B9000A783B08780839183A283B383DF91CF91B2
:100BA0000895CF93DF9300D01F92CDB7DEB7FB013E
:100BB0004081518162817381FC012481211104C033
:100BC00040835183628373830F900F900F900F9037
:100BD000DF91CF910895FC018481882351F08581B4
:100BE0009681A781B085FB0180839183A283B38323
:100BF000089580819181A281B381F5CFFC01148297
:100C00000895CF93DF93FC01EB0188819981AA813C
:100C1000BB8121E0248385839683A783B08780836B
:100C20009183A283B383DF91CF910895FC01DB010F
:100C3000808581111DC07C9111966C91119712963F
:100C40005C91129713964C91139714963C911497BC
:100C500015962C91159716969C91169717968C9130
:100C60007083618352834383348325839683878390
:100C70000895FC01DB0180858823F1F07185628590
:100C80005385448535852685978580897C93119683
:100C90006C93119712965C93129713964C9313973B
:100CA00014963C93149715962C93159716969C932F
:100CB000169717968C9308957081618152814381B4
:100CC0003481258196818781E1CFFC0110860895CA
:100CD000FC0110860895FC01DB017C9111966C915A
:100CE000119712965C91129713964C911397149644
:100CF0003C91149715962C91159716969C911697E2
:100D000017968C91A1E0A0877187628753874487EB
:100D1000358726879787808B7083618352834383CF
:100D200034832583968387830895FC01DB018085C6
:100D300081111DC07C9111966C91119712965C9156
:100D4000129713964C91139714963C9114971596FD
:100D50002C91159716969C91169717968C917083E7
:100D600061835283438334832583968387830895E5
:100D7000FC01DB0180858823F1F071856285538554
:100D8000448535852685978580897C9311966C935B
:100D9000119712965C93129713964C93139714968F
:100DA0003C93149715962C93159716969C9316972B
:100DB00017968C93089570816181528143813481AB
:100DC000258196818781E1CFFC01DB017C91119621
:100DD0006C91119712965C91129713964C91139700
:100DE00014963C91149715962C91159716969C91F4
:100DF000169717968C91A1E0A08771876287538719
:100E00004487358726879787808B708361835283D9
:100E1000438334832583968387830895FC0124814B
:100E200021110AC0FB014081518162817381FC0163
:100E300040835183628373830895FC0184818823F6
:100E400051F085819681A781B085FB0180839183D4
:100E5000A283B383089580819181A281B381F5CF6C
:100E6000FC0114820895CF93DF93FC01EB0188818C
:100E70009981AA81BB8121E0248385839683A783FE
:100E8000B08780839183A283B383DF91CF9108954C
:100E9000FC01248121110AC0FB0140815181628142
:100EA0007381FC0140835183628373830895FC0145
:100EB0008481882351F085819681A781B085FB01CB
:100EC00080839183A283B383089580819181A281DD
:100ED000B381F5CFCF93DF93FC01EB01888199813A
:100EE000AA81BB8121E0248385839683A783B08771
:100EF00080839183A283B383DF91CF910895FC0116
:100F00002281211106C0FB0120813181FC01318346
:100F100020830895FC018281882331F083819481AC
:100F2000FB0191838083089580819181F9CFFC0139
:100F300012820895FC0112820895FC01DB018D915B
:100F40009C9121E0228394838383918380830895FD
:100F5000FC012281211106C0FB0120813181FC01AD
:100F6000318320830895FC018281882331F08381BD
:100F70009481FB0191838083089580819181F9CFD1
:100F8000FC01DB018D919C9121E02283948383837A
:100F9000918380830895FC012181211104C0FB010C
:100FA0002081FC0120830895FC018181882321F0A8
:100FB0008281FB01808308958081FBCFFC01118237
:100FC0000895FC0111820895FC01DB018C9191E0F0
:100FD0009183828380830895FC012181211104C0C3
:100FE000FB012081FC0120830895FC01818188237D
:100FF00021F08281FB01808308958081FBCFFC0179
:1010000011820895FC01DB018C9191E09183828330
:1010100080830895FC018181882311F082810895E5
:1010200080810895CF93DF93EC01CB010E940A08E1
:101030009981911101C08883CE01DF91CF910895EC
:101040002F923F924F925F926F927F928F929F92D8
:10105000AF92BF92CF92DF92EF92FF920F931F93C6
:10106000CF93DF93CDB7DEB7AE970FB6F894DEBF60
:101070000FBECDBF2C0102969CA38BA332019DE035
:10108000690E711C6BA17CA1C3010E941208D201E0
:1010900058968C91589781111BC050961C9250976E
:1010A00082EF51968C93519785E052968C9352978C
:1010B0008AE253968C93539781E054968C9354977D
:1010C00055961C92559756961C92569757961C9279
:1010D000B0918807BFA3E0918907E8A7F0918A073C
:1010E000F9A780918B078AA790918C079BA7A09165
:1010F0008D07ACA7B0918E07BDA7E0918F07EEA733
:10110000FFA1F98388A58A8399A59B83AAA5AC83AF
:10111000BBA5BD83ECA5EE83FDA5FF838EA58887C7
:1011200019861A861B861C861D861E861F86188AAF
:10113000198AD201DB96BC8FAB8FBE016F5F7F4FE8
:10114000CD010E947104F201F896FEA3EDA3CF0138
:101150000E940A08888F198E1A8ECE0148960E9426
:101160000A0891E089278D8B1E8A1F8AD201D696A4
:101170009C90D697992091F1D7961C91CE014596D7
:101180000E940A0891E0111190E098239A8B1B8A23
:101190001C8ACE0142960E940A08082FC3010E94B1
:1011A0000A08802389831A821B82CE0101960E943D
:1011B0000A088823B1F0911004C081E0D201D596CD
:1011C0008C93F20182A1811101C011A26B8D7C8DE3
:1011D000C201845B9F4F0E9471043CC0F20115A9BB
:1011E000CDCFC3010E940A088A8BCE0142960E948D
:1011F0000A0891E089278983CE0101960E940A0896
:10120000882309F4CBC0D2019C968C919C978111C4
:1012100017C094961C92949795961C9295979696C3
:101220001C92969797961C92979798961C929897CF
:1012300099961C9299979A961C929A979B961C92B3
:10124000F20182A1811101C011A2911003C0D2014B
:10125000D5961C92B3018DA19EA10E941208F201A5
:10126000E35AFF4F8181811102C081E08083B20186
:101270006F5D7F4FC20105960E9412081201B7EB05
:101280002B0E311C6BA17CA1C1010E9412088201AE
:1012900006541F4FF801808581110CC0108282EF27
:1012A000818385E082838AE2838381E0848315825F
:1012B00016821782FFA1F98388A58A8399A59B834B
:1012C000AAA5AC83BBA5BD83ECA5EE83FDA5FF83DA
:1012D0008EA5888719861A861B861C861D861E8603
:1012E0001F86188A198A420195EB890E911CD40138
:1012F000D096BE8FAD8FBE016F5F7F4FCD010E9434
:101300007104C1010E940A088D8B1E8A1F8ACE01BA
:1013100045960E940A0891E089278A8B1B8A1C8ABD
:10132000F401BD96FCA3EBA34201FFED8F0E911CCF
:10133000D4011196BC91BB8FBB2309F4EEC0F4011C
:1013400072808BA19CA10E940A0891E0711090E02C
:101350009823988F198E1A8ECE0148960E940A08FB
:10136000682ECE0142960E940A08862189831A823D
:101370001B82CE0101960E940A08882309F4D0C07E
:10138000BB8DB11103C081E0F40180836D8D7E8D32
:10139000C2018A509F4F0E947104E3C0113009F0CE
:1013A00059CFF201E45BFF4F8085882309F460C0C8
:1013B000B185BD8F82858F8F938598A3A485A9A3BE
:1013C000858436842784B089BAA3D20158968C913B
:1013D0005897882309F45AC059962C9159975A96D0
:1013E0003C915A975B964C915B975C965C915C97AD
:1013F0005D966C915D975E967C915E975F968C9101
:101400005F9790969C91AD8CBF8CC8A0D9A0E82C1A
:10141000F32C022D1AA10E94202129833A834B83A9
:101420005C836D837E838F83988719861A861B86DB
:101430001C861D861E861F86188A198A6B8D7C8DD8
:10144000CE0101960E941204882351F1911004C02C
:1014500082E0D201D5968C93F20182A1811102C063
:1014600081E081A3B201605F7F4FC2018496B3CE59
:1014700080818D8F91819F8FA281A8A3B381B9A311
:1014800084803580268087818AA39FCFF2012089BE
:101490003189428953896489758986899789B3CF4F
:1014A000F201ED5BFF4F80813897882359F1218548
:1014B0003285438554856585768587859089AD8C91
:1014C000BF8CC8A0D9A0E82CF32C022D1AA10E9431
:1014D000292129833A834B835C836D837E838F83A9
:1014E000988719861A861B861C861D861E861F866F
:1014F000188A198ABE016F5F7F4FC20184960E94CD
:101500007104A8CED201DB962C91318142815381A6
:101510006481758186819781D2CFD4017C9011CF6F
:10152000C1010E940A08882309F448C0F201E2536D
:10153000FF4F8085811108C01082118212821382B0
:101540001482158216821782F201E553FF4F8181C2
:10155000811102C081E08083FB8DF11102C0D401B2
:101560001C92B1018BA19CA10E941208F201E95FBB
:10157000FE4F8181811102C081E08083B2016553F9
:101580007F4FC20108960E941208AE960FB6F894DB
:10159000DEBF0FBECDBFDF91CF911F910F91FF90A6
:1015A000EF90DF90CF90BF90AF909F908F907F9003
:1015B0006F905F904F903F902F900895B1E07B1215
:1015C000D0CFF201EA50FF4F8085882309F453C041
:1015D00081858F8F928598A3A385A9A3B485BAA38B
:1015E0006584768487849088F8018085882309F44F
:1015F0004FC02185328543855485658576858785ED
:101600009089AF8CB8A0C9A0DAA0730184010E94B0
:10161000202129833A834B835C836D837E838F8370
:10162000988719861A861B861C861D861E861F862D
:10163000188A198A6D8D7E8DCE0101960E94120442
:10164000A20145535F4FFA0121817697882349F122
:101650008B8D811106C032E0C20181529F4FDC01A7
:101660003C93211102C0DA011C92BF016B5F7F4FD6
:10167000CF01499690CE80818F8F918198A3A281CE
:10168000A9A3B381BAA36480758086809780ACCF0C
:101690002081318142815381648175818681978166
:1016A000B0CF211103C081E0DA018C93D201AB519C
:1016B000BF4F18968C9118978823C1F119962C91D9
:1016C00019971A963C911A971B964C911B971C964A
:1016D0005C911C971D966C911D971E967C911E9790
:1016E0001F968C911F9750969C91AF8CB8A0C9A063
:1016F000DAA0730184010E94292129833A834B8354
:101700005C836D837E838F83988719861A861B86F8
:101710001C861D861E861F86188A198ABE016F5F69
:101720007F4FCF0149960E9471041BCF2C911196D7
:101730003C91119712964C91129713965C911397C6
:1017400014966C91149715967C91159716968C911A
:10175000169717969C91C9CFCF93DF93EB010E9408
:101760000A088883DF91CF91089590E080E0FC0122
:10177000EE0FFF1FEB5FF84F0190F081E02D3097E7
:1017800009F0108201968833910589F7E5ECF6E0BF
:1017900085E097E0A191B191109711F01D921C92F4
:1017A0008E179F07B9F7EEECF4E08EE095E0A1917B
:1017B000B191109729F01D921D921D921C921397C2
:1017C0008E179F07A1F708950F931F93882339F071
:1017D00060E070E080E090E01F910F91089502E9D1
:1017E00012E020E033272BBFF80107911691601714
:1017F0007107B0F480E992E0A0E0BB27ABBFFC0129
:1018000087919691660F771F660F771F680F791F74
:10181000FB0125913491FB0132968491B901DBCF14
:1018200060E070E0D8CF0E94E40B672B59F085315F
:1018300048F499E0899FF0011124EF5EFB4F808509
:1018400090E0089590E080E008950F931F93CF9368
:101850008A010E94E40BE82FCB010097B1F0E5313B
:10186000A0F429E0E29FF0011124EF5EFB4FC08558
:10187000CC2359F00480F581E02DB80119958C2F07
:1018800090E0CF911F910F91089590E080E0F9CF03
:101890009E5FFC0110820895EF92FF920F931F93B9
:1018A000CF93DF93CDB7DEB7CC5FD2400FB6F894BD
:1018B000DEBF0FBECDBFFB0130813F3708F03EE7F2
:1018C000FB01BE016F5F7D4FDB0120E0231751F06C
:1018D000428151814527542745274D935D932F5FC2
:1018E0003296F4CF30E0DE01119650E040E07D0109
:1018F0004217530748F4FB0101911191BF010D9369
:101900001D934F5F5F4FF4CFD901AA0FBB1FAE0DE0
:10191000BF1D1D921C92DC01BE5F41E04C93C15083
:10192000DE4F39832883CF5FD140119680E092E06B
:10193000F70101900D920197E1F7C450DD4F0FB60A
:10194000F894DEBF0FBECDBFDF91CF911F910F91F5
:10195000FF90EF900895EF92FF920F931F93CF9314
:10196000DF93CDB7DEB7CC5FD2400FB6F894DEBFC1
:101970000FBECDBFFB0130813F3708F03EE7FB01D2
:10198000BE016F5F7D4FDB0120E0231751F04281E4
:1019900051814527542745274D935D932F5F3296FC
:1019A000F4CF30E0DE01119650E040E07D014217B7
:1019B000530748F4FB0101911191BF010D931D9351
:1019C0004F5F5F4FF4CFA901440F551F4E0D5F1DB0
:1019D000FA0111821082C150DE4F39832883CF5F14
:1019E000D14020E032E0F701DC0101900D9221505E
:1019F0003040D9F7C450DD4F0FB6F894DEBF0FBEAC
:101A0000CDBFDF91CF911F910F91FF90EF9008957F
:101A10008F5F9E4FFC0110820895FC0121812111EE
:101A200008C021E0FB013081311101C020E0FC0140
:101A300020830895FC0181E0DB019C91911101C09C
:101A400080E091E091838283808308950F931F93B8
:101A5000582F577001E010E020E030E004C0000F84
:101A6000111F221F331F5A95D2F723E096958795B1
:101A70002A95E1F79927E0917F07F0918007662387
:101A800021F0E0918507F0918607E80FF91F80812A
:101A9000442329F0082B00831F910F91089500958E
:101AA0000823F9CF23E030E0309395052093940587
:101AB000EFEAF7E090917507908380588183628305
:101AC00008952091AF07209530E0F901EF5EFC4FBB
:101AD000908190952F5E3D4FD9018C914091940556
:101AE0005091950542505109EFEAF7E031969F0178
:101AF0002F5A37402417350770F420819227292F59
:101B000030E0D901AF5EBC4F9C9198272F5E3D4FCE
:101B1000D9018C91EBCF08952F923F924F925F9213
:101B20006F927F928F929F92AF92BF92CF92DF92ED
:101B3000EF92FF920F931F93CF93DF93CDB7DEB752
:101B4000C855D1090FB6F894DEBF0FBECDBF10E067
:101B500000E0F801EE0FFF1FEB5FF84F0190F081FE
:101B6000E02D309749F041E08081811101C040E0D3
:101B700060E0C8010E94260D0F5F1F4F083311055A
:101B800041F7E0907607F090770705EC16E02F9686
:101B90001FAF0EAF2F978701005C1F4FF70125EC99
:101BA00036E0D9018D919D919D01009729F0DC01CE
:101BB0008D919C919183808332960E171F0789F730
:101BC000D12CC12CF601EE0FFF1FEB5AF94F0190FB
:101BD000F081E02D309749F041E08081811101C012
:101BE00040E061E0C6010E94260DBFEFCB1ADB0A80
:101BF000E8E3CE16D10431F745E156E0E0918207E3
:101C0000F09183079F01205C3F4FDA018D919D91F8
:101C1000AD01009729F0DC018D919C919183808327
:101C200032962E173F0789F7EDEEF5E06196FFAF8C
:101C3000EEAF6197F80108E6E00EF11C2DEE35E0FD
:101C4000D9018D919D919D01009729F0DC018D9125
:101C50009C91918380833296EE16FF0689F7E5EC1E
:101C6000F5E06396FFAFEEAF6397E0917907F091EF
:101C70007A079F01205B3F4F05EC15E0D8018D915D
:101C80009D918D01009749F0DC014D915D916D9121
:101C90007C91408351836283738334962E173F0770
:101CA00069F7EDE9F5E02D96FFAFEEAF2D97E091E6
:101CB0007C07F0917D079F0120563F4F8DE995E00D
:101CC000DC01CD90DD90CD01C114D104F1F0D6013D
:101CD000EC901196FC90119712960C911297139616
:101CE0001C91139714967C91149715966C911597E7
:101CF00016965C91169717964C91E082F1820283BA
:101D0000138374836583568347833896E217F307FA
:101D1000B9F6F0907507C0909A052996CFAE29972D
:101D2000C0909B05D0909C052796DFAECEAE27973E
:101D30002796AEADBFAD2797ED91FC91119700842A
:101D4000F185E02DCD01199518161906BCF5809185
:101D5000AD079091AE078F3F910509F078F5279672
:101D6000AEADBFAD2797ED91FC9111970284F3853D
:101D7000E02DCD0119952091AD073091AE07A90155
:101D80004F5F5F4F5093AE074093AD072155384FDB
:101D9000F90180832FB7F8948091A5079091A60749
:101DA000A091A707B091A8072FBF809390059093AB
:101DB0009105A0939205B0939305BACF4091AD07DA
:101DC0005091AE074115510509F487C08091AF07C6
:101DD000F81619F00E94F401F1CF4230510508F4D1
:101DE0008AC18091B00709E0802E912CA12CB12CE2
:101DF000833409F442C028F5813158F48F3008F05B
:101E00003EC18150863038F188248A94982C540140
:101E100034C0813409F469C18234B1F748305105C6
:101E200008F469C18090B5079090B607982489247A
:101E30009824B12CA12C1AE0810E911CA11CB11C7C
:101E40001CC0893470F4863408F04FC1843409F41E
:101E500024C18534C9F688E0882E912CA12CB12CA0
:101E60000CC08A3409F441C108F42DC115E0812E5B
:101E7000912CA12CB12C8B3439F631E083169306CA
:101E8000A104B10408F0A6CF81149104A104B10407
:101E900029F084014815590508F031C12FB7F8948D
:101EA0008091A5079091A607A091A707B091A807D8
:101EB0002FBF4091900550919105609192057091CE
:101EC0009305841B950BA60BB70B0997A105B105CC
:101ED00020F01092AE071092AD0740917F0750910D
:101EE000800730E020E0F901EE0FFF1FEB5FF84FB5
:101EF0000190F081E02D309799F0D90183E0B695FB
:101F0000A7958A95E1F7A40FB51F8C9190E0622FF9
:101F1000677002C0959587956A95E2F78170808316
:101F20002F5F3F4F28333105F1F68091760790916E
:101F30007707BC01605C7F4FDC012F96EEADFFADF3
:101F40002F97219131912F96FFAFEEAF2F9721154B
:101F5000310531F04D915C911197F9015183408326
:101F600012966A177B0749F7FB0188599F4F6196C4
:101F7000AEADBFAD61974D915D916196BFAFAEAF14
:101F800061974115510529F020813181DA012D93A6
:101F90003C9332968E179F0751F7E0917907F091A5
:101FA0007A07CF01805B9F4F6396AEADBFAD63975D
:101FB0002D913D916396BFAFAEAF6397211531056B
:101FC00051F04081518162817381D9014D935D93BC
:101FD0006D937C93139734968E179F0729F7E091A2
:101FE0007C07F0917D07CF0180569F4F2D96AEADB7
:101FF000BFAD2D97ED90FD902D96BFAFAEAF2D9755
:10200000E114F104F1F00081118172816381548146
:10201000458136812781D7010C9311961C93119726
:1020200012967C93129713966C93139714965C9365
:10203000149715964C93159716963C9316971796EA
:102040002C9338968E179F0789F6C85ADF4F0FB624
:10205000F894DEBF0FBECDBFDF91CF911F910F91DE
:10206000FF90EF90DF90CF90BF90AF909F908F90B8
:102070007F906F905F904F903F902F9008954730E2
:102080005105C8F18090B507912CB12CA12CF9E035
:102090008F0E911CA11CB11CF0CE4430510558F19B
:1020A0002091B1073091B207322723273227A3E0CE
:1020B000B0E00E947C204B015C0106E0800E911C88
:1020C000A11CB11CDACE44305105A8F08090B107B4
:1020D0009090B207982489249824B12CA12C26E052
:1020E000820E911CA11CB11CC8CEA4E08A2E912C9A
:1020F000A12CB12CC2CE812C912C5401BECED090FB
:10210000B0078FEB8D0D8A3000F19092950580928B
:1021100094050E94610DB501A40142505109610965
:1021200071094155584FDA012C91B1E08B1A910891
:10213000A108B108F401E155F84F30812327322777
:1021400023272817390709F045CE025011091093AB
:102150009505009394056090B1077090B2077624BE
:10216000672476248091B1070091B3071091B407DA
:10217000102701271027E090B207F090B307FE2444
:10218000EF24FE24C090B407E2E4DE1609F4A8C7E9
:10219000ED1508F478C0F5E0DF1609F4D8C5FD1593
:1021A00070F1F2E0CF2EDC1409F417C5CD1450F015
:1021B000EE24E394DE1409F487C461E070E08D2D11
:1021C00090E041C0E3E0FE2EDF1409F4D8C124E022
:1021D000D212F3CFC801019763E070E08D3791050B
:1021E00058F420918407C301800F911F2817190606
:1021F00008F07CC562E070E084E090E024C03FE03D
:10220000D31609F4C3C53D1508F146E0D412D5CF65
:102210002091780780917B0790E0880F991FE22F2B
:10222000F0E08E0F9F1F40917E0724E0429FA001A7
:102230001124480F591F6416750608F493C062E014
:1022400070E086E090E00E94520D99C080E1D816BF
:1022500009F4BAC291E4D912B0CFD092B00781E0AC
:102260008093B1078EE78093B20780E00E947805E3
:102270009093B3078093B40786E090E09093950520
:10228000809394057CC0A7E4DA1609F49BC7AD15CA
:1022900008F441C0B4E4DB1609F4A7C6DB1608F461
:1022A00032C6E5E4DE1609F463C7F6E4DF1285CF33
:1022B0002FB7F8948091A5079091A607A091A70742
:1022C000B091A8072FBFD092B0072EE72093B10797
:1022D000209108022093B207209192073091930732
:1022E00040919407509195075093B3074093B407DA
:1022F0003093B5072093B607B093B707A093B807FC
:102300009093B9078093BA07809109028093BB0725
:102310008DE090E0B3CF79E4C72EDC1409F486C7D2
:10232000DC1408F46EC76AE4E62EDE1409F48BC7E9
:102330005BE4F52EDF1041CF813009F087C71092A2
:102340009A078BE48093B0078EE78093B107809162
:1023500008028093B207809109028093B30785E059
:1023600090E08CCF6E167F06D8F4660C771CE09157
:102370007607F0917707E60DF71D118300838091B2
:1023800094059091950502968130914008F45CC5C2
:102390008091B00764E070E090E00E94520D54C557
:1023A00068167906F0F5A80170E060E08091790781
:1023B00090917A0760FC1CC0D301AE1BBF0BFD01DE
:1023C000EE0FFF1FEC7FF370E80FF91F8081918102
:1023D000A281B381AA27BB27BA0155274427842BA2
:1023E000952BA62BB72B80839183A283B383C7CF72
:1023F000E095F095E60DF71DEE0FFF1FEC7FF370F3
:10240000E80FF91F008111812281338100271127F4
:10241000042B152B262B372B008311832283338328
:10242000AECF9301237033274801B12CA12CC12CCE
:10243000D12C7601E0917C07F0917D0721153105C3
:1024400049F5681A790A660C771CB8EF6B22B7E079
:102450007B22E60DF71D4080618072801381B4817C
:10246000A581940140E050E060E070E080E090E001
:1024700000E30E94EA20242920833629318347295A
:102480004283512B5383B62BB483A72BA58386831A
:10249000978375CF2130310541F50FEF601A700A2F
:1024A000681A790A660C771C18EF612217E071220E
:1024B000E60DF71D4080618072801381B681A7818F
:1024C0009401A501B601C70100E20E94EA20242977
:1024D00020833629318347294283152B1383648354
:1024E00075838B2B86839A2BD3CF2230310529F528
:1024F00022E0620E711C681A790A660C771C38EFAC
:10250000632237E07322E60DF71D408061807480FE
:102510001581B681A7819401A501B601C70100E12B
:102520000E94EA2024292083362931834283538361
:10253000762A7482172B1583D4CF43E0640E711C66
:10254000681A790A660C771C88EF682287E078227F
:10255000E60DF71D52814381348125819681878163
:10256000808291825A2952834B2943833C293483A8
:102570002D2925839E2996838F29878300CFC80123
:10258000019763E070E08D379105C8F44301800E38
:10259000911E20917807E0917B07F0E0EE0FFF1F7E
:1025A000E20FF11D80917E07A4E08A9FC0011124F3
:1025B0008E0F9F1F8816990628F062E070E083E076
:1025C00090E041CE000F111F0D5F1F4F1093950536
:1025D000009394054FEAE42E47E0F42ED7011196BC
:1025E000CD018F5A97408017910710F41C92F7CFB6
:1025F00083E08093B00703500093B107C0907C073D
:10260000D0907D07A0907907B0907A074090760728
:1026100050907707A22FB0E02B96BFAFAEAF2B97AD
:1026200083E090E0DC01AE1BBF0BBEAFADAF2B96DD
:102630002EAC3FAC2B97209430948614970409F469
:102640009ECE2B96AEADBFAD2B976A167B0650F48F
:102650009301220F331F240D351DD9018C91119642
:102660003C911CC06E167F0680F560FC24C0C3013F
:102670002B96AEADBFAD2B978A1B9B0B880F991F76
:102680008C7F93708A0D9B1DDC014D915D916D9146
:102690007C91AB0166277727842F352FD7011396BE
:1026A0003C93139714968C93B2E0EB0EF11C0FEF52
:1026B000601A700AC2CF9101260D371D220F331FF9
:1026C0002C7F33702A0D3B1DC8CF83010370112767
:1026D0000115110521F583010E1B1F0B000F111FA2
:1026E000087F17700C0D1D1DD8012C9111963C917F
:1026F000119712964C91129713965C91139714961A
:102700006C91149715967C91159716968C91169747
:1027100017969C9100E30E940521822FBFCF0130C4
:10272000110511F50E1B1F0B060D171D000F111FB4
:10273000087F17700C0D1D1DD8012C9111963C912E
:10274000119712964C91129713965C9113971496C9
:102750006C91149715967C91159716968C911697F7
:1027600017969C9100E2D7CF0230110511F50E1B90
:102770001F0B060D171D000F111F087F17700C0D82
:102780001D1DD8012C9111963C91119712964C91D8
:10279000129713965C91139714966C911497159653
:1027A0007C91159716968C91169717969C9100E13F
:1027B000B2CF2DAD3EAD260D371D220F331F287F22
:1027C00037702C0D3D1D49CFC80101978B379105FE
:1027D00040F42091B507C801880F991F28171906E2
:1027E00029F063E070E080E190E02DCD2301400E00
:1027F000511E20917807A0917B07B0E0AA0FBB1F64
:10280000A20FB11D80917E0734E0839FC001112487
:102810008A0F9B1F4816590618F062E070E0E3CF5C
:1028200086E090E0909395058093940580E18093F5
:10283000B0077092B1076092B2071092B30700938D
:10284000B40780907C0790907D07E0917907F09124
:102850007A072B96FFAFEEAF2B97C0907607D090FC
:1028600077076596DFAECEAE65973FEA232E37E059
:10287000332EA22EB12C83E090E07C01EA1AFB0AF1
:102880006796FFAEEEAE6797F501E095F095699615
:10289000FFAFEEAF69976414750409F4D5C2F10176
:1028A00047818085542F482F6A147B0490F4F301EC
:1028B000EE0FFF1F6596CEACDFAC6597EC0DFD1DEE
:1028C000518340833FEF631A730A42E0240E311CA8
:1028D000E2CF6A167B06D0F570E060E060FC1FC0B6
:1028E000F301EA19FB09EE0FFF1FEC7FF3702B9643
:1028F000EEACFFAC2B97EE0DFF1D00811181228104
:10290000338122273327BA0155274427402B512BE7
:10291000622B732B4083518362837383D3CF699679
:10292000EEADFFAD6997E60DF71DEE0FFF1FEC7FD3
:10293000F3702B96CEACDFAC2B97EC0DFD1D008118
:1029400011812281338100271127E0CFF301E37049
:10295000FF276A01F12CE12C00E010E09801CDAED8
:10296000DEAEEFAE2196FFAE219722960FAF2297F3
:1029700023961FAF239724962FAF249725963FAF1A
:102980002597309779F5F301EA1BFB0BEE0FFF1F3C
:10299000E87FF770E80DF91DD0802896DFAE289704
:1029A000C180D280E380F48015812DAD3EAD40E042
:1029B00050E060E070E080E090E000E30E94EA20F8
:1029C00028960FAD2897202B20833C2931834D2951
:1029D00042835E295383F62AF482172B158386835C
:1029E000978370CFE130F10579F5EA1BFB0BE60D1B
:1029F000F71DEE0FFF1FE87FF770E80DF91D10813E
:102A000028961FAF2897C180D280E380F680178177
:102A10002DAD3EAD40E050E060E070E080E090E041
:102A200000E20E94EA2028960FAD2897202B2083F1
:102A30003C2931834D294283E52AE38264837583EF
:102A40008F298683912BCCCFE230F10561F5EA1B0B
:102A5000FB0BE60DF71DEE0FFF1FE87FF770E80D8B
:102A6000F91D108128961FAF2897C180D480E5807A
:102A7000F68017812DAD3EAD40E050E060E070E0A3
:102A800080E090E000E10E94EA2028960FAD2897B0
:102A9000202B20833C29318342835383D62AD4823E
:102AA000E72AE582CDCF6796EEADFFAD6797E60DDD
:102AB000F71DEE0FFF1FE87FF770E80DF91D1DAD44
:102AC00010832EAD2183FECEC801019763E070E034
:102AD000803D974030F520918107C301800F911F01
:102AE00062E070E028171906E0F0C80123E096952F
:102AF00087952A95E1F7980127703327232BA1F4B6
:102B000003969093950580939405809194059091F8
:102B10009505EFEAF7E08130B1E09B0738F064E01B
:102B200070E081E090E08FCB0496EBCF31969F016F
:102B30002F5A37402817390710F41082F7CF91E049
:102B40009093B00783508093B107A0907F07B09017
:102B5000800770E060E020E0C12CD12C7601C394A6
:102B600016012701022E04C0220C331C441C551CE4
:102B70000A94D2F7FB0143E0F695E7954A95E1F711
:102B8000EE54F84F3081A301A3E056954795AA95DE
:102B9000E1F74F7155274A0D5B1DDA014C9150E06A
:102BA000B62DB77002C055954795BA95E2F7822DBC
:102BB00040FF0FC0832B80832F5F283009F420E073
:102BC000EFEF6E1A7E0A6F5F7F4F0617170741F609
:102BD000D6CB809538233083EFCFC801019763E0CF
:102BE00070E0803D974030F520918707C301800F4A
:102BF000911F62E070E028171906E0F0C80133E089
:102C0000969587953A95E1F7980127703327232BFE
:102C1000A1F4039690939505809394058091940573
:102C200090919505EFEAF7E0813021E0920738F0C6
:102C300064E070E082E090E006CB0496EBCF319642
:102C40009F012F5A37402817390710F41082F7CF09
:102C500092E09093B00783508093B107609185070D
:102C60007091860750E040E0B12CC12CD12C760148
:102C7000C394160127010B2C04C0220C331C441CE6
:102C8000551C0A94D2F7FA0183E0F695E7958A95E8
:102C9000E1F7EE54F84FA080930193E03695279525
:102CA0009A95E1F7260F372F311DD9012C9130E08D
:102CB000B62DB77002C035952795BA95E2F7822DEB
:102CC00020FF10C08A298083B394E8E0BE1201C0BF
:102CD000B12CFFEF6F1A7F0A4F5F5F4F0417150784
:102CE00041F64DCB8095A822A082EECFC801880F77
:102CF000991F03969093950580939405EFEAF7E06A
:102D0000DF0111969D012F5A37402817390710F41B
:102D10001C92F7CF94E09093B00783508093B10753
:102D2000660C771CA0918207B0918307A60DB71D92
:102D30000150110932960F3F100709F420CB8C91F6
:102D400011969C911197129691838283F1CF011570
:102D50003FEF130729F063E070E00115110549F416
:102D6000809181078150990B8615970528F462E0C0
:102D700070E085E090E067CA41E001151F4F09F05F
:102D800040E060E0C3010E94260DF9CA9801E3E02B
:102D900036952795EA95E1F7822FA80147705527C8
:102DA000452B11F081E0820F980121503109203B21
:102DB000374020F49091B507981729F063E070E050
:102DC0008FE090E040CA20918107C301800F911FDE
:102DD0002817190618F462E070E0F2CF86E090E060
:102DE00090939505809394058FE08093B00770923F
:102DF000B1076092B2071093B3070093B407F12CA8
:102E0000E12CD12CF70173E0F695E7957A95E1F77F
:102E1000E155F84F478150E00D2C02C0559547957C
:102E20000A94E2F7417060E0C701860D971D0E9489
:102E3000260DD394A8E0DA1201C0D12CBFEFEB1A13
:102E4000FB0AE016F106F1F6E0909405F090950586
:102E500087010E5F1F4F10939505009394050E9404
:102E6000610DF701E155F84F908381832996CFAC2E
:102E70002997C7FC12C061E08C2D0E94120280913C
:102E80009605909197058230910538F0880F991F2B
:102E9000880F991F05970197F1F72796AEADBFAD43
:102EA0002797ED91FC9111970280F381E02DA80105
:102EB0006FEA77E0CD0119952796AEADBFAD2797A4
:102EC000ED91FC9111970680F781E02DCD011995C8
:102ED00080919605909197058230910538F0880F82
:102EE000991F880F991F05970197F1F72996CFAC85
:102EF0002997C7FE02C00C94690F60E08C2D0E94D8
:102F000012020C94690F811165C0C090B407D09073
:102F1000B5070E947805009709F45CC0E816F90629
:102F200008F058C0DC24CD24DC24C816D90608F0EB
:102F300051C0CE14DF0408F44DC047016AEBA62E41
:102F400067E0B62E10E000E0B40180E00E94130CB0
:102F50009C01200F311F255F3F4F2130314098F4F5
:102F6000892B59F0A501B40180E00E94250C00973F
:102F700021F0A80EB91E080F191FC4010196740193
:102F8000C816D90628F5C8010B969093950580932D
:102F9000940583E48093B0078EE78093B107F092A5
:102FA000B207E092B3078091920790919307209126
:102FB0009407309195073093B4072093B507909309
:102FC000B6078093B7071093B8070093B907D7C91E
:102FD0004C01BACF83E090E09093950580939405DF
:102FE00083E48093B00781E878C0F5E16F1671043F
:102FF00008F06AC0C301880F991F860D971DA3EBC7
:10300000B7E08E010F5F1F4FF8019F01201B310BAE
:103010002817390718F42D912193F7CFB12CA12C43
:10302000412CD12CC12C4BE0E42EF12C6A147B04F2
:1030300041F1D8013C9011968C90119712968C9189
:10304000982C882EB401832D0E94130C009791F0C8
:103050008E0D9F1D81309140A0F4A7014155584F1E
:10306000B401832D0E94250C009721F0E80EF91E73
:10307000C80ED91E0D5F1F4F4A2CF50131965F0116
:10308000D5CFF0929505E092940584E48093B00743
:103090008EE78093B1071092B2074092B3078091F8
:1030A0009207909193072091940730919507309360
:1030B000B4072093B5079093B6078093B707D092D3
:1030C000B807C092B9075BC983E090E0909395057B
:1030D00080939405D092B00782E88093B1074FC9DE
:1030E0000091B5071091B607102701271027093F57
:1030F000110548F083E090E0909395058093940546
:10310000D092B00770CFB7010E94E40B282FCB01FB
:10311000009751F1253140F530E049E0429FF00140
:10312000439FF00D1124EF5EFB4FCC20C1F02085B2
:103130002223E1F02017110609F0C0F40190F0817C
:10314000E02D67EB77E019958EE723E030E03093D0
:1031500095052093940592E49093B007BECF02802A
:10316000F381E02D1995F0CF81E8EFCF82E8EDCF24
:10317000D092B0078EE78093B10781E2E9E6F5E0EF
:10318000AE014F5F5F4FDA0101900D928A95E1F732
:10319000E2EBF7E0DA01CD01841B950B6D919F0105
:1031A0002F5A3740662311F06193F5CF2155384FE0
:1031B0004DEAD9014C93FC01E155F84F2EED2483E3
:1031C00005965CC8D092B0078EE78093B10786E081
:1031D000EAE8F5E0DE01119601900D928A95E1F79B
:1031E000FE013196A2EBB7E081919D012F5A374045
:1031F000882311F08D93F8CF309395052093940593
:10320000BEC888E48093B0078EE78093B10789E059
:103210008093B207E7E7FAE0A3EBB7E080E89AE033
:1032200021912D938E179F07D9F772C8D092B007BE
:1032300084E8B2E66B16710409F485E88093B1075F
:1032400083E090E01BC8D092B007F7CF81E0809375
:103250009A0777C80F931F93CF93DF938B01FC01DD
:10326000FE5F2081222351F19C012F5F3D4F2250B0
:103270003E4FD9012D913C912F37310510F02EE7AB
:1032800030E0622FE80128834081442311F08F5FF2
:103290009D4FFC01D80180E0861790F49081329612
:1032A00011969C931197AF0142505109EA019981FF
:1032B00012969C9312978F5F1296EECF9C01D7CFF8
:1032C000220F331F2F5F3F4F2D3F310579F04DEF18
:1032D00050E0421B530B70E060E0C801820F931F67
:1032E000DF91CF911F910F910C947522DF91CF91B7
:1032F0001F910F9108950C94E3210C94E3210C94F9
:10330000E3210C94E3210F931F93CF93DF93CDB769
:10331000DEB7C150D1400FB6F894DEBF0FBECDBFAF
:103320008C01FB0140814F3708F04EE750E0C05060
:10333000DF4F59834883C050D1406F5F7F4FCE012C
:1033400001960E946C22C050DF4FE881F981C05085
:10335000D14081E090E08C0F9D1FE80FF91F108293
:10336000F801EF5FFE4F81E08083D801AE5FBE4F72
:1033700081E091E0FE01319601900D920197E1F715
:10338000CF5FDE4F0FB6F894DEBF0FBECDBFDF912B
:10339000CF911F910F9108950F931F93CF93DF93B8
:1033A000CDB7DEB7C150D1400FB6F894DEBF0FBE27
:1033B000CDBF8C01FB0140814F3708F04EE750E054
:1033C000C050DF4F59834883C050D1406F5F7F4F5B
:1033D000CE0101960E946C22C050DF4FE881F98136
:1033E000C050D14081E090E08C0F9D1FE80FF91F85
:1033F000108281E091E0FE013196D80101900D929A
:103400000197E1F7CF5FDE4F0FB6F894DEBF0FBE36
:10341000CDBFDF91CF911F910F910895FF920F9330
:103420001F93CF93DF938B01FC01EF5FFE4F208151
:10343000222319F19C012E5F3E4F21503F4FD901AD
:10344000CD91DC91CF37D10510F0CEE7D0E0FC2E46
:10345000D801CC93C11113C04EE750E04C1B5D0B5B
:10346000CE01019670E060E0800F911FDF91CF9157
:103470001F910F91FF900C9475229C01DECF20814B
:10348000BC01222311F06E5F7E4FAE01C801019690
:103490000E946C228EE7F812DFCFDF91CF911F914F
:1034A0000F91FF9008951F920F920FB60F92112463
:1034B0002F933F938F939F93AF93BF938091A507D3
:1034C0009091A607A091A707B091A8073091A407F3
:1034D00023E0230F2D3758F50196A11DB11D209330
:1034E000A4078093A5079093A607A093A707B0937E
:1034F000A8078091A9079091AA07A091AB07B09166
:10350000AC070196A11DB11D8093A9079093AA074E
:10351000A093AB07B093AC07BF91AF919F918F91F0
:103520003F912F910F900FBE0F901F90189526E896
:10353000230F0296A11DB11DD2CF1F920F920FB67D
:103540000F9211240BB60F922F933F934F935F93DB
:103550006F937F938F939F93AF93BF93EF93FF935B
:103560008FEA98E00E943D03FF91EF91BF91AF91E8
:103570009F918F917F916F915F914F913F912F918B
:103580000F900BBE0F900FBE0F901F9018951F92BB
:103590000F920FB60F9211240BB60F922F938F93A9
:1035A0009F93EF93FF93E091BF08F091C008808153
:1035B000E091C508F091C60882FD1DC09081809100
:1035C000C8088F5F8F732091C908821741F0E0917E
:1035D000C808F0E0E155F74F958F8093C808FF9138
:1035E000EF919F918F912F910F900BBE0F900FBE77
:1035F0000F901F9018958081F2CF1092B208109210
:10360000B10888EE93E0A0E0B0E08093B308909317
:10361000B408A093B508B093B60884E495E09093FD
:10362000B0088093AF0885EC90E09093BC0880933D
:10363000BB0884EC90E09093BE088093BD0880ECBA
:1036400090E09093C0088093BF0881EC90E0909345
:10365000C2088093C10882EC90E09093C4088093E4
:10366000C30886EC90E09093C6088093C50810923A
:10367000C8081092C9081092CA081092CB080E947C
:10368000E704A7E7BAE090E080E041E2FC013E9663
:1036900021E030E08630910510F430E020E0E20FC8
:1036A000F31F40935700E491ED9301968930910503
:1036B00069F70895CF93DF93CDB7DEB764970FB660
:1036C000F894DEBF0FBECDBF789484B5826084BD10
:1036D00084B5816084BD85B5826085BD85B5816016
:1036E00085BD80916E00816080936E001092810094
:1036F000809181008260809381008091810081604F
:10370000809381008091800081608093800080910F
:10371000B10084608093B1008091B000816080939B
:10372000B00080919100826080939100809191001F
:1037300081608093910080919000816080939000DF
:103740008091A10082608093A1008091A10081609E
:103750008093A1008091A00081608093A00080915F
:1037600021018260809321018091210181608093F9
:1037700021018091200181608093200180917A0055
:10378000846080937A0080917A00826080937A00CE
:1037900080917A00816080937A0080917A008068BD
:1037A00080937A001092C1002091750A3091760AB8
:1037B0003A8B298B8091730A9091740A9A8389833A
:1037C0009C8B8B8B1A8619861C821B82912C812CD8
:1037D000712C612C512C412C312C212CA989BA89B6
:1037E000E985FA85AE17BF0709F48FC0AB89BC899C
:1037F00050968D919C915197EB81FC81E80FF91FB8
:10380000FC83EB831296DC9012971396EC9013973F
:103810001496FC90149715960C91159716961C917A
:1038200016971796BC91EB89FC89C084B1842D2D25
:103830003E2D4F2D502F612F7B2F8C2D9B2DA0E0E7
:103840000E943B2109F054F4D12C6DE2E62E71E385
:10385000F72E01E010E0B0E0C12CB12CDD82EF8248
:10386000FB860C871D87BE87CF86B88A292D382D09
:10387000472D562D652D742D832D922DA0E00E948D
:103880003B2131F1AD80BF80CB84DC84ED84FE84AC
:103890000F851889292D382D472D562D652D742D0E
:1038A000832D922D0E948B20D22EE32EF42E052FF5
:1038B000162FB72FF82FE92F9A2C8B2C7C2C6C8489
:1038C0005D844E843F842888A0E00E943B21A1F4BF
:1038D00029853A852F5F3F4F3A8729878B899C89B5
:1038E00042969C8B8B8B9D808F807B846C845D84C7
:1038F0004E843F84288872CFDD82EF82FB860C875E
:103900001D87BE87FF87E88BBDCF292D382D472D1A
:10391000562D652D742D832D922DA0E00E943B2104
:1039200059F4912C4DE2842E51E3752E6624639454
:10393000512C412C312C212C9092000280920102BA
:1039400070920202609203025092040240920502B9
:103950003092060220920702AB81BC818FEF9FEF6D
:10396000A115E0E4BE0730F4CD01880F991F009740
:1039700009F4A3C00E9447219E838D8390939107F1
:10398000809390072B813C81211580E2380708F055
:1039900097C0C901880F991F880F991F009709F4D4
:1039A00092C00E94472198878F83909397078093B6
:1039B0009607AB81BC81B0939907A09398071C82AE
:1039C0001B821A8A198AE985FA852B813C81E217C4
:1039D000F30709F48CC0A981BA811296DC90129782
:1039E0001396EC9013971496FC90149715960C91DF
:1039F000159716961C9116971796BC91E981FA8136
:103A0000C084B1842D2D3E2D4F2D502F612F7B2F43
:103A10008C2D9B2DA0E00E943B2109F044F4292D20
:103A2000382D472D562D652D742D832D922DA92CC3
:103A3000B82CC72CD62CE52CF42C032D122D0E946B
:103A40008D20B22EA32E742F652FA981BA81509696
:103A50004D915C918A01000F111FE988FA88EE0CE4
:103A6000FF1CC988DA88CC0CDD1CCC0CDD1C90E076
:103A700080E00817190751F1A981BA811E96ED91CE
:103A8000FC91E80FF91F20813181F701E80FF91F40
:103A9000AD81BE81EA0FFB1F31832083FC01EE0F55
:103AA000FF1FEC0DFD1D2F813885E20FF31FB08243
:103AB000A182728363830296DCCF81E090E05ACFCB
:103AC0008FEF9FEF6ECF81E090E06BCF89899A896D
:103AD000840F951F9A8B898BAB81BC811196BC8317
:103AE000AB83E981FA817296FA83E9836CCF81E036
:103AF0008093090280930A0210929A078093080229
:103B00009FB7F8944091A5075091A6076091A70729
:103B10007091A8079FBFE091BF08F091C00892E0A4
:103B20009083E091BB08F091BC081082E091BD0841
:103B3000F091BE0890E190831092C708E091C3080D
:103B4000F091C40896E09083E091C108F091C2081A
:103B5000908190619083E091C108F091C2089081BA
:103B600098609083E091C108F091C20890819068BC
:103B70009083E091C108F091C20890819F7D90836D
:103B80002FEA38E030939C0520939B059FEF90939C
:103B90009A052EEE32E0309399052093980521E4A2
:103BA0003AE030939705209396058093750784E358
:103BB0008093780784E180937B0780937E0788E376
:103BC0008093810790E2909384078093870787E032
:103BD00090E00E9447219093800780937F07009791
:103BE00009F451C0DC01E7E01D92EA95E9F788E6A7
:103BF00090E00E9447219093770780937607009783
:103C000009F441C028E6DC011D922A95E9F780E518
:103C100090E00E94472190937A078093790700975C
:103C200091F120E5FC0111922A95E9F780EA90E0F4
:103C30000E94472190937D0780937C07009719F19C
:103C400020EADC011D922A95E9F787E090E00E94C6
:103C5000472190938607809385070097A1F0FC0188
:103C600027E011922A95E9F780E490E00E9447212D
:103C70009093830780938207009729F020E4DC016A
:103C80001D922A95E9F71A82198209811A81000F7B
:103C9000111F0B5F184FF80180819181892B49F426
:103CA00081E090E00E944721D8018D939C93FC0114
:103CB000108229813A812F5F3F4F3A83298328332D
:103CC000310519F780917607909177079A83898358
:103CD000E5ECF6E090E080E021913191232B41F476
:103CE000DF01129729813A81280F391F2D933C93C8
:103CF00002968034910581F710E000E0C801880F3A
:103D0000991FDC01AB5AB94F7D018D919C91892B94
:103D100049F481E090E00E944721F701918380837C
:103D2000DC011C920F5F1F4F0833110539F72091FA
:103D3000820730918307E5E1F6E090E080E0419171
:103D40005191452B39F4DF011297A901480F591FF2
:103D50004D935C9302968034910589F7EDEEF5E082
:103D600090E080E029813A81205C3F4F3A832983AB
:103D700021913191232B41F4DF01129729813A815E
:103D8000280F391F2D933C9302968832910581F7B5
:103D90004091790750917A07E5ECF5E090E080E0FA
:103DA00021913191232B59F4DF0112979C01220FAD
:103DB000331F220F331F240F351F2D933C93019681
:103DC0008431910569F740917C0750917D07EDE9B9
:103DD000F5E090E080E021913191232B61F4DF0147
:103DE00012979C0113E0220F331F1A95E1F7240F5D
:103DF000351F2D933C9301968431910561F72091F5
:103E00000002309101024091020250910302609140
:103E1000040270910502E8EEAE2EF3E0BF2EC12C35
:103E2000D12CE12CF12C00E010E080910602909161
:103E300007020E948D2020939C0730939D0740939A
:103E40009E0750939F070E949E026093A007709365
:103E5000A1078093A2079093A307992493940E94AB
:103E60009E020091A0071091A1072091A207309116
:103E7000A307601B710B820B930B00919C071091A1
:103E80009D0720919E0730919F0760177107820759
:103E9000930708F4EEC080910A02811102C01092CB
:103EA0009A0790920A029092090280919A078823B9
:103EB000A9F080910802882371F00E94E7040E9413
:103EC000B50B1092920710929307109294071092DC
:103ED0009507109208020E94B50B5BC090920802F1
:103EE0001A8219828091980790919907A981BA81C5
:103EF000A817B907D8F5E0919607F0919707CD017B
:103F0000880F991F880F991FE80FF91F20813181B1
:103F100042815381211531054105510571F06091B0
:103F200092077091930780919407909195070E9452
:103F30005220672B682B692B99F4E0919007F09140
:103F4000910789819A81880F991FE80FF91F808155
:103F50009181DC01ED91FC910480F581E02D1995B2
:103F6000E981FA813196FA83E983BCCF8091920787
:103F700090919307A0919407B09195070196A11D88
:103F8000B11D8093920790939307A0939407B093E9
:103F9000950780910802813091F520918807309132
:103FA000890740918A0750918B0760918C07709127
:103FB0008D0780918E0790918F07A0900002B0909E
:103FC0000102C0900202D0900302E0900402F0903F
:103FD000050200910602109107020E942021209301
:103FE00088073093890740938A0750938B07609323
:103FF0008C0770938D0780938E0790938F070E9494
:104000008C0D80919B07811118C090929B070E9494
:104010009E0200919C0710919D0720919E07309170
:104020009F07601B710B820B930B6093A00770932B
:10403000A1078093A2079093A3078091A007909176
:10404000A107A091A207B091A30740919C075091AE
:104050009D0760919E0770919F07840F951FA61F73
:10406000B71F8093A0079093A107A093A207B093D6
:10407000A3070E949E020091A0071091A107209122
:10408000A2073091A307601B710B820B930B603169
:1040900077428105910510F00E948C0D88950E9451
:1040A000CC03DDCEA1E21A2EAA1BBB1BFD010DC065
:1040B000AA1FBB1FEE1FFF1FA217B307E407F507D8
:1040C00020F0A21BB30BE40BF50B661F771F881FB4
:1040D000991F1A9469F760957095809590959B014A
:1040E000AC01BD01CF010895EE0FFF1F881F8BBFEC
:1040F0000790F691E02D1994A29FB001B39FC001E3
:10410000A39F700D811D1124911DB29F700D811D03
:104110001124911D0895689401C0E8948F929F9294
:10412000CF93DF930E949920DF91CF919F908F9042
:10413000089588249924F401E401B0E49F93AA2708
:104140009A158B049C04ED05FE05CF05D007A10749
:1041500098F4AD2FDC2FCF2FFE2FE92D982C892E30
:10416000982F872F762F652F542F432F322F2227FA
:10417000B85031F7BF9127C01B2EBF91BB27220F2C
:10418000331F441F551F661F771F881F991F881CE8
:10419000991CEE1FFF1FCC1FDD1FAA1FBB1F8A1417
:1041A0009B04EC05FD05CE05DF05A007B10748F02F
:1041B0008A189B08EC09FD09CE09DF09A00BB10B99
:1041C00021601A94E1F62EF49401AF01BE01CD01F5
:1041D000000C0895002E083090F0982F872F762F2E
:1041E000652F542F432F322F22270850F4CF220F50
:1041F000331F441F551F661F771F881F991F0A957D
:10420000B2F7002D089597FD1094002E083098F015
:104210000850232F342F452F562F672F782F892FA3
:10422000912DF4CF15949795879577956795579528
:104230004795379527950A95AAF71124002D0895DB
:104240002A0D3B1D4C1D5D1D6E1D7F1D801F911F86
:1042500008952A193B094C095D096E097F09800BF5
:10426000910B08952A153B054C055D056E057F05EC
:104270008007910708950024A7FD00942A173005B0
:1042800040055005600570058005900508950F9361
:104290001F93CF93DF938230910510F482E090E07A
:1042A000E091820AF091830A30E020E0B0E0A0E0E3
:1042B000309799F42115310509F44AC0281B390BB0
:1042C00024303105D8F58A819B816115710589F10A
:1042D000FB0193838283FE0111C0408151810281E1
:1042E000138148175907E0F04817590799F41097B8
:1042F00061F012960C93129713961C933296CF018D
:10430000DF91CF911F910F9108950093820A10932E
:10431000830AF4CF2115310551F04217530738F0C5
:10432000A901DB019A01BD01DF01F801C1CFEF0155
:10433000F9CF9093830A8093820ACDCFFE01E20FDA
:10434000F31F819391932250310939832883D7CF6A
:104350002091800A3091810A232B41F420910D0293
:1043600030910E023093810A2093800A20910B0233
:1043700030910C022115310541F42DB73EB7409123
:104380000F0250911002241B350BE091800AF0912E
:10439000810AE217F307A0F42E1B3F0B28173907F9
:1043A00078F0AC014E5F5F4F2417350748F04E0F91
:1043B0005F1F5093810A4093800A819391939FCF0E
:1043C000F0E0E0E09CCFCF93DF930097E9F0FC01B1
:1043D000329713821282A091820AB091830AED0172
:1043E00030E020E01097A1F420813181820F931FEB
:1043F0002091800A3091810A2817390709F061C09D
:10440000F093810AE093800ADF91CF910895EA0149
:10441000CE17DF07E8F54A815B819E014115510502
:10442000B1F7E901FB83EA8349915991C40FD51F84
:10443000EC17FD0761F4808191810296840F951F2E
:10444000E90199838883828193819B838A83F0E049
:10445000E0E012968D919C9113970097B9F52D91FC
:104460003C911197CD010296820F931F2091800AF3
:104470003091810A2817390739F6309751F5109293
:10448000830A1092820AB093810AA093800ABCCF5B
:10449000D383C28340815181840F951FC817D907E8
:1044A00061F44E5F5F4F88819981480F591F518396
:1044B00040838A819B81938382832115310509F092
:1044C000B0CFF093830AE093820A9ECFFD01DC0116
:1044D000C0CF13821282D7CFFB01DC0102C0019052
:1044E0000D9241505040D8F70895DC0101C06D9302
:0C44F00041505040E0F70895F894FFCFD1
:1044FC00002D3101000000000101010000840A8040
:10450C000000C0C101C30302C2C60607C705C5C46B
:10451C0004CC0C0DCD0FCFCE0E0ACACB0BC909089B
:10452C00C8D81819D91BDBDA1A1EDEDF1FDD1D1CDB
:10453C00DC14D4D515D71716D6D21213D311D1D06B
:10454C0010F03031F133F3F23236F6F737F535340B
:10455C00F43CFCFD3DFF3F3EFEFA3A3BFB39F9F8DB
:10456C003828E8E929EB2B2AEAEE2E2FEF2DEDEC7B
:10457C002CE42425E527E7E62622E2E323E12120AB
:10458C00E0A06061A163A3A26266A6A767A56564AB
:10459C00A46CACAD6DAF6F6EAEAA6A6BAB69A9A81B
:1045AC006878B8B979BB7B7ABABE7E7FBF7DBDBC5B
:1045BC007CB47475B577B7B67672B2B373B17170EB
:1045CC00B05090915193535292965657975595944B
:1045DC00549C5C5D9D5F9F9E5E5A9A9B5B9959585B
:1045EC0098884849894B8B8A4A4E8E8F4F8D4D4CFB
:1045FC008C4484854587474686824243834181802B
:10460C004000C1814001C0804101C0804100C18196
:10461C004001C0804100C1814000C1814001C08087
:10462C004101C0804100C1814000C1814001C08076
:10463C004100C1814001C0804101C0804100C18165
:10464C004001C0804100C1814000C1814001C08057
:10465C004100C1814001C0804101C0804100C18145
:10466C004000C1814001C0804101C0804100C18136
:10467C004001C0804100C1814000C1814001C08027
:10468C004101C0804100C1814000C1814001C08016
:10469C004100C1814001C0804101C0804100C18105
:1046AC004000C1814001C0804101C0804100C181F6
:1046BC004001C0804100C1814000C1814001C080E7
:1046CC004100C1814001C0804101C0804100C181D5
:1046DC004001C0804100C1814000C1814001C080C7
:1046EC004101C0804100C1814000C1814001C080B6
:1046FC004100C1814001C0804101C0804100C181A5
:10470C00401A0DDE07AC0B0D0D010208FF07F50773
:10471C00EC0701E407E107D407CB0701C0079707B3
:10472C00B307A807029D079A078A077F07026A0743
:10473C00B6055707480704330730071D070E070453
:10474C00E4066506B8069506086B06680639061673
:10475C0006080106FE05EB05D10504BC05B905A349
:10476C0005890504E407E107D407CB07019D079AE7
:10477C00078A077F0702330730071D070E07046BF4
:10478C000668063906160608E4066506B806950698
:10479C0008E4066506B806950608E4066506B8063C
:1047AC00950608E4066506B8069506088319080DF3
:1047BC000E1ACC197F4C0C480C2A19AB0CFD0000BE
:1047CC0000000000000000000000000000000000DD
:1047DC0000000000000000000000000000000000CD
:1047EC0000000000000000000000000000000000BD
:1047FC0000000000000000000000000000000000AD
:10480C00000010047F190000000010047D19000046
:10481C000000FD037B1920080D040A040904090497
:10482C00FE030000000011048119B704C602C30284
:10483C00000000005F03C902F602AC032703050366
:10484C001903434F4E46494730005441534B3000F7
:10485C005245533000504C430030383037363163BA
:10486C0066363237643731396232653364393937F9
:10487C0035313932663935633400342E322E3700F7
:00000001FF
