:100000000C94AD010C94DE010C94DE010C94DE0125
:100010000C94DE010C94DE010C94DE010C94DE01E4
:100020000C94DE010C94DE010C94DE010C94DE01D4
:100030000C94DE010C94DE010C94DE010C94DE01C4
:100040000C94DE010C94DE010C94DE010C94DE01B4
:100050000C94DE010C94DE010C94DE010C94F61776
:100060000C94DE010C946A180C9440180C94DE0178
:100070000C94DE010C94DE010C94DE010C94DE0184
:100080000C94DE010C94DE010C94DE010C94DE0174
:100090000C94DE010C94DE010C94DE010C94DE0164
:1000A0000C94DE010C94DE010C94DE010C94DE0154
:1000B0000C94DE010C94DE010C94DE010C94DE0144
:1000C0000C94DE010C94DE010C94DE010C94DE0134
:1000D0000C94DE010C94DE010C94DE010C94DE0124
:1000E0000C94DE010C947E070C9414030C94D60639
:1000F0000C946B070C9422170C9419070C94F404BD
:100100000C9439030C94500A0C9420170C940E0490
:100110000C9453070C9421030C9409070C943F078B
:100120000C94AC040C94C0040C94F6020C94B80427
:100130000C9474070C94EA050C9491070C94BC047D
:100140000C942B030C94C8030C9480050C94261774
:100150000C94E7050C94E9060C94AD0A0C94AF06D8
:100160000C942F030C94B4030C94A5030C94080373
:100170000C94B20A0C94F1090C9475030C9460076A
:100180000C94D6030C9463070C94A0180C94C70627
:100190000C94ED090C94B8050C9424170C94630688
:1001A0000C9451090C94AD040C9447030C947803FF
:1001B0000C949C060C940C030C94B2060C9417033C
:1001C0000C9414060C94E4050C9435030C945B0415
:1001D0000C946A050C94B1170C94CF160C94681704
:1001E0000C948D060C947D050C94BF040C941003A4
:1001F0000C9443030C94B9040C94BF0A0C943D0373
:100200000C9408050C94F1020C943B050C941D030E
:100210000C9422050C9435050C944A070C9437066F
:100220000C9450050C9481070C9427070C945D07DF
:100230000C9432070C94FE060C9427030C941607BA
:100240000C941C070C9495050C9438050C947203BF
:10025000480900004B0900005009000053090F0035
:100260006409000067090F00500206000000220028
:10027000250028002B002E00310034000201000070
:10028000050108010B010505050507050808080813
:10029000020202020A0A080804040404010101011E
:1002A0000101010103030303030303030407070719
:1002B0000C0C0C0C0C0C0C0C0202020206060606BE
:1002C000060606060B0B0B0B0B0B0B0B010210208B
:1002D000200808102040102040800201020108047C
:1002E0000201010204081020408080402010080410
:1002F0000201800402018040201008040201080469
:1003000002010102040810204080010204081020AC
:10031000408000000A0B02090C0D0E0807030401BF
:1003200000000000000000000000000000000000CD
:10033000000000000000000000000000000012119A
:10034000100000000000000000000000000000009D
:100350000000000000000000A01811241FBECFEF15
:10036000DFEFDEBFCDBF00E00CBF15E0A0E0B2E0E4
:10037000E2E4F0E400E00BBF02C007900D92A83861
:10038000B107D9F729E0A8E8B5E001C01D92AF3C5C
:10039000B207E1F711E0CDEAD1E000E006C0219715
:1003A0000109802FFE010E94171ECC3AD10780E080
:1003B0000807A9F70E94FD180C941F200C94000058
:1003C0004091A5075091A607E7EAF7E081E090E0A9
:1003D0004230510530F41092A6071092A5070895F7
:1003E000C901218121939C012F5F3F4F4217530781
:1003F000B9F79093A6078093A5070895CF93DF934D
:10040000E4E4F9E08EE295E0918380838AE195E06F
:100410009383828314821582168217821086118636
:1004200082E195E093878287148615861686178663
:10043000108A118A128A138A148A158A168A178AD0
:10044000108E118E128E138E148E158E168E178EA0
:1004500010A211A212A213A214A215A216A217A2F0
:1004600010A611A612A613A614A615A616A617A6C0
:1004700010AA11AA12AA13AA14AA15AA16AA17AA90
:1004800010AE11AEEEE7F9E01082118212821382F3
:10049000148215821682178210928609E7E8F9E025
:1004A00010821182128213821482158216821782A0
:1004B000EFE8F9E010821182128213821482158211
:1004C0001682178210929709E8E9F9E010821182EA
:1004D00012821382148215821682178281E0809321
:1004E000A0091092A1091092A2098093A309109269
:1004F000A4091092A509C8EBD9E026E439E03983B4
:100500002883A6EAB9E02AE435E011963C932E93BD
:10051000E8EAF9E010829DE2918391E3928383837C
:10052000148215821682178241E050E060E070E08C
:100530004093B0095093B1096093B2097093B30925
:10054000D093B509C093B40981E090E09093B709C6
:100550008093B60920E535E03093BB092093BA09B2
:1005600025E535E03093BD092093BC09B093BF0960
:10057000A093BE099093C1098093C009DF91CF91E8
:100580000895282F30E0F901EE5EFC4F9491F901B7
:10059000E453FD4F44912A573D4FF9012491222302
:1005A00009F435C0992311F191509231F8F4E92FF3
:1005B000F0E08827E152FD4F8F4F0C94171E100377
:1005C0001403F10208030C03F60217031D032103B1
:1005D00027032B032F0335033903F6023D0343039F
:1005E0004703809180008F7780938000E22FF0E0B6
:1005F000EE0FFF1FE459FD4FA591B4918FB7F8940A
:10060000EC91611148C040954E234C938FBF0895E3
:10061000809180008F7DE8CF80918000877FE4CF3C
:1006200084B58F7784BDE2CF84B58F7DFBCF809179
:10063000B0008F778093B000D9CF8091B0008F7DCC
:10064000F9CF809190008F7780939000CFCF8091E9
:1006500090008F7DF9CF80919000877FF5CF8091BA
:10066000A0008F778093A000C1CF8091A0008F7DE4
:10067000F9CF8091A000877FF5CF809120018F77FF
:1006800080932001B3CF809120018F7DF9CF80919D
:100690002001877FF5CF4E2BB8CF3FB7F8948091DC
:1006A000A1079091A207A091A307B091A40726B536
:1006B000A89B05C02F3F19F00196A11DB11D3FBF9A
:1006C000BA2FA92F982F8827BC01CD01620F711D69
:1006D000811D911D42E0660F771F881F991F4A9563
:1006E000D1F7089581E090E008958A589F4F0895CA
:1006F000AF92BF92CF92DF92EF92FF920F931F9330
:10070000CF93DF936C017B018B01040F151FEB016D
:100710005E01AE18BF08C017D10759F06991D60124
:10072000ED91FC910190F081E02DC6011995892B86
:1007300079F7C501DF91CF911F910F91FF90EF9055
:10074000DF90CF90BF90AF900895FC01538D448D02
:10075000252F30E0842F90E0821B930B541710F06C
:10076000CF96089501970895FC01918D828D981779
:1007700061F0A28DAE0FBF2FB11D5D968C91928D51
:100780009F5F9F73928F90E008958FEF9FEF089582
:10079000FC01918D828D981731F0828DE80FF11D4B
:1007A000858D90E008958FEF9FEF0895FC01918D66
:1007B000228D892F90E0805C9F4F821B91098F735F
:1007C0009927089587EA98E00E94D60321E0892BB3
:1007D00009F420E0822F0895FC01A48DA80FB92F01
:1007E000B11DA35ABF4F2C91848D90E001968F7359
:1007F0009927848FA689B7892C93A089B1898C9178
:10080000837080648C93938D848D981306C00288C6
:10081000F389E02D80818F7D80830895EF92FF9290
:100820000F931F93CF93DF93EC0181E0888F9B8D13
:100830008C8D98131AC0E889F989808185FF15C0CD
:100840009FB7F894EE89FF896083E889F9898081F0
:100850008370806480839FBF81E090E0DF91CF91BF
:100860001F910F91FF90EF900895F62E0B8D10E0E1
:100870000F5F1F4F0F731127E02E8C8D8E110CC050
:100880000FB607FCFACFE889F989808185FFF5CF9B
:10089000CE010E94EC03F1CFEB8DEC0FFD2FF11D8B
:1008A000E35AFF4FF0829FB7F8940B8FEA89FB89D8
:1008B00080818062CFCFCF93DF93EC01888D882336
:1008C000B9F0AA89BB89E889F9898C9185FD03C0B3
:1008D000808186FD0DC00FB607FCF7CF8C9185FF98
:1008E000F2CF808185FFEDCFCE010E94EC03E9CFEE
:1008F000DF91CF91089580E090E0892B29F00E944C
:10090000E20381110E94000080E090E0892B49F011
:1009100080E090E0892B29F00E94000081110E9464
:10092000000080E090E0892B49F080E090E0892B86
:1009300029F00E94000081110E94000080E090E0F8
:10094000892B49F080E090E0892B29F00E9400007B
:1009500081110C94000008950895FB01108211820A
:1009600012821382FA011082118212821382089578
:10097000089590E080E0089590E080E00895089563
:100980000895DC01FB018085882329F1718562854A
:100990005385448535852685978580891896EC9101
:1009A0001897E11116C07C9311966C9311971296CB
:1009B0005C93129713964C93139714963C93149749
:1009C00015962C93159716969C93169717968C93BD
:1009D0001797CD01089570816181528143813481DF
:1009E000258196818781DACF89E595E00895282FC2
:1009F0008AE692E0A0E0BB2730E0220F331F820F8F
:100A0000931FA11DB11DABBFFC0187919691089565
:100A1000CF93DF9300D01F92CDB7DEB7FB014081AB
:100A2000518162817381FC012481211104C04083C2
:100A30005183628373830F900F900F900F90DF911B
:100A4000CF910895FC018481882351F0858196819E
:100A5000A781B085FB0180839183A283B38308952E
:100A600080819181A281B381F5CFFC011482089528
:100A7000FC0114820895CF93DF93FC01EB01888180
:100A80009981AA81BB8121E0248385839683A783F2
:100A9000B08780839183A283B383DF91CF91089540
:100AA000CF93DF9300D01F92CDB7DEB7FB0140811B
:100AB000518162817381FC012481211104C0408332
:100AC0005183628373830F900F900F900F90DF918B
:100AD000CF910895FC018481882351F0858196810E
:100AE000A781B085FB0180839183A283B38308959E
:100AF00080819181A281B381F5CFFC011482089598
:100B0000CF93DF93FC01EB0188819981AA81BB819E
:100B100021E0248385839683A783B0878083918394
:100B2000A283B383DF91CF910895FC01DB0180851F
:100B300081111DC07C9111966C91119712965C9158
:100B4000129713964C91139714963C9114971596FF
:100B50002C91159716969C91169717968C917083E9
:100B600061835283438334832583968387830895E7
:100B7000FC01DB0180858823F1F071856285538556
:100B8000448535852685978580897C9311966C935D
:100B9000119712965C93129713964C931397149691
:100BA0003C93149715962C93159716969C9316972D
:100BB00017968C93089570816181528143813481AD
:100BC000258196818781E1CFFC0110860895FC0183
:100BD00010860895FC01DB017C9111966C911197B0
:100BE00012965C91129713964C91139714963C9120
:100BF000149715962C91159716969C911697179603
:100C00008C91A1E0A08771876287538744873587DD
:100C100026879787808B70836183528343833483D5
:100C20002583968387830895FC01DB0180858111EC
:100C30001DC07C9111966C91119712965C91129740
:100C400013964C91139714963C91149715962C91EA
:100C5000159716969C91169717968C9170836183C1
:100C60005283438334832583968387830895FC01CD
:100C7000DB0180858823F1F0718562855385448589
:100C800035852685978580897C9311966C9311977D
:100C900012965C93129713964C93139714963C9369
:100CA000149715962C93159716969C93169717964E
:100CB0008C930895708161815281438134812581B3
:100CC00096818781E1CFFC01DB017C9111966C91CB
:100CD000119712965C91129713964C911397149654
:100CE0003C91149715962C91159716969C911697F2
:100CF00017968C91A1E0A0877187628753874487FC
:100D0000358726879787808B7083618352834383DF
:100D100034832583968387830895FC0124812111E0
:100D20000AC0FB014081518162817381FC014083D3
:100D30005183628373830895FC018481882351F079
:100D400085819681A781B085FB0180839183A283F1
:100D5000B383089580819181A281B381F5CFFC0195
:100D600014820895CF93DF93FC01EB018881998170
:100D7000AA81BB8121E0248385839683A783B087E2
:100D800080839183A283B383DF91CF910895FC0187
:100D9000248121110AC0FB0140815181628173814C
:100DA000FC0140835183628373830895FC01848135
:100DB000882351F085819681A781B085FB018083CE
:100DC0009183A283B383089580819181A281B381AD
:100DD000F5CFCF93DF93FC01EB0188819981AA8144
:100DE000BB8121E0248385839683A783B08780839A
:100DF0009183A283B383DF91CF910895FC01228177
:100E0000211106C0FB0120813181FC013183208347
:100E10000895FC018281882331F083819481FB0154
:100E200091838083089580819181F9CFFC011282A2
:100E30000895FC0112820895FC01DB018D919C91C3
:100E400021E0228394838383918380830895FC012E
:100E50002281211106C0FB0120813181FC013183F7
:100E600020830895FC018281882331F0838194815D
:100E7000FB0191838083089580819181F9CFFC01EA
:100E8000DB018D919C9121E0228394838383918364
:100E900080830895FC012181211104C0FB01208180
:100EA000FC0120830895FC018181882321F0828147
:100EB000FB01808308958081FBCFFC01118208959E
:100EC000FC0111820895FC01DB018C9191E091837A
:100ED000828380830895FC012181211104C0FB01DC
:100EE0002081FC0120830895FC018181882321F069
:100EF0008281FB01808308958081FBCFFC011182F8
:100F00000895FC01DB018C9191E0918382838083C1
:100F10000895FC018181882311F0828108958081E8
:100F200008952F923F924F925F926F927F928F928D
:100F30009F92AF92BF92CF92DF92EF92FF920F9368
:100F40001F93CF93DF93CDB7DEB7A8970FB6F89472
:100F5000DEBF0FBECDBF4C010A969C8F8B8F0897CA
:100F60000E948907F4019385911101C08287F401E1
:100F7000858981110CC0158684EE86878BE0878772
:100F800084E5808B82E0818B128A138A148A809197
:100F900080078983809181078A83809182078B8370
:100FA000809183078C83809184078D83809185074E
:100FB0008E83809186078F83809187078887198623
:100FC0001A861B861C861D861E861F86188A198A0D
:100FD0003401F8E36F0E711CBE016F5F7F4FC301D8
:100FE0000E94C1048B8D9C8D0E9489078D8B1E8A67
:100FF0001F8ACE0145960E94890791E089278A8B36
:101000001B8A1C8AC401C596F40143A8442049F1F7
:1010100014A90E94890791E0111190E09823988FFC
:10102000198E1A8ECE0148960E948907582ECE013D
:1010300042960E948907852189831A821B82CE01EC
:1010400001960E948907882371F0411003C081E056
:10105000F40182ABB301C401875B9F4F0E94C104BE
:101060001FC012A9D6CF8B8D9C8D0E948907882323
:1010700009F449C0F40181A5811108C011A212A28E
:1010800013A214A215A216A217A210A6F401878D0E
:10109000811102C081E0868F411002C0F40112AAC2
:1010A0008B8D9C8D0E948907F40196A9911101C036
:1010B00085ABF401E65AFF4F8181811102C081E0C6
:1010C0008083C4014E960E948907F4019681911194
:1010D00001C08583A8960FB6F894DEBF0FBECDBFC2
:1010E000DF91CF911F910F91FF90EF90DF90CF9004
:1010F000BF90AF909F908F907F906F905F904F9038
:101100003F902F900895113059F6F401E75BFF4F9F
:101110002085222309F468C0318482858D8F538411
:10112000B485A58596859E8F87858F8F2088F4014D
:101130008589882309F464C026893789408D518DBB
:10114000628D738D848D958DA32CBD8CC52CDB2E6B
:10115000EA2EFE8C0F8D122D0E94C31E3401F0E486
:101160006F0E711CF3011081112309F452C0340178
:10117000F1E46F0E711CF301F081F8A3F301F1812A
:10118000F9A3F301F281FAA3F301F381FBA3F301C5
:10119000F481FCA3F301F581FDA3F301F681FEA325
:1011A000F301F781FFA3F401F78DF8A7A8A0B9A078
:1011B000CAA0DBA0ECA0FDA00EA11FA1F401B19676
:1011C0003F010E94D51E09F0E4F5411003C082E002
:1011D000F40182ABF8A5F11102C0F401168EB4013E
:1011E000635F7F4FC3013ACF308091819D8F5280E2
:1011F000B381A48185818E8F96819F8F278097CF21
:1012000025853685478550896189728983899489C6
:101210009BCFF401F0ADF8A3F401F1ADF9A3F40113
:10122000F2ADFAA3F401F3ADFBA3F401F4ADFCA31A
:10123000F401F5ADFDA3F401F6ADFEA3F401F7ADA5
:10124000B1CFF8A5F11103C081E0F401868F28A188
:1012500039A14AA15BA16CA17DA18EA19FA1A32C64
:10126000BD8CC52CDB2EEA2EFE8C0F8D122D0E941C
:10127000CC1E29833A834B835C836D837E838F836B
:10128000988719861A861B861C861D861E861F86D1
:10129000188A198ABE016F5F7F4FC3010E94C10483
:1012A000FFCECF93DF93EB010E9489078883DF9104
:1012B000CF91089590E080E0FC01EE0FFF1FE35016
:1012C000F94F0190F081E02D309709F010820196DE
:1012D0008833910589F7EDEBF6E08DEF96E0A1916B
:1012E000B191109711F01D921C928E179F07B9F7BC
:1012F000EEECF4E08EE095E0A191B191109729F029
:101300001D921D921D921C9213978E179F07A1F795
:1013100008950F931F93882339F060E070E080E018
:1013200090E01F910F9108950AE612E020E0332724
:101330002BBFF8010791169160177107B0F488E68A
:1013400092E0A0E0BB27ABBFFC0187919691660FAE
:10135000771F660F771F680F791FFB012591349166
:10136000FB0132968491B901DBCF60E070E0D8CF09
:101370000E948909672B59F0853148F499E0899FCB
:10138000F0011124EF5EFB4F808590E0089590E01E
:1013900080E008950F931F93CF938A010E948909DB
:1013A000E82FCB010097B1F0E531A0F429E0E29FEE
:1013B000F0011124EF5EFB4FC085CC2359F004806F
:1013C000F581E02DB80119958C2F90E0CF911F91F8
:1013D0000F91089590E080E0F9CF9E5FFC011082AC
:1013E0000895EF92FF920F931F93CF93DF93CDB7A2
:1013F000DEB7CC5FD2400FB6F894DEBF0FBECDBFD4
:10140000FB0130813F3708F03EE7FB01BE016F5F13
:101410007D4FDB0120E0231751F0428151814527A8
:10142000542745274D935D932F5F3296F4CF30E0DC
:10143000DE01119650E040E07D014217530748F469
:10144000FB0101911191BF010D931D934F5F5F4F00
:10145000F4CFD901AA0FBB1FAE0DBF1D1D921C9268
:10146000DC01BE5F41E04C93C150DE4F39832883DD
:10147000CF5FD140119680E092E0F70101900D928C
:101480000197E1F7C450DD4F0FB6F894DEBF0FBEF1
:10149000CDBFDF91CF911F910F91FF90EF900895F5
:1014A000EF92FF920F931F93CF93DF93CDB7DEB7E9
:1014B000CC5FD2400FB6F894DEBF0FBECDBFFB01AC
:1014C00030813F3708F03EE7FB01BE016F5F7D4F83
:1014D000DB0120E0231751F0428151814527542739
:1014E00045274D935D932F5F3296F4CF30E0DE01B8
:1014F000119650E040E07D014217530748F4FB018C
:1015000001911191BF010D931D934F5F5F4FF4CF78
:10151000A901440F551F4E0D5F1DFA011182108263
:10152000C150DE4F39832883CF5FD14020E032E0C5
:10153000F701DC0101900D9221503040D9F7C450E1
:10154000DD4F0FB6F894DEBF0FBECDBFDF91CF9158
:101550001F910F91FF90EF9008958F5F9E4FFC01B8
:1015600010820895FC012181211108C021E0FB01B6
:101570003081311101C020E0FC0120830895FC017D
:1015800081E0DB019C91911101C080E091E09183A9
:101590008283808308950F931F93582F577001E023
:1015A00010E020E030E004C0000F111F221F331FA5
:1015B0005A95D2F723E0969587952A95E1F79927D2
:1015C000E0917707F0917807662321F0E0917D079D
:1015D000F0917E07E80FF91F8081442329F0082B42
:1015E00000831F910F91089500950823F9CF23E000
:1015F00030E030938D0520938C05E7EAF7E0909179
:101600006D07908380588183628308952091A70796
:10161000209530E0F901EF5EFC4F908190952F5EB0
:101620003D4FD9018C9140918C0550918D054250D0
:101630005109E7EAF7E031969F01275A374024170E
:10164000350770F420819227292F30E0D901AF5E51
:10165000BC4F9C9198272F5E3D4FD9018C91EBCFC9
:1016600008952F923F924F925F926F927F928F9246
:101670009F92AF92BF92CF92DF92EF92FF920F9321
:101680001F93CF93DF93CDB7DEB7C855D1090FB6FF
:10169000F894DEBF0FBECDBF10E000E0F801EE0F02
:1016A000FF1FE350F94F0190F081E02D309749F092
:1016B00041E08081811101C040E060E0C8010E94EA
:1016C000CB0A0F5F1F4F0833110541F7E0906E07FB
:1016D000F0906F070DEB16E02F961FAF0EAF2F9710
:1016E0008701005C1F4FF7012DEB36E0D9018D918A
:1016F0009D919D01009729F0DC018D919C91918332
:10170000808332960E171F0789F7D12CC12CF60162
:10171000EE0FFF1FE35BF94F0190F081E02D309752
:1017200049F041E08081811101C040E061E0C601E3
:101730000E94CB0ABFEFCB1ADB0AE8E3CE16D10436
:1017400031F74DE056E0E0917A07F0917B079F0179
:10175000205C3F4FDA018D919D91AD01009729F0FA
:10176000DC018D919C919183808332962E173F07E7
:1017700089F7E5EEF5E06196FFAFEEAF6197F8010E
:1017800008E6E00EF11C25EE35E0D9018D919D9122
:101790009D01009729F0DC018D919C9191838083BC
:1017A0003296EE16FF0689F7EDEBF5E06396FFAF94
:1017B000EEAF6397E0917107F09172079F01205B94
:1017C0003F4F0DEB15E0D8018D919D918D01009754
:1017D00049F0DC014D915D916D917C914083518385
:1017E0006283738334962E173F0769F7E5E9F5E0C6
:1017F0002D96FFAFEEAF2D97E0917407F09175072E
:101800009F0120563F4F85E995E0DC01CD90DD90AA
:10181000CD01C114D104F1F0D601EC901196FC90E9
:10182000119712960C91129713961C911397149678
:101830007C91149715966C91159716965C91169756
:1018400017964C91E082F18202831383748365833F
:10185000568347833896E217F307B9F6F0906D0781
:10186000C09092052996CFAE2997C0909305D0904D
:1018700094052796DFAECEAE27972796AEADBFADC7
:101880002797ED91FC9111970084F185E02DCD0112
:10189000199518161906BCF58091A5079091A60711
:1018A0008F3F910509F078F52796AEADBFAD27972C
:1018B000ED91FC9111970284F385E02DCD011995EE
:1018C0002091A5073091A607A9014F5F5F4F509364
:1018D000A6074093A5072955384FF90180832FB7F4
:1018E000F89480919D0790919E07A0919F07B091D9
:1018F000A0072FBF8093880590938905A0938A0540
:10190000B0938B05BACF4091A5075091A60741151A
:10191000510509F487C08091A707F81619F00E94B5
:10192000E001F1CF4230510508F48AC18091A80747
:1019300009E0802E912CA12CB12C833409F442C0F3
:1019400028F5813158F48F3008F03EC1815086303F
:1019500038F188248A94982C540134C0813409F4D5
:1019600069C18234B1F74830510508F469C18090EB
:10197000AD079090AE07982489249824B12CA12C0F
:101980001AE0810E911CA11CB11C1CC0893470F49A
:10199000863408F04FC1843409F424C18534C9F673
:1019A00088E0882E912CA12CB12C0CC08A3409F42B
:1019B00041C108F42DC115E0812E912CA12CB12C30
:1019C0008B3439F631E083169306A104B10408F094
:1019D000A6CF81149104A104B10429F08401481513
:1019E000590508F031C12FB7F89480919D07909167
:1019F0009E07A0919F07B091A0072FBF4091880537
:101A00005091890560918A0570918B05841B950B17
:101A1000A60BB70B0997A105B10520F01092A607F8
:101A20001092A507409177075091780730E020E0A9
:101A3000F901EE0FFF1FE350F94F0190F081E02D07
:101A4000309799F0D90183E0B695A7958A95E1F78B
:101A5000A40FB51F8C9190E0622F677002C095951E
:101A600087956A95E2F7817080832F5F3F4F283317
:101A70003105F1F680916E0790916F07BC01605CB3
:101A80007F4FDC012F96EEADFFAD2F972191319165
:101A90002F96FFAFEEAF2F972115310531F04D9105
:101AA0005C911197F9015183408312966A177B0765
:101AB00049F7FB0188599F4F6196AEADBFAD619765
:101AC0004D915D916196BFAFAEAF619741155105E4
:101AD00029F020813181DA012D933C9332968E17C3
:101AE0009F0751F7E0917107F0917207CF01805B7A
:101AF0009F4F6396AEADBFAD63972D913D916396B9
:101B0000BFAFAEAF63972115310551F040815181D0
:101B100062817381D9014D935D936D937C9313978B
:101B200034968E179F0729F7E0917407F091750797
:101B3000CF0180569F4F2D96AEADBFAD2D97ED9046
:101B4000FD902D96BFAFAEAF2D97E114F104F1F0EB
:101B500000811181728163815481458136812781A1
:101B6000D7010C9311961C93119712967C931297A0
:101B700013966C93139714965C93149715964C9345
:101B8000159716963C93169717962C9338968E17A2
:101B90009F0789F6C85ADF4F0FB6F894DEBF0FBE15
:101BA000CDBFDF91CF911F910F91FF90EF90DF900C
:101BB000CF90BF90AF909F908F907F906F905F90ED
:101BC0004F903F902F90089547305105C8F1809075
:101BD000AD07912CB12CA12CF9E08F0E911CA11C0A
:101BE000B11CF0CE4430510558F12091A907309135
:101BF000AA07322723273227A3E0B0E00E941F1E46
:101C00004B015C0106E0800E911CA11CB11CDACED8
:101C100044305105A8F08090A9079090AA07982415
:101C200089249824B12CA12C26E0820E911CA11CA1
:101C3000B11CC8CEA4E08A2E912CA12CB12CC2CE0E
:101C4000812C912C5401BECED090A8078FEB8D0D26
:101C50008A3000F190928D0580928C050E94060BCF
:101C6000B501A40142505109610971094955584F04
:101C7000DA012C91B1E08B1A9108A108B108F401A6
:101C8000E955F84F308123273227232728173907B2
:101C900009F045CE0250110910938D0500938C0573
:101CA0006090A9077090AA07762467247624809113
:101CB000A9070091AB071091AC0710270127102747
:101CC000E090AA07F090AB07FE24EF24FE24C0901A
:101CD000AC07E2E4DE1609F4A8C7ED1508F478C0F5
:101CE000F5E0DF1609F4D8C5FD1570F1F2E0CF2E4E
:101CF000DC1409F417C5CD1450F0EE24E394DE147F
:101D000009F487C461E070E08D2D90E041C0E3E00C
:101D1000FE2EDF1409F4D8C124E0D212F3CFC8019B
:101D2000019763E070E08D37910558F420917C07AE
:101D3000C301800F911F2817190608F07CC562E0C7
:101D400070E084E090E024C03FE0D31609F4C3C5FE
:101D50003D1508F146E0D412D5CF2091700780914F
:101D6000730790E0880F991FE22FF0E08E0F9F1FFE
:101D70004091760724E0429FA0011124480F591F8B
:101D80006416750608F493C062E070E086E090E0A7
:101D90000E94F70A99C080E1D81609F4BAC291E40A
:101DA000D912B0CFD092A80781E08093A9078EE71F
:101DB0008093AA0780E00E94F7049093AB0780937A
:101DC000AC0786E090E090938D0580938C057CC0F5
:101DD000A7E4DA1609F49BC7AD1508F441C0B4E4D2
:101DE000DB1609F4A7C6DB1608F432C6E5E4DE16F6
:101DF00009F463C7F6E4DF1285CF2FB7F89480911A
:101E00009D0790919E07A0919F07B091A0072FBFBB
:101E1000D092A8072EE72093A907209108022093CB
:101E2000AA0720918A0730918B0740918C07509127
:101E30008D075093AB074093AC073093AD072093C9
:101E4000AE07B093AF07A093B0079093B10780930C
:101E5000B207809109028093B3078DE090E0B3CF81
:101E600079E4C72EDC1409F486C7DC1408F46EC7C5
:101E70006AE4E62EDE1409F48BC75BE4F52EDF106E
:101E800041CF813009F087C7109292078BE480938D
:101E9000A8078EE78093A907809108028093AA077C
:101EA000809109028093AB0785E090E08CCF6E169D
:101EB0007F06D8F4660C771CE0916E07F0916F07EF
:101EC000E60DF71D1183008380918C0590918D059F
:101ED00002968130914008F45CC58091A80764E0C7
:101EE00070E090E00E94F70A54C568167906F0F594
:101EF000A80170E060E0809171079091720760FC2A
:101F00001CC0D301AE1BBF0BFD01EE0FFF1FEC7F0A
:101F1000F370E80FF91F80819181A281B381AA2714
:101F2000BB27BA0155274427842B952BA62BB72B0B
:101F300080839183A283B383C7CFE095F095E60DAC
:101F4000F71DEE0FFF1FEC7FF370E80FF91F008104
:101F500011812281338100271127042B152B262B79
:101F6000372B0083118322833383AECF93012370F9
:101F700033274801B12CA12CC12CD12C7601E09142
:101F80007407F09175072115310549F5681A790A2A
:101F9000660C771CB8EF6B22B7E07B22E60DF71DCD
:101FA0004080618072801381B481A581940140E0FA
:101FB00050E060E070E080E090E000E30E948D1E61
:101FC000242920833629318347294283512B538387
:101FD000B62BB483A72BA5838683978375CF213037
:101FE000310541F50FEF601A700A681A790A660C1C
:101FF000771C18EF612217E07122E60DF71D408073
:10200000618072801381B681A7819401A501B60118
:10201000C70100E20E948D1E2429208336293183C6
:1020200047294283152B1383648375838B2B868307
:102030009A2BD3CF2230310529F522E0620E711C94
:10204000681A790A660C771C38EF632237E073222E
:10205000E60DF71D4080618074801581B681A781EF
:102060009401A501B601C70100E10E948D1E24293B
:1020700020833629318342835383762A7482172B37
:102080001583D4CF43E0640E711C681A790A660C7C
:10209000771C88EF682287E07822E60DF71D5281D1
:1020A00043813481258196818781808291825A295A
:1020B00052834B2943833C2934832D2925839E2930
:1020C00096838F29878300CFC801019763E070E072
:1020D0008D379105C8F44301800E911E2091700741
:1020E000E0917307F0E0EE0FFF1FE20FF11D80910A
:1020F0007607A4E08A9FC00111248E0F9F1F8816C7
:10210000990628F062E070E083E090E041CE000F95
:10211000111F0D5F1F4F10938D0500938C0547EA2B
:10212000E42E47E0F42ED7011196CD01875A97404F
:102130008017910710F41C92F7CF83E08093A807D3
:1021400003500093A907C0907407D0907507A09022
:102150007107B090720740906E0750906F07A22FE2
:10216000B0E02B96BFAFAEAF2B9783E090E0DC01E1
:10217000AE1BBF0BBEAFADAF2B962EAC3FAC2B97BB
:10218000209430948614970409F49ECE2B96AEAD1D
:10219000BFAD2B976A167B0650F49301220F331FB5
:1021A000240D351DD9018C9111963C911CC06E16E1
:1021B0007F0680F560FC24C0C3012B96AEADBFAD99
:1021C0002B978A1B9B0B880F991F8C7F93708A0D0E
:1021D0009B1DDC014D915D916D917C91AB0166275A
:1021E0007727842F352FD70113963C931397149696
:1021F0008C93B2E0EB0EF11C0FEF601A700AC2CFA5
:102200009101260D371D220F331F2C7F33702A0DAD
:102210003B1DC8CF8301037011270115110521F55E
:1022200083010E1B1F0B000F111F087F17700C0D71
:102230001D1DD8012C9111963C91119712964C912D
:10224000129713965C91139714966C9114971596A8
:102250007C91159716968C91169717969C9100E392
:102260000E94A81E822FBFCF0130110511F50E1B51
:102270001F0B060D171D000F111F087F17700C0D87
:102280001D1DD8012C9111963C91119712964C91DD
:10229000129713965C91139714966C911497159658
:1022A0007C91159716968C91169717969C9100E243
:1022B000D7CF0230110511F50E1B1F0B060D171D90
:1022C000000F111F087F17700C0D1D1DD8012C91D8
:1022D00011963C91119712964C91129713965C911E
:1022E000139714966C91149715967C9115971696E2
:1022F0008C91169717969C9100E1B2CF2DAD3EAD13
:10230000260D371D220F331F287F37702C0D3D1DE2
:1023100049CFC80101978B37910540F42091AD0753
:10232000C801880F991F2817190629F063E070E08B
:1023300080E190E02DCD2301400E511E20917007C9
:10234000A0917307B0E0AA0FBB1FA20FB11D80912F
:10235000760734E0839FC00111248A0F9B1F481623
:10236000590618F062E070E0E3CF86E090E09093C9
:102370008D0580938C0580E18093A8077092A90752
:102380006092AA071092AB070093AC078090740785
:1023900090907507E0917107F09172072B96FFAF4F
:1023A000EEAF2B97C0906E07D0906F076596DFAEAB
:1023B000CEAE659737EA232E37E0332EA22EB12C0E
:1023C00083E090E07C01EA1AFB0A6796FFAEEEAE6E
:1023D0006797F501E095F0956996FFAFEEAF6997C5
:1023E0006414750409F4D5C2F10147818085542F26
:1023F000482F6A147B0490F4F301EE0FFF1F6596DB
:10240000CEACDFAC6597EC0DFD1D518340833FEFF3
:10241000631A730A42E0240E311CE2CF6A167B066F
:10242000D0F570E060E060FC1FC0F301EA19FB0921
:10243000EE0FFF1FEC7FF3702B96EEACFFAC2B97EB
:10244000EE0DFF1D00811181228133812227332768
:10245000BA0155274427402B512B622B732B408305
:10246000518362837383D3CF6996EEADFFAD6997D5
:10247000E60DF71DEE0FFF1FEC7FF3702B96CEAC31
:10248000DFAC2B97EC0DFD1D008111812281338182
:1024900000271127E0CFF301E370FF276A01F12C39
:1024A000E12C00E010E09801CDAEDEAEEFAE21965B
:1024B000FFAE219722960FAF229723961FAF239747
:1024C00024962FAF249725963FAF2597309779F51F
:1024D000F301EA1BFB0BEE0FFF1FE87FF770E80D1F
:1024E000F91DD0802896DFAE2897C180D280E38086
:1024F000F48015812DAD3EAD40E050E060E070E02D
:1025000080E090E000E30E948D1E28960FAD289792
:10251000202B20833C2931834D2942835E2953831C
:10252000F62AF482172B15838683978370CFE130C8
:10253000F10579F5EA1BFB0BE60DF71DEE0FFF1F0A
:10254000E87FF770E80DF91D108128961FAF2897D6
:10255000C180D280E380F68017812DAD3EAD40E092
:1025600050E060E070E080E090E000E20E948D1EAC
:1025700028960FAD2897202B20833C2931834D29A5
:102580004283E52AE382648375838F298683912BB6
:10259000CCCFE230F10561F5EA1BFB0BE60DF71D30
:1025A000EE0FFF1FE87FF770E80DF91D10812896E8
:1025B0001FAF2897C180D480E580F68017812DADAC
:1025C0003EAD40E050E060E070E080E090E000E18F
:1025D0000E948D1E28960FAD2897202B20833C2922
:1025E000318342835383D62AD482E72AE582CDCF32
:1025F0006796EEADFFAD6797E60DF71DEE0FFF1F77
:10260000E87FF770E80DF91D1DAD10832EAD218315
:10261000FECEC801019763E070E0803D974030F541
:1026200020917907C301800F911F62E070E02817A5
:102630001906E0F0C80123E0969587952A95E1F701
:10264000980127703327232BA1F4039690938D05CF
:1026500080938C0580918C0590918D05E7EAF7E0D9
:102660008130B1E09B0738F064E070E081E090E0F9
:102670008FCB0496EBCF31969F01275A374028170E
:10268000390710F41082F7CF91E09093A807835098
:102690008093A907A0907707B090780770E060E07A
:1026A00020E0C12CD12C7601C39416012701022E03
:1026B00004C0220C331C441C551C0A94D2F7FB01A5
:1026C00043E0F695E7954A95E1F7E655F84F3081F6
:1026D000A301A3E056954795AA95E1F74F715527B9
:1026E0004A0D5B1DDA014C9150E0B62DB77002C067
:1026F00055954795BA95E2F7822D40FF0FC0832B81
:1027000080832F5F283009F420E0EFEF6E1A7E0AF5
:102710006F5F7F4F0617170741F6D6CB809538239A
:102720003083EFCFC801019763E070E0803D9740B0
:1027300030F520917F07C301800F911F62E070E0A8
:1027400028171906E0F0C80133E0969587953A9569
:10275000E1F7980127703327232BA1F40396909378
:102760008D0580938C0580918C0590918D05E7EA0D
:10277000F7E0813021E0920738F064E070E082E019
:1027800090E006CB0496EBCF31969F01275A374055
:102790002817390710F41082F7CF92E09093A8071A
:1027A00083508093A90760917D0770917E0750E068
:1027B00040E0B12CC12CD12C7601C3941601270125
:1027C0000B2C04C0220C331C441C551C0A94D2F759
:1027D000FA0183E0F695E7958A95E1F7E655F84F1B
:1027E000A080930193E0369527959A95E1F7260FFF
:1027F000372F311DD9012C9130E0B62DB77002C0B2
:1028000035952795BA95E2F7822D20FF10C08A29C9
:102810008083B394E8E0BE1201C0B12CFFEF6F1AC1
:102820007F0A4F5F5F4F0417150741F64DCB809528
:10283000A822A082EECFC801880F991F039690931B
:102840008D0580938C05E7EAF7E0DF0111969D0185
:10285000275A37402817390710F41C92F7CF94E015
:102860009093A80783508093A907660C771CA091CA
:102870007A07B0917B07A60DB71D0150110932965A
:102880000F3F100709F420CB8C9111969C91119762
:10289000129691838283F1CF01153FEF130729F040
:1028A00063E070E00115110549F4809179078150CA
:1028B000990B8615970528F462E070E085E090E0BA
:1028C00067CA41E001151F4F09F040E060E0C30115
:1028D0000E94CB0AF9CA9801E3E036952795EA955C
:1028E000E1F7822FA80147705527452B11F081E0B1
:1028F000820F980121503109203B374020F49091FC
:10290000AD07981729F063E070E08FE090E040CACF
:1029100020917907C301800F911F2817190618F419
:1029200062E070E0F2CF86E090E090938D058093B6
:102930008C058FE08093A8077092A9076092AA0780
:102940001093AB070093AC07F12CE12CD12CF701CD
:1029500073E0F695E7957A95E1F7E955F84F4781E9
:1029600050E00D2C02C0559547950A94E2F741704E
:1029700060E0C701860D971D0E94CB0AD394A8E0A2
:10298000DA1201C0D12CBFEFEB1AFB0AE016F106F8
:10299000F1F6E0908C05F0908D0587010E5F1F4FDA
:1029A00010938D0500938C050E94060BF701E955E5
:1029B000F84F908381832996CFAC2997C7FC12C02A
:1029C00061E08C2D0E94C10280918E0590918F054F
:1029D0008230910538F0880F991F880F991F05974D
:1029E0000197F1F72796AEADBFAD2797ED91FC911A
:1029F00011970280F381E02DA80167EA77E0CD010D
:102A000019952796AEADBFAD2797ED91FC91119723
:102A10000680F781E02DCD01199580918E0590916A
:102A20008F058230910538F0880F991F880F991F04
:102A300005970197F1F72996CFAC2997C7FE02C0F9
:102A40000C940E0D60E08C2D0E94C1020C940E0DB2
:102A5000811165C0C090AC07D090AD070E94F7040B
:102A6000009709F45CC0E816F90608F058C0DC24A9
:102A7000CD24DC24C816D90608F051C0CE14DF04DA
:102A800008F44DC0470162EBA62E67E0B62E10E0B9
:102A900000E0B40180E00E94B8099C01200F311FC2
:102AA000255F3F4F2130314098F4892B59F0A50123
:102AB000B40180E00E94CA09009721F0A80EB91E57
:102AC000080F191FC40101967401C816D90628F50C
:102AD000C8010B9690938D0580938C0583E48093B9
:102AE000A8078EE78093A907F092AA07E092AB07A8
:102AF00080918A0790918B0720918C0730918D07E8
:102B00003093AC072093AD079093AE078093AF0747
:102B10001093B0070093B107D7C94C01BACF83E037
:102B200090E090938D0580938C0583E48093A807B3
:102B300081E878C0F5E16F16710408F06AC0C3013E
:102B4000880F991F860D971DABEAB7E08E010F5FC6
:102B50001F4FF8019F01201B310B2817390718F46C
:102B60002D912193F7CFB12CA12C412CD12CC12C2C
:102B70004BE0E42EF12C6A147B0441F1D8013C9027
:102B800011968C90119712968C91982C882EB401E6
:102B9000832D0E94B809009791F08E0D9F1D813002
:102BA0009140A0F4A7014955584FB401832D0E94CC
:102BB000CA09009721F0E80EF91EC80ED91E0D5F54
:102BC0001F4F4A2CF50131965F01D5CFF0928D054C
:102BD000E0928C0584E48093A8078EE78093A90790
:102BE0001092AA074092AB0780918A0790918B07B9
:102BF00020918C0730918D073093AC072093AD075F
:102C00009093AE078093AF07D092B007C092B10700
:102C10005BC983E090E090938D0580938C05D09202
:102C2000A80782E88093A9074FC90091AD071091CA
:102C3000AE07102701271027093F110548F083E050
:102C400090E090938D0580938C05D092A80770CF6B
:102C5000B7010E948909282FCB01009751F1253136
:102C600040F530E049E0429FF001439FF00D112410
:102C7000EF5EFB4FCC20C1F020852223E1F020172E
:102C8000110609F0C0F40190F081E02D6FEA77E0C1
:102C900019958EE723E030E030938D0520938C0565
:102CA00092E49093A807BECF0280F381E02D19959E
:102CB000F0CF81E8EFCF82E8EDCFD092A8078EE782
:102CC0008093A90781E2E1E6F5E0AE014F5F5F4F37
:102CD000DA0101900D928A95E1F7EAEAF7E0DA016C
:102CE000CD01841B950B6D919F01275A37406623B8
:102CF00011F06193F5CF2955384F4DEAD9014C9326
:102D0000FC01E955F84F2EED248305965CC8D0925E
:102D1000A8078EE78093A90786E0E2E8F5E0DE01E8
:102D2000119601900D928A95E1F7FE013196AAEA7B
:102D3000B7E081919D01275A3740882311F08D9388
:102D4000F8CF30938D0520938C05BEC888E480931E
:102D5000A8078EE78093A90789E08093AA07E2EC91
:102D6000F9E0ABEAB7E08BEC99E021912D938E1757
:102D70009F07D9F772C8D092A80784E8B2E66B160D
:102D8000710409F485E88093A90783E090E01BC8EB
:102D9000D092A807F7CF81E08093920777C80F936E
:102DA0001F93CF93DF938B01FC01FE5F20812223D1
:102DB00051F19C012F5F3D4F22503E4FD9012D9183
:102DC0003C912F37310510F02EE730E0622FE801FB
:102DD00028834081442311F08F5F9D4FFC01D8016F
:102DE00080E0861790F49081329611969C9311970B
:102DF000AF0142505109EA01998112969C931297B2
:102E00008F5F1296EECF9C01D7CF220F331F2F5F1B
:102E10003F4F2D3F310579F04DEF50E0421B530BF2
:102E200070E060E0C801820F931FDF91CF911F9186
:102E30000F910C941820DF91CF911F910F9108955D
:102E40000C94861F0C94861F0C94861F0F931F935F
:102E5000CF93DF93CDB7DEB7C150D1400FB6F89412
:102E6000DEBF0FBECDBF8C01FB0140814F3708F0A4
:102E70004EE750E0C050DF4F59834883C050D140E7
:102E80006F5F7F4FCE0101960E940F20C050DF4F31
:102E9000E881F981C050D14081E090E08C0F9D1F06
:102EA000E80FF91F108281E091E0FE013196D80110
:102EB00001900D920197E1F7CF5FDE4F0FB6F894C6
:102EC000DEBF0FBECDBFDF91CF911F910F9108954F
:102ED0000F931F93CF93DF93CDB7DEB7C150D1408F
:102EE0000FB6F894DEBF0FBECDBF8C01FB01408151
:102EF0004F3708F04EE750E0C050DF4F598348830A
:102F0000C050D1406F5F7F4FCE0101960E940F20CD
:102F1000C050DF4FE881F981C050D14081E090E09E
:102F20008C0F9D1FE80FF91F1082F801EF5FFE4F15
:102F300081E08083D801AE5FBE4F81E091E0FE0169
:102F4000319601900D920197E1F7CF5FDE4F0FB6FA
:102F5000F894DEBF0FBECDBFDF91CF911F910F91CF
:102F60000895FF920F931F93CF93DF938B01FC0182
:102F7000EF5FFE4F2081222319F19C012E5F3E4F0F
:102F800021503F4FD901CD91DC91CF37D10510F0C1
:102F9000CEE7D0E0FC2ED801CC93C11113C04EE790
:102FA00050E04C1B5D0BCE01019670E060E0800F9D
:102FB000911FDF91CF911F910F91FF900C941820DA
:102FC0009C01DECF2081BC01222311F06E5F7E4F79
:102FD000AE01C80101960E940F208EE7F812DFCFE4
:102FE000DF91CF911F910F91FF9008951F920F9243
:102FF0000FB60F9211242F933F938F939F93AF930C
:10300000BF9380919D0790919E07A0919F07B091DB
:10301000A00730919C0723E0230F2D3758F5019628
:10302000A11DB11D20939C0780939D0790939E073F
:10303000A0939F07B093A0078091A1079091A2074A
:10304000A091A307B091A4070196A11DB11D809383
:10305000A1079093A207A093A307B093A407BF91E1
:10306000AF919F918F913F912F910F900FBE0F9035
:103070001F90189526E8230F0296A11DB11DD2CFEF
:103080001F920F920FB60F9211240BB60F922F932F
:103090003F934F935F936F937F938F939F93AF93E0
:1030A000BF93EF93FF9387EA98E00E94EC03FF91B0
:1030B000EF91BF91AF919F918F917F916F915F91B0
:1030C0004F913F912F910F900BBE0F900FBE0F901D
:1030D0001F9018951F920F920FB60F9211240BB6E6
:1030E0000F922F938F939F93EF93FF93E091B708E5
:1030F000F091B8088081E091BD08F091BE0882FD92
:103100001DC090818091C0088F5F8F732091C1088E
:10311000821741F0E091C008F0E0E955F74F958F34
:103120008093C008FF91EF919F918F912F910F9005
:103130000BBE0F900FBE0F901F9018958081F2CF9D
:103140001092AA081092A90888EE93E0A0E0B0E0DF
:103150008093AB089093AC08A093AD08B093AE08F1
:103160008CE395E09093A8088093A70885EC90E005
:103170009093B4088093B30884EC90E09093B608E1
:103180008093B50880EC90E09093B8088093B708DE
:1031900081EC90E09093BA088093B90882EC90E0BB
:1031A0009093BC088093BB0886EC90E09093BE0897
:1031B0008093BD081092C0081092C1081092C208F6
:1031C0001092C3080E94FE01A2ECB9E090E080E0FA
:1031D00041E2FC013E9621E030E08630910510F49A
:1031E00030E020E0E20FF31F40935700E491ED93AD
:1031F00001968930910569F70895CF93DF93CDB794
:10320000DEB764970FB6F894DEBF0FBECDBF7894DB
:1032100084B5826084BD84B5816084BD85B58260DB
:1032200085BD85B5816085BD80916E00816080938C
:103230006E001092810080918100826080938100F5
:103240008091810081608093810080918000816005
:10325000809380008091B10084608093B100809160
:10326000B00081608093B000809191008260809373
:1032700091008091910081608093910080919000F5
:103280008160809390008091A10082608093A10072
:103290008091A10081608093A1008091A000816055
:1032A0008093A00080912101826080932101809110
:1032B00021018160809321018091200181608093B0
:1032C000200180917A00846080937A0080917A0056
:1032D000826080937A0080917A00816080937A0086
:1032E00080917A00806880937A001092C1002091CA
:1032F000C0093091C1093A8B298B8091BE09909108
:10330000BF099A8389839C8B8B8B1A8619861C82B2
:103310001B82912C812C712C612C512C412C312C35
:10332000212CA989BA89E985FA85AE17BF0709F466
:103330008FC0AB89BC8950968D919C915197EB8140
:10334000FC81E80FF91FFC83EB831296DC90129747
:103350001396EC9013971496FC90149715960C9175
:10336000159716961C9116971796BC91EB89FC89B8
:10337000C084B1842D2D3E2D4F2D502F612F7B2FDA
:103380008C2D9B2DA0E00E94DE1E09F054F4D12C60
:103390006DE2E62E71E3F72E01E010E0B0E0C12C03
:1033A000B12CDD82EF82FB860C871D87BE87CF861E
:1033B000B88A292D382D472D562D652D742D832D36
:1033C000922DA0E00E94DE1E31F1AD80BF80CB8443
:1033D000DC84ED84FE840F851889292D382D472D36
:1033E000562D652D742D832D922D0E942E1ED22ECA
:1033F000E32EF42E052F162FB72FF82FE92F9A2C36
:103400008B2C7C2C6C845D844E843F842888A0E0C7
:103410000E94DE1EA1F429853A852F5F3F4F3A872F
:1034200029878B899C8942969C8B8B8B9D808F8072
:103430007B846C845D844E843F84288872CFDD82D7
:10344000EF82FB860C871D87BE87FF87E88BBDCF89
:10345000292D382D472D562D652D742D832D922D18
:10346000A0E00E94DE1E59F4912C4DE2842E51E31F
:10347000752E66246394512C412C312C212C909272
:103480000002809201027092020260920302509246
:103490000402409205023092060220920702AB819C
:1034A000BC818FEF9FEFA115E0E4BE0730F4CD01A2
:1034B000880F991F009709F4A3C00E94EA1E9E83FB
:1034C0008D8390938907809388072B813C812115F8
:1034D00080E2380708F097C0C901880F991F880F4C
:1034E000991F009709F492C00E94EA1E98878F8363
:1034F00090938F0780938E07AB81BC81B093910727
:10350000A09390071C821B821A8A198AE985FA8582
:103510002B813C81E217F30709F48CC0A981BA81A1
:103520001296DC9012971396EC9013971496FC90D9
:10353000149715960C91159716961C911697179639
:10354000BC91E981FA81C084B1842D2D3E2D4F2D8F
:10355000502F612F7B2F8C2D9B2DA0E00E94DE1E13
:1035600009F044F4292D382D472D562D652D742D45
:10357000832D922DA92CB82CC72CD62CE52CF42CFD
:10358000032D122D0E94301EB22EA32E742F652FF4
:10359000A981BA8150964D915C918A01000F111F4B
:1035A000E988FA88EE0CFF1CC988DA88CC0CDD1C8F
:1035B000CC0CDD1C90E080E00817190751F1A981BF
:1035C000BA811E96ED91FC91E80FF91F208131819F
:1035D000F701E80FF91FAD81BE81EA0FFB1F3183B0
:1035E0002083FC01EE0FFF1FEC0DFD1D2F813885A0
:1035F000E20FF31FB082A182728363830296DCCF55
:1036000081E090E05ACF8FEF9FEF6ECF81E090E0A6
:103610006BCF89899A89840F951F9A8B898BAB818F
:10362000BC811196BC83AB83E981FA817296FA83DF
:10363000E9836CCF81E08093090280930A021092A3
:103640009207809308029FB7F89440919D0750918C
:103650009E0760919F077091A0079FBFE091B708F8
:10366000F091B80892E09083E091B308F091B4082B
:103670001082E091B508F091B60890E19083109225
:10368000BF08E091BB08F091BC0896E09083E09100
:10369000B908F091BA08908190619083E091B908DF
:1036A000F091BA08908198609083E091B908F09108
:1036B000BA08908190689083E091B908F091BA08B7
:1036C00090819F7D908327EA38E030939405209382
:1036D00093059FEF909392052EEE32E03093910583
:1036E0002093900521E43AE030938F0520938E05D6
:1036F00080936D0784E38093700784E18093730760
:103700008093760788E38093790790E290937C0713
:1037100080937F0787E090E00E94EA1E90937807ED
:1037200080937707009709F451C0DC01E7E01D9210
:10373000EA95E9F788E690E00E94EA1E90936F0709
:1037400080936E07009709F441C028E6DC011D92C2
:103750002A95E9F780E590E00E94EA1E90937207AF
:1037600080937107009791F120E5FC0111922A9551
:10377000E9F780EA90E00E94EA1E90937507809333
:103780007407009719F120EADC011D922A95E9F7E8
:1037900087E090E00E94EA1E90937E0780937D0769
:1037A0000097A1F0FC0127E011922A95E9F780E447
:1037B00090E00E94EA1E90937B0780937A0700971F
:1037C00029F020E4DC011D922A95E9F71A8219827A
:1037D00009811A81000F111F0350194FF8018081D0
:1037E0009181892B49F481E090E00E94EA1ED80182
:1037F0008D939C93FC01108229813A812F5F3F4F6A
:103800003A8329832833310519F780916E07909107
:103810006F079A838983EDEBF6E090E080E02191D9
:103820003191232B41F4DF01129729813A81280F2E
:10383000391F2D933C9302968034910581F710E057
:1038400000E0C801880F991FDC01A35BB94F7D011F
:103850008D919C91892B49F481E090E00E94EA1EB1
:10386000F70191838083DC011C920F5F1F4F0833A7
:10387000110539F720917A0730917B07EDE0F6E0EA
:1038800090E080E041915191452B39F4DF0112978E
:10389000A901480F591F4D935C93029680349105FE
:1038A00089F7E5EEF5E090E080E029813A81205C3F
:1038B0003F4F3A83298321913191232B41F4DF013A
:1038C000129729813A81280F391F2D933C93029634
:1038D0008832910581F74091710750917207EDEBA5
:1038E000F5E090E080E021913191232B59F4DF0144
:1038F00012979C01220F331F220F331F240F351FF5
:103900002D933C9301968431910569F7409174079A
:1039100050917507E5E9F5E090E080E02191319163
:10392000232B61F4DF0112979C0113E0220F331F58
:103930001A95E1F7240F351F2D933C93019684319E
:10394000910561F72091000230910102409102023D
:10395000509103026091040270910502E8EEAE2ED0
:10396000F3E0BF2EC12CD12CE12CF12C00E010E0B3
:1039700080910602909107020E94301E20939407C6
:103980003093950740939607509397070E944D03F5
:10399000609398077093990780939A0790939B0779
:1039A000992493940E944D030091980710919907D0
:1039B00020919A0730919B07601B710B820B930B30
:1039C00000919407109195072091960730919707E1
:1039D000601771078207930708F4EEC080910A020E
:1039E000811102C01092920790920A0290920902ED
:1039F000809192078823A9F080910802882371F0B2
:103A00000E94FE010E945A0910928A0710928B07A9
:103A100010928C0710928D07109208020E945A098A
:103A20005BC0909208021A8219828091900790914F
:103A30009107A981BA81A817B907D8F5E0918E0737
:103A4000F0918F07CD01880F991F880F991FE80FFC
:103A5000F91F2081318142815381211531054105B2
:103A6000510571F060918A0770918B0780918C07E6
:103A700090918D070E94F51D672B682B692B99F497
:103A8000E0918807F091890789819A81880F991FB1
:103A9000E80FF91F80819181DC01ED91FC91048098
:103AA000F581E02D1995E981FA813196FA83E98350
:103AB000BCCF80918A0790918B07A0918C07B09121
:103AC0008D070196A11DB11D80938A0790938B07E6
:103AD000A0938C07B0938D0780910802813091F5F7
:103AE0002091800730918107409182075091830790
:103AF0006091840770918507809186079091870770
:103B0000A0900002B0900102C0900202D090030287
:103B1000E0900402F0900502009106021091070265
:103B20000E94C31E20938007309381074093820731
:103B3000509383076093840770938507809386076B
:103B4000909387070E94310B80919307811118C0D1
:103B5000909293070E944D0300919407109195074E
:103B60002091960730919707601B710B820B930B86
:103B7000609398077093990780939A0790939B0797
:103B80008091980790919907A0919A07B0919B070F
:103B9000409194075091950760919607709197070F
:103BA000840F951FA61FB71F8093980790939907BE
:103BB000A0939A07B0939B070E944D03009198072A
:103BC0001091990720919A0730919B07601B710B08
:103BD000820B930B603177428105910510F00E94B2
:103BE000310B88950E947B04DDCEA1E21A2EAA1B20
:103BF000BB1BFD010DC0AA1FBB1FEE1FFF1FA2179D
:103C0000B307E407F50720F0A21BB30BE40BF50B99
:103C1000661F771F881F991F1A9469F76095709522
:103C2000809590959B01AC01BD01CF010895EE0FE9
:103C3000FF1F881F8BBF0790F691E02D1994A29F5C
:103C4000B001B39FC001A39F700D811D1124911D70
:103C5000B29F700D811D1124911D0895689401C0BB
:103C6000E8948F929F92CF93DF930E943C1EDF9146
:103C7000CF919F908F90089588249924F401E401B6
:103C8000B0E49F93AA279A158B049C04ED05FE05CA
:103C9000CF05D007A10798F4AD2FDC2FCF2FFE2F33
:103CA000E92D982C892E982F872F762F652F542F4A
:103CB000432F322F2227B85031F7BF9127C01B2E38
:103CC000BF91BB27220F331F441F551F661F771F4D
:103CD000881F991F881C991CEE1FFF1FCC1FDD1F1A
:103CE000AA1FBB1F8A149B04EC05FD05CE05DF054A
:103CF000A007B10748F08A189B08EC09FD09CE0916
:103D0000DF09A00BB10B21601A94E1F62EF49401A7
:103D1000AF01BE01CD01000C0895002E083090F0D7
:103D2000982F872F762F652F542F432F322F22273E
:103D30000850F4CF220F331F441F551F661F771FF3
:103D4000881F991F0A95B2F7002D089597FD1094CA
:103D5000002E083098F00850232F342F452F562F6F
:103D6000672F782F892F912DF4CF159497958795EC
:103D70007795679557954795379527950A95AAF7AB
:103D80001124002D08952A0D3B1D4C1D5D1D6E1D37
:103D90007F1D801F911F08952A193B094C095D0959
:103DA0006E097F09800B910B08952A153B054C0580
:103DB0005D056E057F058007910708950024A7FD26
:103DC00000942A17300540055005600570058005F0
:103DD000900508950F931F93CF93DF938230910541
:103DE00010F482E090E0E091CD09F091CE0930E04E
:103DF00020E0B0E0A0E0309799F42115310509F4F6
:103E00004AC0281B390B24303105D8F58A819B81A3
:103E10006115710589F1FB0193838283FE0111C055
:103E2000408151810281138148175907E0F04817FA
:103E3000590799F4109761F012960C931297139604
:103E40001C933296CF01DF91CF911F910F9108956E
:103E50000093CD091093CE09F4CF2115310551F00F
:103E60004217530738F0A901DB019A01BD01DF01B8
:103E7000F801C1CFEF01F9CF9093CE098093CD091E
:103E8000CDCFFE01E20FF31F8193919322503109B0
:103E900039832883D7CF2091CB093091CC09232BAC
:103EA00041F420910D0230910E023093CC09209301
:103EB000CB0920910B0230910C022115310541F400
:103EC0002DB73EB740910F0250911002241B350BC5
:103ED000E091CB09F091CC09E217F307A0F42E1B77
:103EE0003F0B2817390778F0AC014E5F5F4F24175E
:103EF000350748F04E0F5F1F5093CC094093CB0914
:103F0000819391939FCFF0E0E0E09CCFCF93DF933C
:103F10000097E9F0FC01329713821282A091CD093B
:103F2000B091CE09ED0130E020E01097A1F420819E
:103F30003181820F931F2091CB093091CC09281732
:103F4000390709F061C0F093CC09E093CB09DF9108
:103F5000CF910895EA01CE17DF07E8F54A815B812A
:103F60009E0141155105B1F7E901FB83EA834991AF
:103F70005991C40FD51FEC17FD0761F48081918121
:103F80000296840F951FE90199838883828193812A
:103F90009B838A83F0E0E0E012968D919C911397C9
:103FA0000097B9F52D913C911197CD010296820FA2
:103FB000931F2091CB093091CC092817390739F686
:103FC000309751F51092CE091092CD09B093CC09DB
:103FD000A093CB09BCCFD383C28340815181840F8E
:103FE000951FC817D90761F44E5F5F4F888199818B
:103FF000480F591F518340838A819B819383828319
:104000002115310509F0B0CFF093CE09E093CD0929
:104010009ECFFD01DC01C0CF13821282D7CFFB01FE
:10402000DC0102C001900D9241505040D8F7089534
:10403000DC0101C06D9341505040E0F70895F894C1
:02404000FFCFB0
:10404200002D3101000000000101010000CF0980B4
:104052000000C0C101C30302C2C60607C705C5C42A
:1040620004CC0C0DCD0FCFCE0E0ACACB0BC909085A
:10407200C8D81819D91BDBDA1A1EDEDF1FDD1D1C9A
:10408200DC14D4D515D71716D6D21213D311D1D02A
:1040920010F03031F133F3F23236F6F737F53534CA
:1040A200F43CFCFD3DFF3F3EFEFA3A3BFB39F9F89A
:1040B2003828E8E929EB2B2AEAEE2E2FEF2DEDEC3A
:1040C2002CE42425E527E7E62622E2E323E121206A
:1040D200E0A06061A163A3A26266A6A767A565646A
:1040E200A46CACAD6DAF6F6EAEAA6A6BAB69A9A8DA
:1040F2006878B8B979BB7B7ABABE7E7FBF7DBDBC1A
:104102007CB47475B577B7B67672B2B373B17170A9
:10411200B050909151935352929656579755959409
:10412200549C5C5D9D5F9F9E5E5A9A9B5B99595819
:1041320098884849894B8B8A4A4E8E8F4F8D4D4CB9
:104142008C448485458747468682424383418180E9
:104152004000C1814001C0804101C0804100C18155
:104162004001C0804100C1814000C1814001C08046
:104172004101C0804100C1814000C1814001C08035
:104182004100C1814001C0804101C0804100C18124
:104192004001C0804100C1814000C1814001C08016
:1041A2004100C1814001C0804101C0804100C18104
:1041B2004000C1814001C0804101C0804100C181F5
:1041C2004001C0804100C1814000C1814001C080E6
:1041D2004101C0804100C1814000C1814001C080D5
:1041E2004100C1814001C0804101C0804100C181C4
:1041F2004000C1814001C0804101C0804100C181B5
:104202004001C0804100C1814000C1814001C080A5
:104212004100C1814001C0804101C0804100C18193
:104222004001C0804100C1814000C1814001C08085
:104232004101C0804100C1814000C1814001C08074
:104242004100C1814001C0804101C0804100C18163
:1042520040BF0A5D075109B20A0181077E07740750
:104262006B07016307600753074A07013F071607F9
:1042720032072707021C0719070907FE0602E9068B
:104282003505D606C70604B206AF069C068D06049F
:104292006306E4053706140608EA05E705B805953E
:1042A200050880057D056A055005043B0538052291
:1042B200050805046307600753074A07011C07192D
:1042C200070907FE0602B206AF069C068D0604EA3F
:1042D20005E705B8059505086306E40537061406E3
:1042E200086306E40537061406086306E405370684
:1042F2001406086306E40537061406086817AD0AB3
:10430200B11726177FF109ED09CF16500AFD0000FB
:10431200000000000000000000000000000000009B
:10432200000000000000000000000000000000008B
:10433200000000000000000000000000000000007B
:10434200000000000000000000000000000000006B
:104352000000BF04241700000000AC0422179107DC
:10436200BC04B904B804B804AD0400000000C004E1
:104372002017F40475037203000000000E04780392
:10438200A5035B04D603B403C8035441534B300066
:104392005245533000504C4300434F4E464947303C
:1043A2000063386539316161396432363537303509
:1043B20030383536613535613164326235353639FA
:0843C2003600342E322E3700C4
:00000001FF
