:100000000C94A3010C94D4010C94D4010C94D4014D
:100010000C94D4010C94D4010C94D4010C94D4010C
:100020000C94D4010C94D4010C94D4010C94D401FC
:100030000C94D4010C94D4010C94D4010C94D401EC
:100040000C94D4010C94D4010C94D4010C94D401DC
:100050000C94D4010C94D4010C94D4010C94A716E4
:100060000C94D4010C941B170C94F1160C94D4012D
:100070000C94D4010C94D4010C94D4010C94D401AC
:100080000C94D4010C94D4010C94D4010C94D4019C
:100090000C94D4010C94D4010C94D4010C94D4018C
:1000A0000C94D4010C94D4010C94D4010C94D4017C
:1000B0000C94D4010C94D4010C94D4010C94D4016C
:1000C0000C94D4010C94D4010C94D4010C94D4015C
:1000D0000C94D4010C94D4010C94D4010C94D4014C
:1000E0000C94D4010C94ED020C9450070C949607D8
:1000F0000C94EE070C94E5070C945B050C94F0024D
:100100000C940F060C9403090C9403080C9432060B
:100110000C9492020C948B020C9407070C94B80276
:100120000C9465090C94E4050C94A0080C947807D1
:100130000C94DD060C9490070C9466050C94A202B6
:100140000C949C050C949C020C94F7050C941F03D2
:100150000C9498020C94B4020C9416070C9441076A
:100160000C94D7070C946A050C9467050C948803CB
:100170000C94A1070C9451170C9482050C942E0337
:100180000C942C070C94B0020C94F2020C9487028D
:100190000C94F8070C9463070C9460090C94621695
:1001A0000C94D5150C94CA050C946D050C9482150D
:1001B0000C947F040C94C4070C946E050C9471028B
:1001C0000C9450030C94D5030C94DD070C948F020F
:1001D0000C94D7150C9426040C9493070C94B20538
:1001E0000C945E060C94D3150C94AF050C94AC07DC
:1001F0000C94A4080C94AA020C94B5050C948302E8
:100200000C94CD070C946C020C9464060C94FB07C0
:100210000C94A6020C9461060C94B9070C94720914
:100220000C94BE020C9483070C94C2020C94FA0541
:100230000C9429070C9442030C94DA070C948E0654
:100240000C94B1060C9419164009000043090000F3
:100250004609000048020300000022002500280093
:100260002B002E00310034000201000005010801BE
:100270000B0105050505070508080808020202022A
:100280000A0A080804040404010101010101010132
:100290000303030303030303040707070C0C0C0CFD
:1002A0000C0C0C0C020202020606060606060606E6
:1002B0000B0B0B0B0B0B0B0B010210202008081073
:1002C00020401020408002010201080402010102C6
:1002D000040810204080804020100804020180049F
:1002E00002018040201008040201080402010102FA
:1002F0000408102040800102040810204080000003
:100300000A0B02090C0D0E0807030401000000008F
:1003100000000000000000000000000000000000DD
:10032000000000000000000000001211100000009A
:1003300000000000000000000000000000000000BD
:1003400000000000511711241FBECFEFDFEFDEBF0A
:10035000CDBF00E00CBF15E0A0E0B2E0E0E8FDE3B7
:1003600000E00BBF02C007900D92A038B107D9F78B
:1003700029E0A0E8B5E001C01D92A537B207E1F77A
:1003800011E0C3EAD1E000E006C021970109802F07
:10039000FE010E94C81CC23AD10780E00807A9F7F5
:1003A0000E94AE170C94BE1E0C94000040919D0755
:1003B00050919E07EFE9F7E081E090E0423051056F
:1003C00030F410929E0710929D070895C901218173
:1003D00021939C012F5F3F4F42175307B9F790932A
:1003E0009E0780939D070895ECE3F9E086E295E08F
:1003F0009183808382E195E09383828314821582C6
:10040000168217821086118612861386148681E062
:100410008587168617862EE339E033A322A322E4CC
:1004200035E0318B208B128A9DE2938B91E3948B84
:10043000858B168A178A108E118E81E090E0A0E0DD
:10044000B0E0828F938FA48FB58F8EE599E0978F60
:10045000868F81E090E091A380A328E435E035A366
:1004600024A32DE435E037A326A32CE439E031A7FB
:1004700020A793A782A70895282F30E0F901E25022
:10048000FD4F9491F901E854FD4F44912E583D4F92
:10049000F9012491222309F435C0992311F19150D7
:1004A0009231F8F4E92FF0E08827E65AFD4F8F4F9C
:1004B0000C94C81C8B028F026C02830287027102AB
:1004C000920298029C02A202A602AA02B002B40200
:1004D0007102B802BE02C202809180008F778093C1
:1004E0008000E22FF0E0EE0FFF1FE85AFD4FA591CC
:1004F000B4918FB7F894EC91611148C040954E23A8
:100500004C938FBF0895809180008F7DE8CF8091BC
:100510008000877FE4CF84B58F7784BDE2CF84B538
:100520008F7DFBCF8091B0008F778093B000D9CFC3
:100530008091B0008F7DF9CF809190008F7780936C
:100540009000CFCF809190008F7DF9CF8091900067
:10055000877FF5CF8091A0008F778093A000C1CFD7
:100560008091A0008F7DF9CF8091A000877FF5CF8B
:10057000809120018F7780932001B3CF809120015B
:100580008F7DF9CF80912001877FF5CF4E2BB8CF9B
:100590003FB7F8948091990790919A07A0919B0793
:1005A000B0919C0726B5A89B05C02F3F19F0019676
:1005B000A11DB11D3FBFBA2FA92F982F8827BC01BD
:1005C000CD01620F711D811D911D42E0660F771FE5
:1005D000881F991F4A95D1F7089581E090E008950A
:1005E00084960895AF92BF92CF92DF92EF92FF92DE
:1005F0000F931F93CF93DF936C017B018B01040F4B
:10060000151FEB015E01AE18BF08C017D10759F0E6
:100610006991D601ED91FC910190F081E02DC60128
:100620001995892B79F7C501DF91CF911F910F9112
:10063000FF90EF90DF90CF90BF90AF900895FC01B6
:10064000538D448D252F30E0842F90E0821B930B37
:10065000541710F0CF96089501970895FC01918DDD
:10066000828D981761F0A28DAE0FBF2FB11D5D96E0
:100670008C91928D9F5F9F73928F90E008958FEF82
:100680009FEF0895FC01918D828D981731F0828D36
:10069000E80FF11D858D90E008958FEF9FEF08958D
:1006A000FC01918D228D892F90E0805C9F4F821BF1
:1006B00091098F73992708958FE998E00E9450035C
:1006C00021E0892B09F420E0822F0895FC01A48DFC
:1006D000A80FB92FB11DA35ABF4F2C91848D90E064
:1006E00001968F739927848FA689B7892C93A08947
:1006F000B1898C91837080648C93938D848D9813D1
:1007000006C00288F389E02D80818F7D8083089563
:10071000EF92FF920F931F93CF93DF93EC0181E051
:10072000888F9B8D8C8D98131AC0E889F9898081F8
:1007300085FF15C09FB7F894EE89FF896083E8892B
:10074000F98980818370806480839FBF81E090E01D
:10075000DF91CF911F910F91FF90EF900895F62EAA
:100760000B8D10E00F5F1F4F0F731127E02E8C8D44
:100770008E110CC00FB607FCFACFE889F989808189
:1007800085FFF5CFCE010E946603F1CFEB8DEC0F14
:10079000FD2FF11DE35AFF4FF0829FB7F8940B8FA6
:1007A000EA89FB8980818062CFCFCF93DF93EC0110
:1007B000888D8823B9F0AA89BB89E889F9898C9149
:1007C00085FD03C0808186FD0DC00FB607FCF7CF05
:1007D0008C9185FFF2CF808185FFEDCFCE010E9405
:1007E0006603E9CFDF91CF91089580E090E0892BF7
:1007F00029F00E945C0381110E94000080E090E0DB
:10080000892B49F080E090E0892B29F00E940000BC
:1008100081110E94000080E090E0892B49F080E087
:1008200090E0892B29F00E94000081110E940000B5
:1008300080E090E0892B49F080E090E0892B29F05E
:100840000E94000081110C94000008950895FC019D
:10085000DB0111968C911197882331F012968C91BF
:1008600080831182128208958C91FACFDB01FA0104
:1008700011962C911197222361F012963C912181BF
:10088000222349F02281232BFC0120831182128232
:1008900008953C91F4CF2081F6CFFB0121812223E2
:1008A00039F02281FC013181311101C0208308958A
:1008B0002081F8CFDB01FA0111962C9111972223A8
:1008C00061F012963C912181222349F02281232359
:1008D000FC0120831182128208953C91F4CF208183
:1008E000F6CFFB012181222341F0228131E0232731
:1008F000FC0120831182128208952081F7CFCF92CC
:10090000DF92EF92FF920F931F93CF93DF93CDB7B8
:10091000DEB765970FB6F894DEBF0FBECDBF8C0172
:100920007C0182E0E80EF11C680185E0C80ED11C54
:10093000A701B601CE0101960E945A04085F1F4F1D
:10094000BE016F5F7F4FC8010E944D04A601B70131
:10095000CE0101960E943604BE016F5F7F4FC80131
:100960000E944D04B701CE0101960E942704BE01EA
:100970006F5F7F4FCE0104960E947104BE016C5FD1
:100980007F4FC8010E944D04B701CE0107960E9417
:100990002704BE01695F7F4FCE010A960E94710451
:1009A000B601CE0101960E942704BE016F5F7F4F02
:1009B000CE0104960E947104AE01465F5F4FBE01F6
:1009C0006C5F7F4FCE010D960E943604BE01635FBF
:1009D0007F4FC8010E944D04B701CE0107960E94C7
:1009E0002704BE01695F7F4FCE010A960E94710401
:1009F000B601CE0101960E942704BE016F5F7F4FB2
:100A0000CE0104960E947104AE01465F5F4FBE01A5
:100A10006C5F7F4FCE010D960E945A04BE01635F4A
:100A20007F4FC8010E944D04B601CE010A960E9474
:100A30002704BE01665F7F4FCE010D960E947104B0
:100A4000A701BE01635F7F4FCE0140960E945A040A
:100A5000B701CE0101960E942704BE016F5F7F4F50
:100A6000CE0104960E947104A601BE016C5F7F4F07
:100A7000CE0107960E945A04AE01405F5F4FBE014F
:100A8000695F7F4FCE0143960E943604BE016D5EC2
:100A90007F4FC8010E944D0465960FB6F894DEBFE3
:100AA0000FBECDBFDF91CF911F910F91FF90EF90BF
:100AB000DF90CF900895FB01108211821282138281
:100AC000FA0110821182128213820895089590E033
:100AD00080E0089590E080E00895089581E595E034
:100AE0000895282F86E592E0A0E0BB2730E0220F92
:100AF000331F820F931FA11DB11DABBFFC01879156
:100B000096910895CF93DF9300D01F92CDB7DEB7B3
:100B1000FB014081518162817381FC01248121119B
:100B200004C040835183628373830F900F900F90B2
:100B30000F90DF91CF910895FC018481882351F0BB
:100B400085819681A781B085FB0180839183A283F3
:100B5000B383089580819181A281B381F5CFFC0197
:100B600014820895FC0114820895CF93DF93FC0151
:100B7000EB0188819981AA81BB8121E0248385834F
:100B80009683A783B08780839183A283B383DF9109
:100B9000CF910895CF93DF9300D01F92CDB7DEB7EA
:100BA000FB014081518162817381FC01248121110B
:100BB00004C040835183628373830F900F900F9022
:100BC0000F90DF91CF910895FC018481882351F02B
:100BD00085819681A781B085FB0180839183A28363
:100BE000B383089580819181A281B381F5CFFC0107
:100BF00014820895CF93DF93FC01EB0188819981E2
:100C0000AA81BB8121E0248385839683A783B08753
:100C100080839183A283B383DF91CF910895FC01F8
:100C2000DB01808581111DC07C9111966C9111971B
:100C300012965C91129713964C91139714963C91CF
:100C4000149715962C91159716969C9116971796B2
:100C50008C9170836183528343833483258396838D
:100C600087830895FC01DB0180858823F1F071857D
:100C700062855385448535852685978580897C9353
:100C800011966C93119712965C93129713964C934E
:100C9000139714963C93149715962C9315971696C4
:100CA0009C93169717968C93089570816181528159
:100CB00043813481258196818781E1CFFC011086B3
:100CC0000895FC0110860895FC01DB017C911196CA
:100CD0006C91119712965C91129713964C91139701
:100CE00014963C91149715962C91159716969C91F5
:100CF000169717968C91A1E0A0877187628753871A
:100D00004487358726879787808B708361835283DA
:100D1000438334832583968387830895FC01DB0115
:100D2000808581111DC07C9111966C91119712964E
:100D30005C91129713964C91139714963C911497CB
:100D400015962C91159716969C91169717968C913F
:100D5000708361835283438334832583968387839F
:100D60000895FC01DB0180858823F1F0718562859F
:100D70005385448535852685978580897C93119692
:100D80006C93119712965C93129713964C9313974A
:100D900014963C93149715962C93159716969C933E
:100DA000169717968C9308957081618152814381C3
:100DB0003481258196818781E1CFFC01DB017C9123
:100DC00011966C91119712965C91129713964C9113
:100DD000139714963C91149715962C911597169687
:100DE0009C91169717968C91A1E0A08771876287D6
:100DF00053874487358726879787808B70836183E5
:100E00005283438334832583968387830895FC012B
:100E1000248121110AC0FB014081518162817381CB
:100E2000FC0140835183628373830895FC018481B4
:100E3000882351F085819681A781B085FB0180834D
:100E40009183A283B383089580819181A281B3812C
:100E5000F5CFFC0114820895CF93DF93FC01EB01E1
:100E600088819981AA81BB8121E02483858396832F
:100E7000A783B08780839183A283B383DF91CF91CF
:100E80000895FC01248121110AC0FB014081518198
:100E900062817381FC01408351836283738308956F
:100EA000FC018481882351F085819681A781B085DA
:100EB000FB0180839183A283B38308958081918114
:100EC000A281B381F5CFCF93DF93FC01EB01888141
:100ED0009981AA81BB8121E0248385839683A7839E
:100EE000B08780839183A283B383DF91CF910895EC
:100EF000FC012281211106C0FB0120813181FC010E
:100F0000318320830895FC018281882331F083811D
:100F10009481FB0191838083089580819181F9CF31
:100F2000FC0112820895FC0112820895FC01DB018C
:100F30008D919C9121E0228394838383918380838C
:100F40000895FC012281211106C0FB01208131811D
:100F5000FC01318320830895FC018281882331F0D4
:100F600083819481FB0191838083089580819181A5
:100F7000F9CFFC01DB018D919C9121E022839483C8
:100F80008383918380830895FC012181211104C012
:100F9000FB012081FC0120830895FC0181818823CD
:100FA00021F08281FB01808308958081FBCFFC01C9
:100FB00011820895FC0111820895FC01DB018C91DE
:100FC00091E09183828380830895FC012181211126
:100FD00004C0FB012081FC0120830895FC01818174
:100FE000882321F08281FB01808308958081FBCFDB
:100FF000FC0111820895FC01DB018C9191E0918349
:10100000828380830895FC018181882321F082817D
:10101000FB01808308958081FBCF90E080E0FC019C
:10102000EE0FFF1FEB50F94F0190F081E02D30974C
:1010300009F0108201968833910589F7E5EBF6E017
:1010400085EF96E0A191B191109711F01D921C923D
:101050008E179F07B9F7EEECF4E08EE095E0A191D2
:10106000B191109729F01D921D921D921C92139719
:101070008E179F07A1F708950F931F93882339F0C8
:1010800060E070E080E090E01F910F91089506E528
:1010900012E020E033272BBFF8010791169160176B
:1010A0007107B0F484E592E0A0E0BB27ABBFFC0180
:1010B00087919691660F771F660F771F680F791FCC
:1010C000FB0125913491FB0132968491B901DBCF6C
:1010D00060E070E0D8CF0E943C08672B59F0853162
:1010E00048F499E0899FF0011124EF5EFB4F808561
:1010F00090E0089590E080E008950F931F93CF93C0
:101100008A010E943C08E82FCB010097B1F0E5313D
:10111000A0F429E0E29FF0011124EF5EFB4FC085AF
:10112000CC2359F00480F581E02DB80119958C2F5E
:1011300090E0CF911F910F91089590E080E0F9CF5A
:101140009E5FFC0110820895EF92FF920F931F9310
:10115000CF93DF93CDB7DEB7CC5FD2400FB6F89414
:10116000DEBF0FBECDBFFB0130813F3708F03EE749
:10117000FB01BE016F5F7D4FDB0120E0231751F0C3
:10118000428151814527542745274D935D932F5F19
:101190003296F4CF30E0DE01119650E040E07D0160
:1011A0004217530748F4FB0101911191BF010D93C0
:1011B0001D934F5F5F4FF4CFD901AA0FBB1FAE0D38
:1011C000BF1D1D921C92DC01BE5F41E04C93C150DB
:1011D000DE4F39832883CF5FD140119680E092E0C3
:1011E000F70101900D920197E1F7C450DD4F0FB662
:1011F000F894DEBF0FBECDBFDF91CF911F910F914D
:10120000FF90EF900895EF92FF920F931F93CF936B
:10121000DF93CDB7DEB7CC5FD2400FB6F894DEBF18
:101220000FBECDBFFB0130813F3708F03EE7FB0129
:10123000BE016F5F7D4FDB0120E0231751F042813B
:1012400051814527542745274D935D932F5F329653
:10125000F4CF30E0DE01119650E040E07D0142170E
:10126000530748F4FB0101911191BF010D931D93A8
:101270004F5F5F4FF4CFA901440F551F4E0D5F1D07
:10128000FA0111821082C150DE4F39832883CF5F6B
:10129000D14020E032E0F701DC0101900D922150B5
:1012A0003040D9F7C450DD4F0FB6F894DEBF0FBE03
:1012B000CDBFDF91CF911F910F91FF90EF900895D7
:1012C0008F5F9E4FFC0110820895FC012181211146
:1012D00008C021E0FB013081311101C020E0FC0198
:1012E00020830895FC0181E0DB019C91911101C0F4
:1012F00080E091E091838283808308950F931F9310
:10130000582F577001E010E020E030E004C0000FDB
:10131000111F221F331F5A95D2F723E09695879508
:101320002A95E1F79927E0916F07F09170076623FE
:1013300021F0E0917507F0917607E80FF91F8081A1
:10134000442329F0082B00831F910F9108950095E5
:101350000823F9CF23E030E03093850520938405FE
:10136000EFE9F7E09091650790838058818362836D
:10137000089520919F07209530E0F901EF5EFC4F22
:10138000908190952F5E3D4FD9018C9140918405BD
:101390005091850542505109EFE9F7E031969F01E0
:1013A0002F5937402417350770F420819227292FB1
:1013B00030E0D901AF5EBC4F9C9198272F5E3D4F26
:1013C000D9018C91EBCF08952F923F924F925F926B
:1013D0006F927F928F929F92AF92BF92CF92DF9245
:1013E000EF92FF920F931F93CF93DF93CDB7DEB7AA
:1013F000C855D1090FB6F894DEBF0FBECDBF10E0BF
:1014000000E0F801EE0FFF1FEB50F94F0190F08163
:10141000E02D309749F041E08081811101C040E02A
:1014200060E0C8010E947E090F5F1F4F083311055D
:1014300041F7E0906607F090670705EB16E02F96FE
:101440001FAF0EAF2F978701005C1F4FF70125EBF1
:1014500036E0D9018D919D919D01009729F0DC0125
:101460008D919C919183808332960E171F0789F787
:10147000D12CC12CF601EE0FFF1FEB5BF94F019051
:10148000F081E02D309749F041E08081811101C069
:1014900040E061E0C6010E947E09BFEFCB1ADB0A83
:1014A000E8E3CE16D10431F745E056E0E09172074B
:1014B000F09173079F01205C3F4FDA018D919D9160
:1014C000AD01009729F0DC018D919C91918380837F
:1014D00032962E173F0789F7EDEDF5E06196FFAFE5
:1014E000EEAF6197F80108E6E00EF11C2DED35E056
:1014F000D9018D919D919D01009729F0DC018D917D
:101500009C91918380833296EE16FF0689F7E5EB76
:10151000F5E06396FFAFEEAF6397E0916907F09156
:101520006A079F01205B3F4F05EB15E0D8018D91C5
:101530009D918D01009749F0DC014D915D916D9178
:101540007C91408351836283738334962E173F07C7
:1015500069F7EDE8F5E02D96FFAFEEAF2D97E0913E
:101560006C07F0916D079F0120563F4F8DE895E085
:10157000DC01CD90DD90CD01C114D104F1F0D60194
:10158000EC901196FC90119712960C91129713966D
:101590001C91139714967C91149715966C9115973E
:1015A00016965C91169717964C91E082F182028311
:1015B000138374836583568347833896E217F30752
:1015C000B9F6F0906507C0908A052996CFAE2997A5
:1015D000C0908B05D0908C052796DFAECEAE2797B6
:1015E0002796AEADBFAD2797ED91FC911197008482
:1015F000F185E02DCD01199518161906BCF58091DD
:101600009D0790919E078F3F910509F078F52796E9
:10161000AEADBFAD2797ED91FC9111970284F38594
:10162000E02DCD01199520919D0730919E07A901CC
:101630004F5F5F4F50939E0740939D072156384F51
:10164000F90180832FB7F8948091950790919607C0
:10165000A0919707B09198072FBF80938005909332
:101660008105A0938205B0938305BACF40919D0771
:1016700050919E074115510509F487C080919F073D
:10168000F81619F00E94D601F1CF4230510508F446
:101690008AC18091A00709E0802E912CA12CB12C49
:1016A000833409F442C028F5813158F48F3008F0B2
:1016B0003EC18150863038F188248A94982C540198
:1016C00034C0813409F469C18234B1F7483051051E
:1016D00008F469C18090A5079090A60798248924F2
:1016E0009824B12CA12C1AE0810E911CA11CB11CD4
:1016F0001CC0893470F4863408F04FC1843409F476
:1017000024C18534C9F688E0882E912CA12CB12CF7
:101710000CC08A3409F441C108F42DC115E0812EB2
:10172000912CA12CB12C8B3439F631E08316930621
:10173000A104B10408F0A6CF81149104A104B1045E
:1017400029F084014815590508F031C12FB7F894E4
:101750008091950790919607A0919707B09198076F
:101760002FBF409180055091810560918205709155
:101770008305841B950BA60BB70B0997A105B10533
:1017800020F010929E0710929D0740916F07509194
:10179000700730E020E0F901EE0FFF1FEB50F94F2A
:1017A0000190F081E02D309799F0D90183E0B69552
:1017B000A7958A95E1F7A40FB51F8C9190E0622F51
:1017C000677002C0959587956A95E2F7817080836E
:1017D0002F5F3F4F28333105F1F6809166079091D6
:1017E0006707BC01605C7F4FDC012F96EEADFFAD5B
:1017F0002F97219131912F96FFAFEEAF2F972115A3
:10180000310531F04D915C911197F901518340837D
:1018100012966A177B0749F7FB0188599F4F61961B
:10182000AEADBFAD61974D915D916196BFAFAEAF6B
:1018300061974115510529F020813181DA012D93FD
:101840003C9332968E179F0751F7E0916907F0910C
:101850006A07CF01805B9F4F6396AEADBFAD6397C4
:101860002D913D916396BFAFAEAF639721153105C2
:1018700051F04081518162817381D9014D935D9313
:101880006D937C93139734968E179F0729F7E091F9
:101890006C07F0916D07CF0180569F4F2D96AEAD2E
:1018A000BFAD2D97ED90FD902D96BFAFAEAF2D97AC
:1018B000E114F104F1F0008111817281638154819E
:1018C000458136812781D7010C9311961C9311977E
:1018D00012967C93129713966C93139714965C93BD
:1018E000149715964C93159716963C931697179642
:1018F0002C9338968E179F0789F6C85ADF4F0FB67C
:10190000F894DEBF0FBECDBFDF91CF911F910F9135
:10191000FF90EF90DF90CF90BF90AF909F908F900F
:101920007F906F905F904F903F902F900895473039
:101930005105C8F18090A507912CB12CA12CF9E09C
:101940008F0E911CA11CB11CF0CE4430510558F1F2
:101950002091A1073091A207322723273227A3E045
:10196000B0E00E94D01C4B015C0106E0800E911C8F
:10197000A11CB11CDACE44305105A8F08090A1071B
:101980009090A207982489249824B12CA12C26E0B9
:10199000820E911CA11CB11CC8CEA4E08A2E912CF1
:1019A000A12CB12CC2CE812C912C5401BECED09052
:1019B000A0078FEB8D0D8A3000F190928505809203
:1019C00084050E94B909B501A40142505109610979
:1019D00071094156584FDA012C91B1E08B1A9108E8
:1019E000A108B108F401E156F84F308123273227CE
:1019F00023272817390709F045CE02501109109303
:101A00008505009384056090A1077090A207762455
:101A1000672476248091A1070091A3071091A40761
:101A2000102701271027E090A207F090A307FE24BB
:101A3000EF24FE24C090A407E2E4DE1609F4A8C750
:101A4000ED1508F478C0F5E0DF1609F4D8C5FD15EA
:101A500070F1F2E0CF2EDC1409F417C5CD1450F06C
:101A6000EE24E394DE1409F487C461E070E08D2D68
:101A700090E041C0E3E0FE2EDF1409F4D8C124E079
:101A8000D212F3CFC801019763E070E08D37910562
:101A900058F420917407C301800F911F281719066D
:101AA00008F07CC562E070E084E090E024C03FE094
:101AB000D31609F4C3C53D1508F146E0D412D5CFBD
:101AC0002091680780916B0790E0880F991FE22FA3
:101AD000F0E08E0F9F1F40916E0724E0429FA0010F
:101AE0001124480F591F6416750608F493C062E06C
:101AF00070E086E090E00E94AA0999C080E1D816C3
:101B000009F4BAC291E4D912B0CFD092A00781E013
:101B10008093A1078EE78093A20780E00E94710561
:101B20009093A3078093A40786E090E090938505A7
:101B3000809384057CC0A7E4DA1609F49BC7AD1531
:101B400008F441C0B4E4DB1609F4A7C6DB1608F4B8
:101B500032C6E5E4DE1609F463C7F6E4DF1285CF8A
:101B60002FB7F8948091950790919607A0919707C9
:101B7000B09198072FBFD092A0072EE72093A1071E
:101B8000209108022093A2072091820730918307B9
:101B900040918407509185075093A3074093A40771
:101BA0003093A5072093A607B093A707A093A80793
:101BB0009093A9078093AA07809109028093AB07AD
:101BC0008DE090E0B3CF79E4C72EDC1409F486C72A
:101BD000DC1408F46EC76AE4E62EDE1409F48BC741
:101BE0005BE4F52EDF1041CF813009F087C71092FA
:101BF0008A078BE48093A0078EE78093A1078091EA
:101C000008028093A207809109028093A30785E0D0
:101C100090E08CCF6E167F06D8F4660C771CE091AE
:101C20006607F0916707E60DF71D11830083809129
:101C300084059091850502968130914008F45CC539
:101C40008091A00764E070E090E00E94AA0954C56A
:101C500068167906F0F5A80170E060E080916907E8
:101C600090916A0760FC1CC0D301AE1BBF0BFD0145
:101C7000EE0FFF1FEC7FF370E80FF91F8081918159
:101C8000A281B381AA27BB27BA0155274427842BF9
:101C9000952BA62BB72B80839183A283B383C7CFC9
:101CA000E095F095E60DF71DEE0FFF1FEC7FF3704A
:101CB000E80FF91F0081118122813381002711274C
:101CC000042B152B262B372B008311832283338380
:101CD000AECF9301237033274801B12CA12CC12C26
:101CE000D12C7601E0916C07F0916D07211531053B
:101CF00049F5681A790A660C771CB8EF6B22B7E0D1
:101D00007B22E60DF71D4080618072801381B481D3
:101D1000A581940140E050E060E070E080E090E058
:101D200000E30E943E1D2429208336293183472960
:101D30004283512B5383B62BB483A72BA583868371
:101D4000978375CF2130310541F50FEF601A700A86
:101D5000681A790A660C771C18EF612217E0712265
:101D6000E60DF71D4080618072801381B681A781E6
:101D70009401A501B601C70100E20E943E1D24297D
:101D800020833629318347294283152B13836483AB
:101D900075838B2B86839A2BD3CF2230310529F57F
:101DA00022E0620E711C681A790A660C771C38EF03
:101DB000632237E07322E60DF71D40806180748056
:101DC0001581B681A7819401A501B601C70100E183
:101DD0000E943E1D24292083362931834283538368
:101DE000762A7482172B1583D4CF43E0640E711CBE
:101DF000681A790A660C771C88EF682287E07822D7
:101E0000E60DF71D528143813481258196818781BA
:101E1000808291825A2952834B2943833C293483FF
:101E20002D2925839E2996838F29878300CFC8017A
:101E3000019763E070E08D379105C8F44301800E8F
:101E4000911E20916807E0916B07F0E0EE0FFF1FF5
:101E5000E20FF11D80916E07A4E08A9FC00111245A
:101E60008E0F9F1F8816990628F062E070E083E0CD
:101E700090E041CE000F111F0D5F1F4F109385059D
:101E8000009384054FE9E42E47E0F42ED701119624
:101E9000CD018F5997408017910710F41C92F7CF0E
:101EA00083E08093A00703500093A107C0906C07C4
:101EB000D0906D07A0906907B0906A0740906607C0
:101EC00050906707A22FB0E02B96BFAFAEAF2B9715
:101ED00083E090E0DC01AE1BBF0BBEAFADAF2B9635
:101EE0002EAC3FAC2B97209430948614970409F4C1
:101EF0009ECE2B96AEADBFAD2B976A167B0650F4E7
:101F00009301220F331F240D351DD9018C91119699
:101F10003C911CC06E167F0680F560FC24C0C30196
:101F20002B96AEADBFAD2B978A1B9B0B880F991FCD
:101F30008C7F93708A0D9B1DDC014D915D916D919D
:101F40007C91AB0166277727842F352FD701139615
:101F50003C93139714968C93B2E0EB0EF11C0FEFA9
:101F6000601A700AC2CF9101260D371D220F331F50
:101F70002C7F33702A0D3B1DC8CF830103701127BE
:101F80000115110521F583010E1B1F0B000F111FF9
:101F9000087F17700C0D1D1DD8012C9111963C91D6
:101FA000119712964C91129713965C911397149671
:101FB0006C91149715967C91159716968C9116979F
:101FC00017969C9100E30E94591D822FBFCF0130CC
:101FD000110511F50E1B1F0B060D171D000F111F0C
:101FE000087F17700C0D1D1DD8012C9111963C9186
:101FF000119712964C91129713965C911397149621
:102000006C91149715967C91159716968C9116974E
:1020100017969C9100E2D7CF0230110511F50E1BE7
:102020001F0B060D171D000F111F087F17700C0DD9
:102030001D1DD8012C9111963C91119712964C912F
:10204000129713965C91139714966C9114971596AA
:102050007C91159716968C91169717969C9100E196
:10206000B2CF2DAD3EAD260D371D220F331F287F79
:1020700037702C0D3D1D49CFC80101978B37910555
:1020800040F42091A507C801880F991F2817190649
:1020900029F063E070E080E190E02DCD2301400E57
:1020A000511E20916807A0916B07B0E0AA0FBB1FDB
:1020B000A20FB11D80916E0734E0839FC0011124EF
:1020C0008A0F9B1F4816590618F062E070E0E3CFB4
:1020D00086E090E0909385058093840580E180936D
:1020E000A0077092A1076092A2071092A307009325
:1020F000A40780906C0790906D07E0916907F091BC
:102100006A072B96FFAFEEAF2B97C0906607D09073
:1021100067076596DFAECEAE65973FE9232E37E0C1
:10212000332EA22EB12C83E090E07C01EA1AFB0A48
:102130006796FFAEEEAE6797F501E095F09569966C
:10214000FFAFEEAF69976414750409F4D5C2F101CD
:1021500047818085542F482F6A147B0490F4F30143
:10216000EE0FFF1F6596CEACDFAC6597EC0DFD1D45
:10217000518340833FEF631A730A42E0240E311CFF
:10218000E2CF6A167B06D0F570E060E060FC1FC00D
:10219000F301EA19FB09EE0FFF1FEC7FF3702B969A
:1021A000EEACFFAC2B97EE0DFF1D0081118122815B
:1021B000338122273327BA0155274427402B512B3F
:1021C000622B732B4083518362837383D3CF6996D1
:1021D000EEADFFAD6997E60DF71DEE0FFF1FEC7F2B
:1021E000F3702B96CEACDFAC2B97EC0DFD1D008170
:1021F00011812281338100271127E0CFF301E370A1
:10220000FF276A01F12CE12C00E010E09801CDAE2F
:10221000DEAEEFAE2196FFAE219722960FAF22974A
:1022200023961FAF239724962FAF249725963FAF71
:102230002597309779F5F301EA1BFB0BEE0FFF1F93
:10224000E87FF770E80DF91DD0802896DFAE28975B
:10225000C180D280E380F48015812DAD3EAD40E099
:1022600050E060E070E080E090E000E30E943E1DFE
:1022700028960FAD2897202B20833C2931834D29A8
:1022800042835E295383F62AF482172B15838683B3
:10229000978370CFE130F10579F5EA1BFB0BE60D72
:1022A000F71DEE0FFF1FE87FF770E80DF91D108195
:1022B00028961FAF2897C180D280E380F6801781CF
:1022C0002DAD3EAD40E050E060E070E080E090E099
:1022D00000E20E943E1D28960FAD2897202B2083F8
:1022E0003C2931834D294283E52AE3826483758347
:1022F0008F298683912BCCCFE230F10561F5EA1B63
:10230000FB0BE60DF71DEE0FFF1FE87FF770E80DE2
:10231000F91D108128961FAF2897C180D480E580D1
:10232000F68017812DAD3EAD40E050E060E070E0FA
:1023300080E090E000E10E943E1D28960FAD2897B6
:10234000202B20833C29318342835383D62AD48295
:10235000E72AE582CDCF6796EEADFFAD6797E60D34
:10236000F71DEE0FFF1FE87FF770E80DF91D1DAD9B
:1023700010832EAD2183FECEC801019763E070E08B
:10238000803D974030F520917107C301800F911F68
:1023900062E070E028171906E0F0C80123E0969586
:1023A00087952A95E1F7980127703327232BA1F40D
:1023B0000396909385058093840580918405909180
:1023C0008505EFE9F7E08130B1E09B0738F064E084
:1023D00070E081E090E08FCB0496EBCF31969F01C7
:1023E0002F5937402817390710F41082F7CF91E0A2
:1023F0009093A00783508093A107A0906F07B0909F
:10240000700770E060E020E0C12CD12C7601C3940D
:1024100016012701022E04C0220C331C441C551C3B
:102420000A94D2F7FB0143E0F695E7954A95E1F768
:10243000EE55F84F3081A301A3E056954795AA9534
:10244000E1F74F7155274A0D5B1DDA014C9150E0C1
:10245000B62DB77002C055954795BA95E2F7822D13
:1024600040FF0FC0832B80832F5F283009F420E0CA
:10247000EFEF6E1A7E0A6F5F7F4F0617170741F660
:10248000D6CB809538233083EFCFC801019763E026
:1024900070E0803D974030F520917707C301800FB1
:1024A000911F62E070E028171906E0F0C80133E0E0
:1024B000969587953A95E1F7980127703327232B56
:1024C000A1F40396909385058093840580918405FB
:1024D00090918505EFE9F7E0813021E0920738F02F
:1024E00064E070E082E090E006CB0496EBCF31969A
:1024F0009F012F5937402817390710F41082F7CF62
:1025000092E09093A00783508093A1076091750794
:102510007091760750E040E0B12CC12CD12C7601AF
:10252000C394160127010B2C04C0220C331C441C3D
:10253000551C0A94D2F7FA0183E0F695E7958A953F
:10254000E1F7EE55F84FA080930193E0369527957B
:102550009A95E1F7260F372F311DD9012C9130E0E4
:10256000B62DB77002C035952795BA95E2F7822D42
:1025700020FF10C08A298083B394E8E0BE1201C016
:10258000B12CFFEF6F1A7F0A4F5F5F4F04171507DB
:1025900041F64DCB8095A822A082EECFC801880FCE
:1025A000991F03969093850580938405EFE9F7E0E2
:1025B000DF0111969D012F5937402817390710F474
:1025C0001C92F7CF94E09093A00783508093A107CB
:1025D000660C771CA0917207B0917307A60DB71D0A
:1025E0000150110932960F3F100709F420CB8C914E
:1025F00011969C911197129691838283F1CF0115C8
:102600003FEF130729F063E070E00115110549F46D
:10261000809171078150990B8615970528F462E027
:1026200070E085E090E067CA41E001151F4F09F0B6
:1026300040E060E0C3010E947E09F9CA9801E3E02E
:1026400036952795EA95E1F7822FA801477055271F
:10265000452B11F081E0820F980121503109203B78
:10266000374020F49091A507981729F063E070E0B7
:102670008FE090E040CA20917107C301800F911F45
:102680002817190618F462E070E0F2CF86E090E0B7
:1026900090938505809384058FE08093A0077092C6
:1026A000A1076092A2071093A3070093A407F12C3F
:1026B000E12CD12CF70173E0F695E7957A95E1F7D7
:1026C000E156F84F478150E00D2C02C055954795D3
:1026D0000A94E2F7417060E0C701860D971D0E94E1
:1026E0007E09D394A8E0DA1201C0D12CBFEFEB1A17
:1026F000FB0AE016F106F1F6E0908405F0908505FE
:1027000087010E5F1F4F10938505009384050E947B
:10271000B909F701E156F84F908381832996CFAC30
:102720002997C7FC12C061E08C2D0E943C02809169
:102730008605909187058230910538F0880F991FA2
:10274000880F991F05970197F1F72796AEADBFAD9A
:102750002797ED91FC9111970280F381E02DA8015C
:102760006FE977E0CD0119952796AEADBFAD2797FC
:10277000ED91FC9111970680F781E02DCD0119951F
:1027800080918605909187058230910538F0880FF9
:10279000991F880F991F05970197F1F72996CFACDC
:1027A0002997C7FE02C00C94C10B60E08C2D0E94DB
:1027B0003C020C94C10B811165C0C090A407D0905D
:1027C000A5070E947105009709F45CC0E816F90698
:1027D00008F058C0DC24CD24DC24C816D90608F043
:1027E00051C0CE14DF0408F44DC047016AEAA62E9A
:1027F00067E0B62E10E000E0B40180E00E946B08B4
:102800009C01200F311F255F3F4F2130314098F44C
:10281000892B59F0A501B40180E00E947D08009742
:1028200021F0A80EB91E080F191FC40101967401EA
:10283000C816D90628F5C8010B9690938505809394
:10284000840583E48093A0078EE78093A107F0922C
:10285000A207E092A30780918207909183072091BD
:102860008407309185073093A4072093A5079093A0
:10287000A6078093A7071093A8070093A907D7C9B5
:102880004C01BACF83E090E0909385058093840556
:1028900083E48093A00781E878C0F5E16F167104A6
:1028A00008F06AC0C301880F991F860D971DA3EA1F
:1028B000B7E08E010F5F1F4FF8019F01201B310B06
:1028C0002817390718F42D912193F7CFB12CA12C9B
:1028D000412CD12CC12C4BE0E42EF12C6A147B044A
:1028E00041F1D8013C9011968C90119712968C91E1
:1028F000982C882EB401832D0E946B08009791F0CC
:102900008E0D9F1D81309140A0F4A7014156584F74
:10291000B401832D0E947D08009721F0E80EF91E76
:10292000C80ED91E0D5F1F4F4A2CF50131965F016D
:10293000D5CFF0928505E092840584E48093A007CA
:102940008EE78093A1071092A2074092A30780917F
:1029500082079091830720918407309185073093F7
:10296000A4072093A5079093A6078093A707D0926A
:10297000A807C092A9075BC983E090E09093850502
:1029800080938405D092A00782E88093A1074FC965
:102990000091A5071091A607102701271027093FCE
:1029A000110548F083E090E09093850580938405BD
:1029B000D092A00770CFB7010E943C08282FCB010E
:1029C000009751F1253140F530E049E0429FF00198
:1029D000439FF00D1124EF5EFB4FCC20C1F020850A
:1029E0002223E1F02017110609F0C0F40190F081D4
:1029F000E02D67EA77E019958EE723E030E0309329
:102A000085052093840592E49093A007BECF0280B1
:102A1000F381E02D1995F0CF81E8EFCF82E8EDCF7B
:102A2000D092A0078EE78093A10781E2E9E5F5E067
:102A3000AE014F5F5F4FDA0101900D928A95E1F789
:102A4000E2EAF7E0DA01CD01841B950B6D919F015D
:102A50002F593740662311F06193F5CF2156384F37
:102A60004DEAD9014C93FC01E156F84F2EED248339
:102A700005965CC8D092A0078EE78093A10786E0F8
:102A8000EAE7F5E0DE01119601900D928A95E1F7F3
:102A9000FE013196A2EAB7E081919D012F5937409E
:102AA000882311F08D93F8CF30938505209384050A
:102AB000BEC888E48093A0078EE78093A10789E0D1
:102AC0008093A207E8E6F9E0A3EAB7E081E799E09E
:102AD00021912D938E179F07D9F772C8D092A00726
:102AE00084E8B2E66B16710409F485E88093A107C7
:102AF00083E090E01BC8D092A007F7CF81E08093DD
:102B00008A0777C80F931F93CF93DF938B01FC0144
:102B1000FE5F2081222351F19C012F5F3D4F225007
:102B20003E4FD9012D913C912F37310510F02EE702
:102B300030E0622FE80128834081442311F08F5F49
:102B40009D4FFC01D80180E0861790F49081329669
:102B500011969C931197AF0142505109EA01998156
:102B600012969C9312978F5F1296EECF9C01D7CF4F
:102B7000220F331F2F5F3F4F2D3F310579F04DEF6F
:102B800050E0421B530B70E060E0C801820F931FBE
:102B9000DF91CF911F910F910C94B71EDF91CF91D0
:102BA0001F910F9108950C94251E0C94251E0F93D0
:102BB0001F93CF93DF93CDB7DEB7C150D1400FB68F
:102BC000F894DEBF0FBECDBF8C01FB0140814F37B3
:102BD00008F04EE750E0C050DF4F59834883C050A3
:102BE000D1406F5F7F4FCE0101960E94AE1EC05054
:102BF000DF4FE881F981C050D14081E090E08C0F37
:102C00009D1FE80FF91F108281E091E0FE013196CF
:102C1000D80101900D920197E1F7CF5FDE4F0FB61B
:102C2000F894DEBF0FBECDBFDF91CF911F910F9102
:102C300008950F931F93CF93DF93CDB7DEB7C150A5
:102C4000D1400FB6F894DEBF0FBECDBF8C01FB01A3
:102C500040814F3708F04EE750E0C050DF4F5983B6
:102C60004883C050D1406F5F7F4FCE0101960E94D4
:102C7000AE1EC050DF4FE881F981C050D14081E0E5
:102C800090E08C0F9D1FE80FF91F1082F801EF5F95
:102C9000FE4F81E08083D801AE5FBE4F81E091E0BE
:102CA000FE01319601900D920197E1F7CF5FDE4F63
:102CB0000FB6F894DEBF0FBECDBFDF91CF911F914D
:102CC0000F910895FF920F931F93CF93DF938B0182
:102CD000FC01EF5FFE4F2081222319F19C012E5F42
:102CE0003E4F21503F4FD901CD91DC91CF37D105D7
:102CF00010F0CEE7D0E0FC2ED801CC93C11113C068
:102D00004EE750E04C1B5D0BCE01019670E060E099
:102D1000800F911FDF91CF911F910F91FF900C9425
:102D2000B71E9C01DECF2081BC01222311F06E5F13
:102D30007E4FAE01C80101960E94AE1E8EE7F812CA
:102D4000DFCFDF91CF911F910F91FF9008951F92D8
:102D50000F920FB60F9211242F933F938F939F934F
:102D6000AF93BF938091950790919607A091970795
:102D7000B09198073091940723E0230F2D3758F531
:102D80000196A11DB11D2093940780939507909300
:102D90009607A0939707B093980780919907909111
:102DA0009A07A0919B07B0919C070196A11DB11DA8
:102DB0008093990790939A07A0939B07B0939C07E1
:102DC000BF91AF919F918F913F912F910F900FBE27
:102DD0000F901F90189526E8230F0296A11DB11D94
:102DE000D2CF1F920F920FB60F9211240BB60F92F3
:102DF0002F933F934F935F936F937F938F939F9303
:102E0000AF93BF93EF93FF938FE998E00E9466031F
:102E1000FF91EF91BF91AF919F918F917F916F91B2
:102E20005F914F913F912F910F900BBE0F900FBE6E
:102E30000F901F9018951F920F920FB60F921124AA
:102E40000BB60F922F938F939F93EF93FF93E09185
:102E5000AF08F091B0088081E091B508F091B60814
:102E600082FD1DC090818091B8088F5F8F73209183
:102E7000B908821741F0E091B808F0E0E156F74F49
:102E8000958F8093B808FF91EF919F918F912F912B
:102E90000F900BBE0F900FBE0F901F901895808162
:102EA000F2CF1092A2081092A10888EE93E0A0E061
:102EB000B0E08093A3089093A408A093A508B093D2
:102EC000A60884E395E09093A00880939F0885EC82
:102ED00090E09093AC088093AB0884EC90E09093E2
:102EE000AE088093AD0880EC90E09093B00880939A
:102EF000AF0881EC90E09093B2088093B10882EC27
:102F000090E09093B4088093B30886EC90E090939F
:102F1000B6088093B5081092B8081092B9081092BC
:102F2000BA081092BB080E94F401A8E6B9E090E04C
:102F300080E041E2FC013E9621E030E086309105E0
:102F400010F430E020E0E20FF31F40935700E491CB
:102F5000ED9301968930910569F70895CF93DF933A
:102F6000CDB7DEB764970FB6F894DEBF0FBECDBF06
:102F7000789484B5826084BD84B5816084BD85B554
:102F8000826085BD85B5816085BD80916E00816060
:102F900080936E0010928100809181008260809306
:102FA0008100809181008160809381008091800008
:102FB0008160809380008091B10084608093B10033
:102FC0008091B00081608093B00080919100826018
:102FD0008093910080919100816080939100809115
:102FE00090008160809390008091A1008260809326
:102FF000A1008091A10081608093A1008091A00038
:1030000081608093A00080912101826080932101E2
:103010008091210181608093210180912001816054
:103020008093200180917A00846080937A0080915F
:103030007A00826080937A0080917A008160809328
:103040007A0080917A00806880937A001092C100A3
:1030500020916609309167093A8B298B8091640928
:10306000909165099A8389839C8B8B8B1A8619862C
:103070001C821B82912C812C712C612C512C412C97
:10308000312C212CA989BA89E985FA85AE17BF07A9
:1030900009F48FC0AB89BC8950968D919C91519752
:1030A000EB81FC81E80FF91FFC83EB831296DC9027
:1030B00012971396EC9013971496FC90149715960C
:1030C0000C91159716961C9116971796BC91EB8943
:1030D000FC89C084B1842D2D3E2D4F2D502F612FA2
:1030E0007B2F8C2D9B2DA0E00E947D1D09F054F4B8
:1030F000D12C6DE2E62E71E3F72E01E010E0B0E096
:10310000C12CB12CDD82EF82FB860C871D87BE8728
:10311000CF86B88A292D382D472D562D652D742D33
:10312000832D922DA0E00E947D1D31F1AD80BF80E6
:10313000CB84DC84ED84FE840F851889292D382DFD
:10314000472D562D652D742D832D922D0E94DF1C49
:10315000D22EE32EF42E052F162FB72FF82FE92F9E
:103160009A2C8B2C7C2C6C845D844E843F84288824
:10317000A0E00E947D1DA1F429853A852F5F3F4F75
:103180003A8729878B899C8942969C8B8B8B9D8063
:103190008F807B846C845D844E843F84288872CFCA
:1031A000DD82EF82FB860C871D87BE87FF87E88B59
:1031B000BDCF292D382D472D562D652D742D832DEE
:1031C000922DA0E00E947D1D59F4912C4DE2842E99
:1031D00051E3752E66246394512C412C312C212C03
:1031E00090920002809201027092020260920302A9
:1031F0005092040240920502309206022092070289
:10320000AB81BC818FEF9FEFA115E0E4BE0730F4E6
:10321000CD01880F991F009709F4A3C00E94891D52
:103220009E838D8390938107809380072B813C81BF
:10323000211580E2380708F097C0C901880F991F4F
:10324000880F991F009709F492C00E94891D9887E2
:103250008F839093870780938607AB81BC81B0935F
:103260008907A09388071C821B821A8A198AE9851C
:10327000FA852B813C81E217F30709F48CC0A98100
:10328000BA811296DC9012971396EC9013971496CD
:10329000FC90149715960C91159716961C911697FD
:1032A0001796BC91E981FA81C084B1842D2D3E2D01
:1032B0004F2D502F612F7B2F8C2D9B2DA0E00E9436
:1032C0007D1D09F044F4292D382D472D562D652DEF
:1032D000742D832D922DA92CB82CC72CD62CE52C1F
:1032E000F42C032D122D0E94E11CB22EA32E742F5C
:1032F000652FA981BA8150964D915C918A01000F8A
:10330000111FE988FA88EE0CFF1CC988DA88CC0CFA
:10331000DD1CCC0CDD1C90E080E00817190751F192
:10332000A981BA811E96ED91FC91E80FF91F2081C9
:103330003181F701E80FF91FAD81BE81EA0FFB1F54
:1033400031832083FC01EE0FFF1FEC0DFD1D2F814B
:103350003885E20FF31FB082A182728363830296E5
:10336000DCCF81E090E05ACF8FEF9FEF6ECF81E00E
:1033700090E06BCF89899A89840F951F9A8B898BEE
:10338000AB81BC811196BC83AB83E981FA817296D3
:10339000FA83E9836CCF81E08093090280930A026B
:1033A00010928A07809308029FB7F894409195077E
:1033B0005091960760919707709198079FBFE09191
:1033C000AF08F091B00892E09083E091AB08F091E3
:1033D000AC081082E091AD08F091AE0890E19083C6
:1033E0001092B708E091B308F091B40896E090838A
:1033F000E091B108F091B208908190619083E091E2
:10340000B108F091B208908198609083E091B10882
:10341000F091B208908190689083E091B108F091AA
:10342000B20890819F7D90832FE938E030938C051E
:1034300020938B059FEF90938A052EEE32E0309318
:1034400089052093880521E43AE03093870520938D
:1034500086058093650784E38093680784E1809301
:103460006B0780936E0788E38093710790E29093D7
:1034700074078093770787E090E00E94891D9093FE
:10348000700780936F07009709F451C0DC01E7E0F3
:103490001D92EA95E9F788E690E00E94891D9093D5
:1034A000670780936607009709F441C028E6DC01AE
:1034B0001D922A95E9F780E590E00E94891D90937E
:1034C0006A0780936907009791F120E5FC0111924A
:1034D0002A95E9F780EA90E00E94891D90936D0794
:1034E00080936C07009719F120EADC011D922A9560
:1034F000E9F787E090E00E94891D9093760780931A
:1035000075070097A1F0FC0127E011922A95E9F7D1
:1035100080E490E00E94891D909373078093720766
:10352000009729F020E4DC011D922A95E9F71A8220
:10353000198209811A81000F111F0B50194FF801D0
:1035400080819181892B49F481E090E00E94891D5E
:10355000D8018D939C93FC01108229813A812F5FC1
:103560003F4F3A8329832833310519F78091660745
:10357000909167079A838983E5EBF6E090E080E01D
:1035800021913191232B41F4DF01129729813A8156
:10359000280F391F2D933C9302968034910581F7B3
:1035A00010E000E0C801880F991FDC01AB5BB94F48
:1035B0007D018D919C91892B49F481E090E00E94DE
:1035C000891DF70191838083DC011C920F5F1F4FDF
:1035D0000833110539F72091720730917307E5E040
:1035E000F6E090E080E041915191452B39F4DF0104
:1035F0001297A901480F591F4D935C93029680348E
:10360000910589F7EDEDF5E090E080E029813A81C0
:10361000205C3F4F3A83298321913191232B41F440
:10362000DF01129729813A81280F391F2D933C938E
:1036300002968832910581F74091690750916A0797
:10364000E5EBF5E090E080E021913191232B59F4F6
:10365000DF0112979C01220F331F220F331F240F0B
:10366000351F2D933C9301968431910569F7409164
:103670006C0750916D07EDE8F5E090E080E0219156
:103680003191232B61F4DF0112979C0113E0220F8B
:10369000331F1A95E1F7240F351F2D933C930196A4
:1036A0008431910561F7209100023091010240912F
:1036B0000202509103026091040270910502E8EE4B
:1036C000AE2EF3E0BF2EC12CD12CE12CF12C00E06A
:1036D00010E080910602909107020E94E11C209365
:1036E0008C0730938D0740938E0750938F070E946D
:1036F000C80260939007709391078093920790930C
:103700009307992493940E94C80200919007109106
:1037100091072091920730919307601B710B820BE8
:10372000930B00918C0710918D0720918E0730919B
:103730008F07601771078207930708F4EEC0809126
:103740000A02811102C010928A0790920A02909296
:10375000090280918A078823A9F0809108028823B2
:1037600071F00E94F4010E940D08109282071092DD
:1037700083071092840710928507109208020E9416
:103780000D085BC0909208021A8219828091880706
:1037900090918907A981BA81A817B907D8F5E09156
:1037A0008607F0918707CD01880F991F880F991F11
:1037B000E80FF91F208131814281538121153105A4
:1037C0004105510571F060918207709183078091E6
:1037D0008407909185070E94A61C672B682B692B94
:1037E00099F4E0918007F091810789819A81880F8F
:1037F000991FE80FF91F80819181DC01ED91FC9107
:103800000480F581E02D1995E981FA813196FA83DA
:10381000E983BCCF8091820790918307A0918407B0
:10382000B09185070196A11DB11D809382079093E9
:103830008307A0938407B0938507809108028130A5
:1038400091F5209178073091790740917A0750914E
:103850007B0760917C0770917D0780917E07909136
:103860007F07A0900002B0900102C0900202D090A9
:103870000302E0900402F09005020091060210910C
:1038800007020E94741D20937807309379074093B4
:103890007A0750937B0760937C0770937D07809332
:1038A0007E0790937F070E94E40980918B07811126
:1038B00018C090928B070E94C80200918C0710914B
:1038C0008D0720918E0730918F07601B710B820B43
:1038D000930B609390077093910780939207909356
:1038E00093078091900790919107A0919207B091D2
:1038F000930740918C0750918D0760918E077091CE
:103900008F07840F951FA61FB71F80939007909372
:103910009107A0939207B09393070E94C802009169
:103920009007109191072091920730919307601BA7
:10393000710B820B930B603177428105910510F07A
:103940000E94E40988950E94F503DDCEA1E21A2EBB
:10395000AA1BBB1BFD010DC0AA1FBB1FEE1FFF1F33
:10396000A217B307E407F50720F0A21BB30BE40B83
:10397000F50B661F771F881F991F1A9469F76095CA
:103980007095809590959B01AC01BD01CF01089584
:10399000EE0FFF1F881F8BBF0790F691E02D199443
:1039A000A29FB001B39FC001A39F700D811D112480
:1039B000911DB29F700D811D1124911D0895689471
:1039C00001C0E8948F929F92CF93DF930E94ED1CE9
:1039D000DF91CF919F908F90089588249924F401CE
:1039E000E401B0E49F93AA279A158B049C04ED058B
:1039F000FE05CF05D007A10798F4AD2FDC2FCF2F00
:103A0000FE2FE92D982C892E982F872F762F652F42
:103A1000542F432F322F2227B85031F7BF9127C0A0
:103A20001B2EBF91BB27220F331F441F551F661F3C
:103A3000771F881F991F881C991CEE1FFF1FCC1F22
:103A4000DD1FAA1FBB1F8A149B04EC05FD05CE05D4
:103A5000DF05A007B10748F08A189B08EC09FD09AB
:103A6000CE09DF09A00BB10B21601A94E1F62EF408
:103A70009401AF01BE01CD01000C0895002E083065
:103A800090F0982F872F762F652F542F432F322FAA
:103A900022270850F4CF220F331F441F551F661FE3
:103AA000771F881F991F0A95B2F7002D089597FD7B
:103AB0001094002E083098F00850232F342F452FF3
:103AC000562F672F782F892F912DF4CF1594979526
:103AD00087957795679557954795379527950A95D3
:103AE000AAF71124002D08952A0D3B1D4C1D5D1DC4
:103AF0006E1D7F1D801F911F08950024A7FD009457
:103B00002A173005400550056005700580059005B1
:103B100008950F931F93CF93DF938230910510F494
:103B200082E090E0E0917309F091740930E020E0C8
:103B3000B0E0A0E0309799F42115310509F44AC0AE
:103B4000281B390B24303105D8F58A819B816115FA
:103B5000710589F1FB0193838283FE0111C04081CD
:103B600051810281138148175907E0F0481759071E
:103B700099F4109761F012960C93129713961C9378
:103B80003296CF01DF91CF911F910F91089500934D
:103B9000730910937409F4CF2115310551F04217C0
:103BA000530738F0A901DB019A01BD01DF01F801DB
:103BB000C1CFEF01F9CF9093740980937309CDCFF2
:103BC000FE01E20FF31F8193919322503109398353
:103BD0002883D7CF2091710930917209232B41F4AA
:103BE00020910D0230910E023093720920937109D9
:103BF00020910B0230910C022115310541F42DB7B3
:103C00003EB740910F0250911002241B350BE091FA
:103C10007109F0917209E217F307A0F42E1B3F0B14
:103C20002817390778F0AC014E5F5F4F241735072E
:103C300048F04E0F5F1F50937209409371098193B2
:103C400091939FCFF0E0E0E09CCFCF93DF9300977C
:103C5000E9F0FC01329713821282A0917309B091AE
:103C60007409ED0130E020E01097A1F4208131814A
:103C7000820F931F2091710930917209281739071B
:103C800009F061C0F0937209E0937109DF91CF915F
:103C90000895EA01CE17DF07E8F54A815B819E01AE
:103CA00041155105B1F7E901FB83EA834991599127
:103CB000C40FD51FEC17FD0761F480819181029636
:103CC000840F951FE90199838883828193819B8367
:103CD0008A83F0E0E0E012968D919C911397009713
:103CE000B9F52D913C911197CD010296820F931F4A
:103CF00020917109309172092817390739F63097E8
:103D000051F51092740910927309B0937209A0933F
:103D10007109BCCFD383C28340815181840F951F29
:103D2000C817D90761F44E5F5F4F88819981480FAA
:103D3000591F518340838A819B81938382832115FC
:103D4000310509F0B0CFF0937409E09373099ECF69
:103D5000FD01DC01C0CF13821282D7CFFB01DC0151
:103D600002C001900D9241505040D8F70895DC01F7
:103D700001C06D9341505040E0F70895F894FFCF93
:103D8000002D3101000000000101010000750980D3
:103D90000000C0C101C30302C2C60607C705C5C4EF
:103DA00004CC0C0DCD0FCFCE0E0ACACB0BC909081F
:103DB000C8D81819D91BDBDA1A1EDEDF1FDD1D1C5F
:103DC000DC14D4D515D71716D6D21213D311D1D0EF
:103DD00010F03031F133F3F23236F6F737F535348F
:103DE000F43CFCFD3DFF3F3EFEFA3A3BFB39F9F85F
:103DF0003828E8E929EB2B2AEAEE2E2FEF2DEDECFF
:103E00002CE42425E527E7E62622E2E323E121202E
:103E1000E0A06061A163A3A26266A6A767A565642E
:103E2000A46CACAD6DAF6F6EAEAA6A6BAB69A9A89E
:103E30006878B8B979BB7B7ABABE7E7FBF7DBDBCDE
:103E40007CB47475B577B7B67672B2B373B171706E
:103E5000B0509091519353529296565797559594CE
:103E6000549C5C5D9D5F9F9E5E5A9A9B5B995958DE
:103E700098884849894B8B8A4A4E8E8F4F8D4D4C7E
:103E80008C448485458747468682424383418180AE
:103E90004000C1814001C0804101C0804100C1811A
:103EA0004001C0804100C1814000C1814001C0800B
:103EB0004101C0804100C1814000C1814001C080FA
:103EC0004100C1814001C0804101C0804100C181E9
:103ED0004001C0804100C1814000C1814001C080DB
:103EE0004100C1814001C0804101C0804100C181C9
:103EF0004000C1814001C0804101C0804100C181BA
:103F00004001C0804100C1814000C1814001C080AA
:103F10004101C0804100C1814000C1814001C08099
:103F20004100C1814001C0804101C0804100C18188
:103F30004000C1814001C0804101C0804100C18179
:103F40004001C0804100C1814000C1814001C0806A
:103F50004100C1814001C0804101C0804100C18158
:103F60004001C0804100C1814000C1814001C0804A
:103F70004101C0804100C1814000C1814001C08039
:103F80004100C1814001C0804101C0804100C18128
:103F9000407209D7070308650901FB07F807EE0718
:103FA000E50701DD07DA07CD07C40701B907900768
:103FB000AC07A107029607930783077807026307F8
:103FC000AF0550074107042C072907160707070408
:103FD000DD065E06B1068E06086406610632060F2F
:103FE0000608FA05F705E405CA0504B505B2059CFF
:103FF00005820504DD07DA07CD07C407019607939C
:104000000783077807022C072907160707070464A8
:1040100006610632060F0608DD065E06B1068E064C
:1040200008DD065E06B1068E0608DD065E06B106F0
:104030008E0608DD065E06B1068E060819166009B2
:104040006216D7157FA408A00882150309FD000099
:104050000000000000000000000000000000000060
:104060000000000000000000000000000000000050
:104070000000000000000000000000000000000040
:104080000000000000000000000000000000000030
:1040900000002604D5157F046A05670566056605D8
:1040A0005B05000000006D05D3156E05F002ED0202
:1040B000000000008803F2021F03D50350032E0303
:1040C00042035441534B30005245533000504C434F
:1040D00000434F4E464947300062633462643038D3
:1040E0003736363562316533643038663437386494
:1040F00066333939376266336400342E322E370026
:00000001FF
